:0163B50022C5
:10633800E4FDFCC3ED9FEC9E500A1263B50DBD0051
:04634800010C80EFD5
:01634C00222E
:0E637300E4FFFE0FBF00010EBE06F8BFB2F53C
:0163810022F9
:04630900AD07AC062A
:10630D00E4FBFAC3EB9DEA9C500A1263730BBB00CE
:04631D00010A80EF02
:016321002259
:102C4B00630004080000000000000000808080800A
:102C5B0080008000A0A0A000000000005050F850A1
:102C6B00F85050002078A07028F02000C0C8102029
:102C7B00409818006090A040A8906800C040800069
:102C8B0000000000204080808040200080402020F9
:102C9B0020408000005020F820500000002020F839
:102CAB00202000000000000000C04080000000F861
:102CBB00000000000000000000C0C0000008102051
:102CCB0040800000708898A8C88870002060202081
:102CDB0020207000708808304080F8007088083021
:102CEB000888700010305090F8101000F880F00831
:102CFB0008887000304080F088887000F808102039
:102D0B004040400070888870888870007088887890
:102D1B000810600000C0C000C0C000000000C0C0B0
:102D2B0000C0408010204080402010000000F800C0
:102D3B00F8000000804020102040800070880810B0
:102D4B002000200070880868A8A87000708888F898
:102D5B0088888800F08888F08888F00070888080E8
:102D6B0080887000E09088888890E000F88080F080
:102D7B008080F800F88080F08080800070888080F0
:102D8B0098887800888888F888888800E0404040D8
:102D9B004040E00038101010109060008890A0C0E8
:102DAB00A0908800808080808080F80088D8A8A8B8
:102DBB00888888008888C8A8988888007088888840
:102DCB0088887000F08888F0808080007088888800
:102DDB00A8906800F08888F0A090880070888070B8
:102DEB0008887000F8202020202020008888888800
:102DFB00888870008888888888502000888888A8F0
:102E0B00A8A85000888850205088880088885020B7
:102E1B0020202000F80810204080F800E0808080FF
:102E2B008080E0000080402010080000E02020207F
:102E3B002020E0002050880000000000000000006F
:102E4B00000000F880402000000000000000700827
:102E5B00788878008080B0C88888F0000000609087
:102E6B008090600008086898888878000000708857
:102E7B00F8807000205040E040404000000078880F
:102E8B00887808708080B0C88888880040004040EF
:102E9B004040400020006020202020C0808090A077
:102EAB00C0A09000C04040404040E0000000D0A8CF
:102EBB00A88888000000B0D090909000000060902F
:102ECB00909060000000E09090E080800000709097
:102EDB009070101000005060404040000000708067
:102EEB006010E0004040E0404040600000009090E7
:102EFB00909070000000888888502000000088881F
:102F0B00A8A8500000008850205088000000909026
:102F1B00907010600000F8102040F80020404080B6
:102F2B004040200040404040404040008040402016
:102F3B00404080006890000000000000F8F8F8F8AE
:042F4B00F8F8F8009A
:10572200900BD1ECF0A3EDF0A3EBF0900BCFEEF0E9
:03573200A3EFF0F2
:10573500D39478EE940040037F0022D3900BD2E0FF
:105745009438900BD1E0940040037F0022900BD356
:10575500E0FFC394204006EFD3947F4006900BD31F
:105765007420F0900BD3E024E0F0E4900BD5F0909A
:105775000BD5E0FFC394084003025820900BD3E0FB
:1057850075F008A42408F582E5F03404F583E58274
:105795002FF582E43583F583E0900BD4F0E4900B8C
:1057A500D6F0900BD6E0FFC39406504A744C2FF503
:1057B50082E4340CF583E0FF900BD4E05F70059034
:1057C5000C4B8003900C54E05401900BD7F0900BD8
:1057D500CFA3E0FFA3A3E0FD900BD7E0FB126191FF
:1057E500900BD0E004F07006900BCFE004F0900B26
:1057F500D6E004F080AC900BD2E004F07006900B7C
:10580500D1E004F0900BD0E024FAF0900BCFE03417
:0D581500FFF0900BD5E004F00257747F0106
:015822002263
:1060D500900BC8EEF0A3EFF0A3ECF0A3EDF0A3EB6B
:1060E500F0A3EAF0A3E9F0900BCCE0FBA3E0FAA360
:1060F500E0F9121AE66036900BC8E0FEA3E0FFA3B4
:10610500E0FCA3E0FDA3E0FBA3E475F001121B7C1A
:10611500A9F0FA121AE6FB125722EF6010900BC98C
:0E612500E02406F0900BC8E03400F080BA22AF
:102F4F00630007080000000000000000183C3C1858
:102F5F001800180066662400000000006C6CFE6C00
:102F6F00FE6C6C00183E603C067C180000C6CC1846
:102F7F003066C600386C3876DCCC76001818300016
:102F8F00000000000C18303030180C0030180C0CFA
:102F9F000C18300000663CFF3C6600000018187EDD
:102FAF001818000000000000001818300000007E04
:102FBF00000000000000000000181800060C183078
:102FCF0060C08000386CC6C6C66C38001838181838
:102FDF0018187E007CC6061C3066FE007CC6063CB8
:102FEF0006C67C001C3C6CCCFE0C1E00FEC0C0FC58
:102FFF0006C67C003860C0FCC6C67C00FEC60C1836
:10300F00303030007CC6C67CC6C67C007CC6C67E0F
:10301F00060C780000181800001818000018180087
:10302F0000181830060C1830180C060000007E002F
:10303F00007E00006030180C183060007CC60C1841
:10304F00180018007CC6DEDEDEC07800386CC6FEC5
:10305F00C6C6C600FC66667C6666FC003C66C0C0E1
:10306F00C0663C00F86C6666666CF800FE626878B5
:10307F006862FE00FE6268786860F0003C66C0C05F
:10308F00CE663A00C6C6C6FEC6C6C6003C1818189D
:10309F0018183C001E0C0C0CCCCC7800E6666C7833
:1030AF006C66E600F06060606266FE00C6EEFEFED3
:1030BF00D6C6C600C6E6F6DECEC6C6007CC6C6C6F7
:1030CF00C6C67C00FC66667C6060F0007CC6C6C627
:1030DF00C6CE7C0EFC66667C6C66E6003C663018DD
:1030EF000C663C007E7E5A1818183C00C6C6C6C631
:1030FF00C6C67C00C6C6C6C6C66C3800C6C6C6D60F
:10310F00D6FE6C00C6C66C386CC6C6006666663CDA
:10311F0018183C00FEC68C183266FE003C3030306A
:10312F0030303C00C06030180C0602003C0C0C0C18
:10313F000C0C3C0010386CC60000000000000000B2
:10314F00000000FF30180C00000000000000780C99
:10315F007CCC7600E0607C666666DC0000007CC696
:10316F00C0C67C001C0C7CCCCCCC760000007CC68E
:10317F00FEC07C003C6660F86060F000000076CC1A
:10318F00CC7C0CF8E0606C766666E60018003818A8
:10319F0018183C00060006060666663CE060666C82
:1031AF00786CE6003818181818183C000000ECFE70
:1031BF00D6D6D6000000DC666666660000007CC6C8
:1031CF00C6C67C000000DC66667C60F0000076CC32
:1031DF00CC7C0C1E0000DC766060F00000007EC02E
:1031EF007C06FC003030FC3030361C000000CCCCAC
:1031FF00CCCC76000000C6C6C66C38000000C6D620
:10320F00D6FE6C000000C66C386CC6000000C6C647
:10321F00C67E06FC00007E4C18327E000E18187019
:10322F0018180E0018181818181818007018180EFB
:10323F001818700076DC000000000000FCFCFCFC9D
:04324F00FCFCFC0087
:10582300900BD1ECF0A3EDF0A3EBF0900BCFEEF0E7
:03583300A3EFF0F0
:10583600D39478EE940040037F0022D3900BD2E0FD
:105846009438900BD1E0940040037F0022900BD354
:10585600E0FFC394204006EFD3947F4006900BD31D
:105866007420F0900BD3E024E0F0E4900BD5F09098
:105876000BD5E0FFC394084003025921900BD3E0F7
:1058860075F008A42408F582E5F03407F583E5826F
:105896002FF582E43583F583E0900BD4F0E4900B8A
:1058A600D6F0900BD6E0FFC39408504A744C2FF5FF
:1058B60082E4340CF583E0FF900BD4E05F70059032
:1058C6000C4B8003900C54E05401900BD7F0900BD6
:1058D600CFA3E0FFA3A3E0FD900BD7E0FB126191FD
:1058E600900BD0E004F07006900BCFE004F0900B24
:1058F600D6E004F080AC900BD2E004F07006900B7A
:10590600D1E004F0900BD0E024F8F0900BCFE03417
:0D591600FFF0900BD5E004F00258757F0102
:015923002261
:10613300900BC8EEF0A3EFF0A3ECF0A3EDF0A3EB0C
:10614300F0A3EAF0A3E9F0900BCCE0FBA3E0FAA301
:10615300E0F9121AE66036900BC8E0FEA3E0FFA355
:10616300E0FCA3E0FDA3E0FBA3E475F001121B7CBC
:10617300A9F0FA121AE6FB125823EF6010900BC92C
:0E618300E02406F0900BC8E03400F080BA2251
:10606500900C5FEEF0A3EFF0A3ECF0A3EDF0A3EA44
:10607500F0A3EBF0900C67E0900BCBF012627190FF
:106085000C5FA3E0FF900C65A3E0FD900C63A3E01B
:10609500FB900C67E0900BCBF0126271900C5FA344
:1060A500E0FFA3A3E0FD900C65A3E0FBA3E0900B4C
:1060B500CBF0125BB9900C63A3E0FF900C61A3E0F9
:1060C500FD900C65A3E0FBA3E0900BCBF0025BB960
:10561600900C42ECF0A3EDF0900C40EEF0A3EFF00E
:08562600900C44EAF0A3EBF044
:10562E00D3EF9BEE9A4027900C40E0FEA3E0FF9054
:10563E000C49EEF0A3EFF0900C44E0FDA3E0900CCB
:10564E0040CDF0A3EDF0900C44EEF0A3EFF0900CF3
:10565E0046E0FEA3E0FF900C42E0FCA3E0FDD39FEA
:10566E00EC9E4018900C49ECF0A3EDF0900C42EE3D
:10567E00F0A3EFF0900C46ECF0A3EDF0900C46E0AA
:10568E00FEA3E0FF900C42E0FCA3E0FDB5071BEC8F
:10569E00B50617900C40A3E0FF900C44A3E0FB90DE
:1056AE000C48E0900BCBF0026271900C44E0FEA32C
:1056BE00E0FF900C40E0FCA3E0FDB50719ECB50649
:1056CE0015AF05A3A3E0FD900C46A3E0FBA3E0906D
:1056DE000BCBF0025BB9900C46E0FEA3E0FF900C02
:1056EE0042E0FCA3E0FDD39FEC9E5027900C40A31C
:1056FE00E0FF900C44A3E0FB900C48E0900BCBF045
:10570E00126271900C43E004F07006900C42E004BB
:03571E00F080C355
:015721002265
:105F6500900C68EEF0A3EFF0A3ECF0A3EDF0A3EA3C
:105F7500F0A3EBF04A606C900C6CE0FEA3E0FF90A0
:105F85000C69E02FFD900C68E03EFCD3ED9480ECAD
:105F95009400504F900C6AE0FCA3E0FD2FFFEC3E0F
:105FA500FED3EF9440EE94005039900C6CE0FEA3C4
:105FB500E0FF900C68E0FAA3E02FFBEA3EFA900CB4
:105FC5006AE0F8A3E02FFFE83E900C65F0A3EFF040
:105FD500900C6EE0900C67F0900C68E0FEA3E0FF7B
:045FE50012606522BF
:104ABA00900BFBE0FCA3E0FD900C04E0FAA3E0FB02
:104ACA00A3E0FFA3E0900C17CFF0A3EFF0900C0344
:0D4ADA00E0900C19F0900BF9E0FEA3E0FF56
:104AE700900C11EEF0A3EFF0A3ECF0A3EDF0A3EA26
:044AF700F0A3EBF04D
:104AFB00900C11E0FEA3E0FFC3EB9FFFEA9E900C2E
:104B0B001AF0FAA3EFF0FB900C13E0FEA3E0FFC347
:104B1B00900C18E09FFF900C17E09E900C1CF0A3DC
:104B2B00EFF0D3EB9400EA648094804006A3740109
:104B3B00F0802CC3900C1AE0648094805008900C89
:104B4B001E74FFF08019900C11A3E0FFA3A3E0FDEE
:104B5B00900C17A3E0FBA3E0900BCBF0025BB9909A
:104B6B000C1CE0FEA3E0D39400EE6480948040081C
:104B7B00900C1F7401F08029C3EE64809480500860
:104B8B00900C1F74FFF08019900C11A3E0FFA3A3EE
:104B9B00E0FDA3A3E0FB900C19E0900BCBF00262BD
:104BAB0071900C1EE0FF3395E0FE900C1AE0FCA315
:104BBB00E0FD121AFF900C1AEEF0A3EFF0900C1F11
:104BCB00E0FF3395E0FE900C1CE0FCA3E0FD121A15
:104BDB00FF900C1CEEF0A3EFF0900C1AE0FCA3E09E
:104BEB00FD25E0FEEC33900C20F0A3CEF0900C1CD6
:104BFB00E0FAA3E0FB25E0FEEA33900C22F0A3CE13
:104C0B00F0C3ED9BEA6480F8EC6480985003024C8F
:104C1B00CA900C1AE0FEA3E0FF900C23E09FFF90DC
:104C2B000C22E09E900C24F0A3EFF0900C15E0FE0C
:104C3B00A3E0FF900C11E0FCA3E0FD6F7002EC6EA3
:104C4B007003024D76AF05A3A3E0FD900C19E0FBBA
:104C5B00126191900C1EE0FF3395E0FE900C12E078
:104C6B002FF0900C11E03EF0C3900C24E064809484
:104C7B00805013900C22E0FEA3E0FF900C25E02F58
:104C8B00F0900C248033900C20E0FEA3E0FFC39047
:104C9B000C23E09FFF900C22E09EFE900C25E02F52
:104CAB00F0900C24E03EF0900C1FE0FF3395E0FEFB
:104CBB00900C14E02FF0900C13E03EF0024C369069
:104CCB000C1CE0FEA3E0FFC3900C21E09FFF900CB7
:104CDB0020E09E900C24F0A3EFF0900C17E0FEA3C5
:104CEB00E0FF900C13E0FCA3E0FD6F7002EC6E6034
:104CFB007A900C11A3E0FF900C19E0FB12619190DC
:104D0B000C1FE0FF3395E0FE900C14E02FF0900C9D
:104D1B0013E03EF0C3900C24E06480948050139019
:104D2B000C20E0FEA3E0FF900C25E02FF0900C246C
:104D3B008033900C22E0FEA3E0FFC3900C21E09F98
:104D4B00FF900C20E09EFE900C25E02FF0900C24A1
:104D5B00E03EF0900C1EE0FF3395E0FE900C12E06D
:104D6B002FF0900C11E03EF0024CE5900C11A3E0FB
:0D4D7B00FFA3A3E0FD900C19E0FB12619175
:014D88002208
:10425C00900B28EEF0A3EFF0A3ECF0A3EDF0A3EAA3
:04426C00F0A3EBF0E0
:104270004A70030246B8900B28E0FEA3E0FF900BC3
:1042800033EEF0A3EFF0900B2FEEF0A3EFF0900BD6
:104290002CE0FEA3E0FF900B2BE02FFF900B2AE019
:1042A0003EFE900B35F0A3EFF0900B31EEF0A3EF54
:1042B000F0C39440EE648094805012900B2FA3E0E2
:1042C000FFA3A3E0FD900B2EE0FB126191900B2861
:1042D000E0FEA3E0FF900B3BEEF0A3EFF0900B3776
:1042E000EEF0A3EFF0900B2CE0FEA3E0FFC3900BE9
:1042F0002BE09FFF900B2AE09EFE900B3DF0A3EF7A
:10430000F0900B39EEF0A3EFF0C3EE6480948040A0
:1043100012900B37A3E0FFA3A3E0FD900B2EE0FB70
:10432000126191900B2CE0FEA3E0FF900B29E02F8F
:10433000FF900B28E03EFE900B47F0A3EFF0900BB0
:104340003FEEF0A3EFF0900B2AE0FCA3E0FD900B12
:1043500049ECF0A3EDF0900B41ECF0A3EDF0C3EFCE
:104360009480EE648094805012900B3FA3E0FFA3F2
:10437000A3E0FD900B2EE0FB126191900B2CE0FE70
:10438000A3E0FFC3900B29E09FFF900B28E09EFE67
:10439000900B4BF0A3EFF0900B43EEF0A3EFF090F7
:1043A0000B2AE0FCA3E0FD900B4DECF0A3EDF090A8
:1043B0000B45ECF0A3EDF0C3EE64809480401290C6
:1043C0000B43A3E0FFA3A3E0FD900B2EE0FB1261E3
:1043D00091900B2CE07004A3E0640170030246B8D6
:1043E000900B2CE0FCA3E0FD25E0FFEC33FEC37452
:1043F000039F900B54F0E49E900B53F0E4900B4F0E
:10440000F0A3F0A3ECF0A3EDF0900B51E0FCA3E0DF
:10441000FD900B4FE0FAA3E0FBC39DEC6480F8EA4B
:1044200064809840030246B8C3900B53E0648094C4
:10443000805021EBAE027802C333CE33CED8F924BC
:1044400006FFE43EFE900B54E02FF0900B53E03E4D
:10445000F00244F5C3EB9DFFEA9CFEEF7802C33304
:10446000CE33CED8F9240AFFE43EFE900B54E02F61
:10447000F0900B53E03EF0900B52E024FFF0900BD5
:1044800051E034FFF0900B32E024FFF0900B31E06C
:1044900034FFF0900B36E024FFF0900B35E034FF52
:1044A000F0900B3AE004F07006900B39E004F090C5
:1044B0000B3EE004F07006900B3DE004F0900B40E2
:1044C000E024FFF0900B3FE034FFF0900B44E00459
:1044D000F07006900B43E004F0900B48E024FFF0EE
:1044E000900B47E034FFF0900B4CE004F070069026
:1044F0000B4BE004F0900B50E004F07006900B4F73
:10450000E004F0900B30E004F07006900B2FE00414
:10451000F0900B34E024FFF0900B33E034FFF09088
:104520000B38E004F07006900B37E004F0900B3C81
:10453000E024FFF0900B3BE034FFF0900B42E004EE
:10454000F07006900B41E004F0900B46E004F07030
:1045500006900B45E004F0900B4AE024FFF0900B2E
:1045600049E034FFF0900B4EE024FFF0900B4DE05B
:1045700034FFF0900B2FE0FEA3E0FFD39480EE64B5
:104580008094805016A3E0FCA3E0FDC3EC6480940B
:10459000804008900B2EE0FB126191900B33E0FEFF
:1045A000A3E0FFC3EE648094804015A3E0FCA3E089
:1045B000FDEC648094804008900B2EE0FB1261912A
:1045C000900B37E0FEA3E0FFD39480EE64809480EC
:1045D0005017A3E0FCA3E0FD9440EC64809480506D
:1045E00008900B2EE0FB126191900B3BE0FEA3E0E4
:1045F000FFC3EE648094804018A3E0FCA3E0FDD3E9
:104600009440EC648094805008900B2EE0FB126183
:1046100091900B3FE0FEA3E0FFD39480EE64809482
:10462000805016A3E0FCA3E0FDC3EC6480948040BE
:1046300008900B2EE0FB126191900B43E0FEA3E08B
:10464000FFC3EE648094804015A3E0FCA3E0FDEC82
:10465000648094804008900B2EE0FB126191900BD7
:1046600047E0FEA3E0FFD39480EE6480948050176F
:10467000A3E0FCA3E0FD9440EC648094805008909B
:104680000B2EE0FB126191900B4BE0FEA3E0FFC309
:10469000EE648094805003024409A3E0FCA3E0FD93
:1046A000D39440EC648094804003024409900B2E24
:0846B000E0FB126191024409D4
:0146B80022DF
:101EEB00900A97EEF0A3EFF0A3ECF0A3EDF0A3EACA
:041EFB00F0A3EBF075
:101EFF004A700302261E900A97E0FEA3E0FF900AA5
:101F0F00A2EEF0A3EFF0900A9EEEF0A3EFF0900A8E
:101F1F009BE0FEA3E0FF900A9AE02FFF900A99E062
:101F2F003EFE900AA4F0A3EFF0900AA0EEF0A3EF0C
:101F3F00F0C39440EE648094805012900A9EA3E008
:101F4F00FFA3A3E0FD900A9DE0FB126191900A9719
:101F5F00E0FEA3E0FF900AAAEEF0A3EFF0900AA62E
:101F6F00EEF0A3EFF0900A9BE0FEA3E0FFC3900A10
:101F7F009AE09FFF900A99E09EFE900AACF0A3EFC3
:101F8F00F0900AA8EEF0A3EFF0C3EE6480948040C7
:101F9F0012900AA6A3E0FFA3A3E0FD900A9DE0FB29
:101FAF00126191900A9BE0FEA3E0FF900A98E02F48
:101FBF00FF900A97E03EFE900AB6F0A3EFF0900A6A
:101FCF00AEEEF0A3EFF0900A99E0FCA3E0FD900ACB
:101FDF00B8ECF0A3EDF0900AB0ECF0A3EDF0C3EF86
:101FEF009480EE648094805023900AAEA3E0FFA308
:101FFF00A3E0FD900A9DE0FB126191900AAEE0FF15
:10200F00A3E0900AC2CFF0A3EFF08009900AC2E4D8
:10201F00F0A37480F0900A99E0FFA3E0900AC0CF7C
:10202F00F0A3EFF0900A9BE0FEA3E0FFC3900A98A5
:10203F00E09FFF900A97E09EFE900ABEF0A3EFF09C
:10204F00C3EE648094805007E4900ABEF0A3F09032
:10205F000ABEA3E0FFA3A3E0FDA3A3E0FB900A9DAC
:10206F00E0900BCBF0126271900A9BE0FEA3E0FFB1
:10207F00C3900A98E09FFF900A97E09EFE900ABADD
:10208F00F0A3EFF0900AB2EEF0A3EFF0900A99E010
:10209F00FCA3E0FD900ABCECF0A3EDF0900AB4ECC9
:1020AF00F0A3EDF0C3EE648094804012900AB2A3C7
:1020BF00E0FFA3A3E0FD900A9DE0FB126191900A5F
:1020CF009BE07004A3E06401700302261E900A9B3C
:1020DF00E0FCA3E0FD25E0FFEC33FEC374039F900B
:1020EF000AC9F0E49E900AC8F0E4900AC4F0A3F085
:1020FF00A3ECF0A3EDF0900AC6E0FCA3E0FD900A7C
:10210F00C4E0FAA3E0FBC39DEC6480F8EA64809816
:10211F00400302261EC3900AC8E0648094805021B9
:10212F00EBAE027802C333CE33CED8F92406FFE4E8
:10213F003EFE900AC9E02FF0900AC8E03EF002215F
:10214F00F1C3EB9DFFEA9CFEEF7802C333CE33CE93
:10215F00D8F9240AFFE43EFE900AC9E02FF0900A56
:10216F00C8E03EF0900AC7E024FFF0900AC6E034C2
:10217F00FFF0900AA1E024FFF0900AA0E034FFF0F6
:10218F00900AA5E024FFF0900AA4E034FFF0900A33
:10219F00A9E004F07006900AA8E004F0900AADE000
:1021AF0004F07006900AACE004F0900AAFE024FF50
:1021BF00F0900AAEE034FFF0900AB3E004F070063E
:1021CF00900AB2E004F0900AB7E024FFF0900AB64C
:1021DF00E034FFF0900ABBE004F07006900ABAE01A
:1021EF0004F0900AC5E004F07006900AC4E004F011
:1021FF00900A9FE004F07006900A9EE004F0900AA7
:10220F00A3E024FFF0900AA2E034FFF0900AA7E0C9
:10221F0004F07006900AA6E004F0900AABE024FFE9
:10222F00F0900AAAE034FFF0900AB1E004F07006D3
:10223F00900AB0E004F0900AB5E004F07006900A3E
:10224F00B4E004F0900AB9E024FFF0900AB8E0344B
:10225F00FFF0900ABDE024FFF0900ABCE034FFF0DD
:10226F00900A9EE0FEA3E0FFD39480EE64809480FA
:10227F005016A3E0FCA3E0FDC3EC648094804008FB
:10228F00900A9DE0FB126191900AA2E0FEA3E0FF8D
:10229F00C3EE648094804015A3E0FCA3E0FDEC64E2
:1022AF008094804008900A9DE0FB126191900AA2F1
:1022BF00E0FEA3E0FFC3EE64809480500302235836
:1022CF00900ABEEEF0A3EFF0900AA4E0FEA3E0FFA9
:1022DF00900AC0EEF0A3EFF0D39440EE64809480A8
:1022EF004009900AC0E4F0A37440F0C3900AC0E024
:1022FF00648094805004E4F0A3F0900A98E025E005
:10230F00FF900A97E033FE900AA2E0FCA3E0FDC322
:10231F00EF9DFFEE9CFE900AC2F0A3EFF0D39480E6
:10232F00EE648094804009900AC2E4F0A37480F0B8
:10233F00900ABEA3E0FFA3A3E0FDA3A3E0FB900AD6
:10234F009DE0900BCBF0126271900AA6E0FEA3E025
:10235F00FFD39480EE648094805017A3E0FCA3E039
:10236F00FD9440EC648094805008900A9DE0FB122D
:10237F006191900AAAE0FEA3E0FFC3EE648094800F
:10238F004018A3E0FCA3E0FDD39440EC648094805C
:10239F005008900A9DE0FB126191900AAAE0FEA3FB
:1023AF00E0FFC3EE648094805003022445900ABE80
:1023BF00EEF0A3EFF0900AACE0FEA3E0FF900AC0AE
:1023CF00EEF0A3EFF0D39440EE6480948040099038
:1023DF000AC0E4F0A37440F0C3900AC0E064809494
:1023EF00805004E4F0A3F0900A98E025E0FF900AF3
:1023FF0097E033FE900AAAE0FCA3E0FDC3EF9DFF38
:10240F00EE9CFE900AC2F0A3EFF0D39480EE6480AE
:10241F0094804009900AC2E4F0A37480F0900ABE41
:10242F00A3E0FFA3A3E0FDA3A3E0FB900A9DE09030
:10243F000BCBF0126271900AAEE0FEA3E0FFD394D3
:10244F0080EE648094805016A3E0FCA3E0FDC3EC03
:10245F00648094804008900A9DE0FB126191900A7D
:10246F00B2E0FEA3E0FFC3EE648094804015A3E0CA
:10247F00FCA3E0FDEC648094804008900A9DE0FB93
:10248F00126191900AB2E0FEA3E0FFC3EE64809464
:10249F0080500302252E900ABEEEF0A3EFF0900AB3
:1024AF00B4E0FEA3E0FF900AC0EEF0A3EFF0D394E8
:1024BF0040EE648094804009900AC0E4F0A3744019
:1024CF00F0C3900AC0E0648094805004E4F0A3F05D
:1024DF00900A98E025E0FF900A97E033FE900AB249
:1024EF00E0FCA3E0FDC3EF9DFFEE9CFE900AC2F05F
:1024FF00A3EFF0D39480EE648094804009900AC2D9
:10250F00E4F0A37480F0900ABEA3E0FFA3A3E0FD64
:10251F00A3A3E0FB900A9DE0900BCBF012627190A9
:10252F000AB6E0FEA3E0FFD39480EE64809480505F
:10253F0017A3E0FCA3E0FD9440EC64809480500866
:10254F00900A9DE0FB126191900ABAE0FEA3E0FFB2
:10255F00C3EE648094804018A3E0FCA3E0FDD39405
:10256F0040EC648094805008900A9DE0FB126191CA
:10257F00900ABAE0FEA3E0FFC3EE6480948050039C
:10258F00022105900ABEEEF0A3EFF0900ABCE0FE28
:10259F00A3E0FF900AC0EEF0A3EFF0D39440EE64F7
:1025AF008094804009900AC0E4F0A37440F0C39077
:1025BF000AC0E0648094805004E4F0A3F0900A987D
:1025CF00E025E0FF900A97E033FE900ABAE0FCA303
:1025DF00E0FDC3EF9DFFEE9CFE900AC2F0A3EFF06B
:1025EF00D39480EE648094804009900AC2E4F0A3F3
:1025FF007480F0900ABEA3E0FFA3A3E0FDA3A3E0C5
:0F260F00FB900A9DE0900BCBF012627102210547
:01261E002299
:0E326A00900ACAEEF0A3EFF0A3ECF0A3EDF093
:10327800900ACCE0FEA3E0FF900ACAE06E7003A3B8
:10328800E06F7003023817900AD0E06A7003A3E079
:103298006B7003023817900ACCE0FEA3E0FF900A97
:1032A800CBE02FFF900ACAE03EC313FEEF13FF9056
:1032B8000AE7EEF0A3EFF0900AD1E02BFF900AD0D6
:1032C800E03AC313FEEF13FF900AE9EEF0A3EFF024
:1032D800900ACCE0FEA3E0FF900ACAE0FCA3E0FD60
:1032E800D39FEC9E4006ED9FFFEC8013900ACAE046
:1032F800FEA3E0FFC3900ACDE09FFF900ACCE09EBA
:10330800C313FEEF13FF900AEBEEF0A3EFF0900A61
:10331800D0E0FEA3E0FFC39BEE9A5008C3EB9FFFEB
:10332800EA9E800CC3900AD1E09BFF900AD0E09AF5
:10333800C313FEEF13FF900AEDEEF0A3EFF0900A2F
:10334800EBE0FCA3E0FDFFAE04121AFF900AEFEEDB
:10335800F0A3EFF0900AEDE0FCA3E0FDFFAE04124D
:103368001AFF900AF1EEF0A3EFF0900AF0E025E0E2
:10337800FE900AEFE033900AF3F0A3CEF0900AF241
:10338800E025E0FE900AF1E033900AF5F0A3CEF0D4
:10339800E4900AE3F0A3F0900AE5ECF0A3EDF090D6
:1033A8000AF3E0FEA3E0FF121AFF900AEFE0FCA385
:1033B800E0FD900AF6E02DFD900AF5E03CCDC39FB4
:1033C800FFED9E900AF7F0A3EFF0900AE7E0FEA366
:1033D800E0FF900ADFEEF0A3EFF0900ADBEEF0A337
:1033E800EFF0900AD7EEF0A3EFF0900AD3EEF0A337
:1033F800EFF0900AEDE0FEA3E0FF900AE9E0FCA3FD
:10340800E0FD2FFBEC3EFA900AD9F0A3EBF0900A0E
:10341800D5EAF0A3EBF0C3ED9FFFEC9EFE900AE126
:10342800F0A3EFF0900ADDEEF0A3EFF0900AD3A33B
:10343800E0FFA3A3E0FD900AD2E0FB126191900A9D
:10344800DB0235DB900AE5E0FCA3E0FD900AEFE043
:10345800FEA3E0FF121AFFAA06AB07900AE3E0FCFE
:10346800A3E0FD900AF1E0FEA3E0FF121AFFC3EF0C
:103478009BEA6480F8EE64809840030235EDC390BF
:103488000AF7E064809480502E900AE4E025E0FF7B
:10349800900AE3E033FEEF2403FFE43EFE900AF5D2
:1034A800E0FCA3E0FD121AFF900AF8E02FF0900A62
:1034B800F7E03EF002355C900AE4E025E0FF900A70
:1034C800E3E033FEEF2403FFE43EFE900AF5E0FC60
:1034D800A3E0FD121AFFAC06AD07900AEFE0FEA3C9
:1034E800E07802C333CE33CED8F9FF2DFBEC3EFA99
:1034F800900AE5E0FCA3E0FD121AFFC3EB9FFFEA88
:103508009EFE900AF8E02FF0900AF7E03EF0900A4D
:10351800E6E024FFF0900AE5E034FFF0900AD6E0F8
:1035280024FFF0900AD5E034FFF0900ADAE024FF97
:10353800F0900AD9E034FFF0900ADEE004F070065B
:10354800900ADDE004F0900AE2E004F07006900AC8
:10355800E1E004F0900AE4E004F07006900AE3E089
:1035680004F0900AD4E004F07006900AD3E004F066
:10357800900AD8E024FFF0900AD7E034FFF0900AD0
:10358800DCE004F07006900ADBE004F0900AE0E06A
:1035980024FFF0900ADFE034FFF0900AD3A3E0FFA5
:1035A800A3A3E0FD900AD2E0FB126191900AD7A391
:1035B800E0FFA3A3E0FD900AD2E0FB126191900A1C
:1035C800DBA3E0FFA3A3E0FD900AD2E0FB12619128
:1035D800900ADFA3E0FFA3A3E0FD900AD2E0FB126C
:1035E800619102344C900AE6E024FFFB900AE5E082
:1035F80034FFFA900AF3E0FCA3E0FDAF03AE021239
:103608001AFFAC06AD07AF03AE02121AFFAA06AB4B
:1036180007900AE3E0FCA3E0FD900AF5E0FEA3E0D2
:10362800FF121AFF121AFFEB2FFFEA3EFE900AF272
:10363800E02FFB900AF1E03EFA900AF5E0FEA3E0E5
:10364800FF121AFFEF2BFBEE3AFA900AF1E0FCA307
:10365800E0FDA3E0FEA3E0FF121AFFC3EB9FFFEA21
:103668009E900AF7F0A3EFF0C3900AE5E064809417
:10367800805003023817900AF7E064809480400372
:10368800023748900AF1E0FEA3E07802C333CE3354
:10369800CED8F9FF900AE3E0FCA3E0FD121AFFAAD6
:1036A80006AB07900AF3E0FEA3E0FF7C007D03125F
:1036B8001AFFEF2BFDEE3AFC900AF1E0FEA3E0784A
:1036C80002C333CE33CED8F92DFBEC3EFA900AF480
:1036D800E025E0FF900AF3E033FE900AE5E0FCA362
:1036E800E0FD121AFFC3EB9FFFEA9EFE900AF8E086
:1036F8002FF0900AF7E03EF0900AE4E004F070063C
:10370800900AE3E004F0900AD4E004F07006900A0E
:10371800D3E004F0900AD8E024FFF0900AD7E03410
:10372800FFF0900ADCE004F07006900ADBE004F099
:10373800900AE0E024FFF0900ADFE034FFF0803EDA
:10374800900AF4E025E0FF900AF3E033FE900AE5E2
:10375800E0FCA3E0FD121AFFAA06AB07900AF3E00B
:10376800FEA3E0FF7C007D03121AFFC3EF9BFFEE70
:103778009AFE900AF8E02FF0900AF7E03EF0900ADF
:10378800E6E024FFF0900AE5E034FFF0900AD6E086
:1037980024FFF0900AD5E034FFF0900ADAE024FF25
:1037A800F0900AD9E034FFF0900ADEE004F07006E9
:1037B800900ADDE004F0900AE2E004F07006900A56
:1037C800E1E004F0900AD3A3E0FFA3A3E0FD900A90
:1037D800D2E0FB126191900AD7A3E0FFA3A3E0FD1A
:1037E800900AD2E0FB126191900ADBA3E0FFA3A349
:1037F800E0FD900AD2E0FB126191900ADFA3E0FF9E
:0F380800A3A3E0FD900AD2E0FB1261910236709B
:01381700228E
:0E261F00900AF9EEF0A3EFF0A3ECF0A3EDF0BB
:10262D00900AFBE0FEA3E0FF900AF9E06E7003A3B1
:10263D00E06F7003022C4A900AFFE06A7003A3E07A
:10264D006B7003022C4A900AFBE0FEA3E0FF900A98
:10265D00FAE02FFF900AF9E03EC313FEEF13FF904F
:10266D000B16EEF0A3EFF0900B00E02BFF900AFF9E
:10267D00E03AC313FEEF13FF900B18EEF0A3EFF04B
:10268D00900AFBE0FEA3E0FF900AF9E0FCA3E0FD59
:10269D00D39FEC9E4006ED9FFFEC8013900AF9E06E
:1026AD00FEA3E0FFC3900AFCE09FFF900AFBE09EB3
:1026BD00C313FEEF13FF900B1AEEF0A3EFF0900A89
:1026CD00FFE0FEA3E0FFC39BEE9A5008C3EB9FFF14
:1026DD00EA9E800CC3900B00E09BFF900AFFE09AEE
:1026ED00C313FEEF13FF900B1CEEF0A3EFF0900B56
:1026FD001AE0FCA3E0FDFFAE04121AFF900B1EEED4
:10270D00F0A3EFF0900B1CE0FCA3E0FDFFAE041274
:10271D001AFF900B20EEF0A3EFF0900B1FE025E0D9
:10272D00FE900B1EE033900B22F0A3CEF0900B2108
:10273D00E025E0FE900B20E033900B24F0A3CEF0CB
:10274D00E4900B12F0A3F0900B14ECF0A3EDF090CD
:10275D000B22E0FEA3E0FF121AFF900B1EE0FCA37C
:10276D00E0FD900B25E02DFD900B24E03CCDC39FAB
:10277D00FFED9E900B26F0A3EFF0900B16E0FEA35D
:10278D00E0FF900B0EEEF0A3EFF0900B0AEEF0A32E
:10279D00EFF0900B06EEF0A3EFF0900B02EEF0A32E
:1027AD00EFF0900B1CE0FEA3E0FF900B18E0FCA3F4
:1027BD00E0FD2FFBEC3EFA900B08F0A3EBF0900B35
:1027CD0004EAF0A3EBF0C3ED9FFFEC9EFE900B101F
:1027DD00F0A3EFF0900B0CEEF0A3EFF0900B02A333
:1027ED00E0FFA3A3E0FD900B01E0FB126191900BC4
:1027FD000AA3E0FFA3A3E0FD900B01E0FB126191A2
:10280D00900B14E0FCA3E0FD900B1EE0FEA3E0FF97
:10281D00121AFFAA06AB07900B12E0FCA3E0FD9085
:10282D000B20E0FEA3E0FF121AFFC3EF9BEA6480CA
:10283D00F8EE64809840030229EEC3900B26E06405
:10284D00809480502E900B13E025E0FF900B12E04A
:10285D0033FEEF2403FFE43EFE900B24E0FCA3E0E7
:10286D00FD121AFF900B27E02FF0900B26E03EF0A3
:10287D0002291D900B13E025E0FF900B12E033FEB3
:10288D00EF2403FFE43EFE900B24E0FCA3E0FD12D9
:10289D001AFFAC06AD07900B1EE0FEA3E07802C355
:1028AD0033CE33CED8F9FF2DFBEC3EFA900B14E06E
:1028BD00FCA3E0FD121AFFC3EB9FFFEA9EFE900BF7
:1028CD0027E02FF0900B26E03EF0900B15E024FF53
:1028DD00F0900B14E034FFF0900B05E024FFF09026
:1028ED000B04E034FFF0900B09E024FFF0900B088F
:1028FD00E034FFF0900B0DE004F07006900B0CE04F
:10290D0004F0900B11E004F07006900B10E004F051
:10291D00900B13E004F07006900B12E004F0900B96
:10292D0003E004F07006900B02E004F0900B07E05A
:10293D0024FFF0900B06E034FFF0900B0BE004F059
:10294D007006900B0AE004F0900B0FE024FFF0905E
:10295D000B0EE034FFF0900B02A3E0FFA3A3E0FD0C
:10296D00900B01E0FB126191900B06A3E0FFA3A376
:10297D00E0FD900B01E0FB126191900B0AA3E0FFCB
:10298D00A3A3E0FD900B01E0FB126191900B0EA350
:10299D00E0FFA3A3E0FD900B01E0FB126191C3905A
:1029AD000B26E064809480500302280D900B02A347
:1029BD00E0FFA3A3E0FDA3A3E0FB900B01E0900BD0
:1029CD00CBF0126271900B0AA3E0FFA3A3E0FDA36D
:1029DD00A3E0FB900B01E0900BCBF012627102288B
:1029ED000D900B15E024FFFB900B14E034FFFA90D3
:1029FD000B22E0FCA3E0FDAF03AE02121AFFAC0602
:102A0D00AD07AF03AE02121AFFAA06AB07900B1269
:102A1D00E0FCA3E0FD900B24E0FEA3E0FF121AFF03
:102A2D00121AFFEB2FFFEA3EFE900B21E02FFB90D9
:102A3D000B20E03EFA900B24E0FEA3E0FF121AFFFC
:102A4D00EF2BFBEE3AFA900B20E0FCA3E0FDA3E0A8
:102A5D00FEA3E0FF121AFFC3EB9FFFEA9E900B2629
:102A6D00F0A3EFF0C3900B14E06480948050030248
:102A7D002C4A900B26E0648094804003022B4990F1
:102A8D000B20E0FEA3E07802C333CE33CED8F9FF9E
:102A9D00900B12E0FCA3E0FD121AFFAA06AB079003
:102AAD000B22E0FEA3E0FF7C007D03121AFFEF2B4B
:102ABD00FDEE3AFC900B20E0FEA3E07802C333CE8E
:102ACD0033CED8F92DFBEC3EFA900B23E025E0FF39
:102ADD00900B22E033FE900B14E0FCA3E0FD121AE4
:102AED00FFC3EB9FFFEA9EFE900B27E02FF0900BAC
:102AFD0026E03EF0900B13E004F07006900B12E010
:102B0D0004F0900B03E004F07006900B02E004F06B
:102B1D00900B07E024FFF0900B06E034FFF0900BD4
:102B2D000BE004F07006900B0AE004F0900B0FE040
:102B3D0024FFF0900B0EE034FFF0803E900B23E06D
:102B4D0025E0FF900B22E033FE900B14E0FCA3E098
:102B5D00FD121AFFAA06AB07900B22E0FEA3E0FFC1
:102B6D007C007D03121AFFC3EF9BFFEE9AFE900BC4
:102B7D0027E02FF0900B26E03EF0900B15E024FFA0
:102B8D00F0900B14E034FFF0900B05E024FFF09073
:102B9D000B04E034FFF0900B09E024FFF0900B08DC
:102BAD00E034FFF0900B0DE004F07006900B0CE09C
:102BBD0004F0900B11E004F07006900B10E004F09F
:102BCD00900B02A3E0FFA3A3E0FD900B01E0FB122D
:102BDD006191900B06A3E0FFA3A3E0FD900B01E034
:102BED00FB126191900B0AA3E0FFA3A3E0FD900BF4
:102BFD0001E0FB126191900B0EA3E0FFA3A3E0FD9A
:102C0D00900B01E0FB126191900B02A3E0FFA3A3D7
:102C1D00E0FDA3A3E0FB900B01E0900BCBF0126263
:102C2D0071900B0AA3E0FFA3A3E0FDA3A3E0FB902B
:0D2C3D000B01E0900BCBF0126271022A71C6
:012C4A002267
:10000300900BF9EEF0A3EFF0A3ECF0A3EDF0A3EA6D
:04001300F0A3EBF07B
:100017004A7003020C59900C01E0FEA3E0FF900B1D
:10002700FFE0FCA3E0FD6F7002EC6E7003020C5959
:10003700C3ED9468EC94014003020C59C3EF946834
:10004700EE94014003020C59900BFDE0FCA3E0FD88
:1000570025E0FFEC33FE121AFF900C0CEEF0A3EF35
:10006700F0E4A3F0A3F0900BFDE0FFA3E0900C08F1
:10007700CFF0A3EFF0E4A3F0A3F0900C0FE004F0AF
:100087007006900C0EE004F0900C0BE004F0700684
:10009700900C0AE004F0900C0AE0FCA3E0FD25E0D8
:1000A700FFEC33FE121AFFAA06AB07900C08E0FC20
:1000B700A3E0FD25E0FFEC33FE121AFFEF2BFFEE66
:1000C7003AFE900C0CE0FCA3E0FDC3EF9DFDEE9C17
:1000D700FC900C09E025E0FF900C08E033FEC3ED2F
:1000E7009FFFEC9ECF2401CF3400FED3EF9400EEA8
:1000F70064809480400CA3E024FFF0900C08E03467
:10010700FFF0900C08E0FEA3E0FFC3900C0BE09F0C
:10011700EE6480F8900C0AE0648098500302008136
:10012700E4900C10F0900BFFE0FEA3E0FFD3900CDF
:1001370002E09F900C01E09E4006900C107401F0C5
:10014700C374689FFF74019EFE900C0EE0FAA3E053
:10015700FBFDAC02121AFF7C007D2D121B11900BC8
:10016700FFEEF0A3EFF0A3E0FEA3E0FFC374689FE8
:10017700FF74019EFEAD03AC02121AFF7C007D2DB9
:10018700121B11900C01EEF0A3EFF0900BFFE07043
:1001970002A3E07007900BFFF0A304F0900C01E0BE
:1001A7007002A3E07007900C01F0A304F0E4900C38
:1001B7000EF0A3F0900BFDE0FAA3E0FB900BFAE042
:1001C7002BFE900BF9E03A900C04F0A3CEF0900BC5
:1001D700FBE0FFA3E0900C06CFF0A3EFF0A3EAF05B
:1001E700A3EBF0E4A3F0A3F0900C0BE004F070068F
:1001F700900C0AE004F0900C07E024FFF0900C0646
:10020700E034FFF0900C0AE0FCA3E0FD25E0FFECF2
:1002170033FE121AFFAA06AB07900C08E0FCA3E016
:10022700FD25E0FFEC33FE121AFFEF2BFFEE3AFE3F
:10023700900C0CE0FCA3E0FDC3EF9DFDEE9CFC9051
:100247000C09E025E0FF900C08E033FEC3ED9FFFAB
:10025700EC9ECF2401CF3400FED3EF9400EE6480F0
:100267009480401AA3E024FFF0900C08E034FFF0DC
:10027700900C05E024FFF0900C04E034FFF0900CA4
:1002870010E0B40112900C04A3E0FFA3A3E0FD90DB
:100297000C03E0FB126191900C0FE004F0700690E4
:1002A7000C0EE004F0900BFFE0FEA3E0FF900C0EB5
:1002B700E0FCA3E0FD6F7002EC6E6010900C01E0B3
:1002C700FEA3E0FFED6F7002EC6E7023900C10E060
:1002D700FFC374019FFFF0BF0112900C04A3E0FF5E
:1002E700A3A3E0FD900C03E0FB126191124ABA90C0
:1002F7000C08E0FEA3E0FFC3900C0BE09FEE6480C8
:10030700F8900C0AE064809850030201EF900C10FB
:10031700E0B40112900C04A3E0FFA3A3E0FD900C4E
:1003270003E0FB126191900C09E024FFF0900C08A8
:10033700E034FFF0900C05E024FFF0900C04E0346B
:10034700FFF0900C0AE0FCA3E0FD25E0FFEC33FE94
:10035700121AFFAA06AB07900C08E0FCA3E0FD25E4
:10036700E0FFEC33FE121AFFEF2BFFEE3AFE900C84
:100377000CE0FCA3E0FDC3EF9DFDEE9CFC900C0B95
:10038700E025E0FF900C0AE033FEED2FFFEC3ECFB7
:100397002401CF3400FED3EF9400EE6480948050A4
:1003A7001AA3E004F07006900C0AE004F0900C0722
:1003B700E024FFF0900C06E034FFF0900C10E0B45E
:1003C7000112900C04A3E0FFA3A3E0FD900C03E04F
:1003D700FB126191900C0FE004F07006900C0EE098
:1003E70004F0900BFFE0FEA3E0FF900C0EE0FCA3EF
:1003F700E0FD6F7002EC6E6010900C01E0FEA3E070
:10040700FFED6F7002EC6E7023900C10E0FFC37469
:10041700019FFFF0BF0112900C04A3E0FFA3A3E02C
:10042700FD900C03E0FB126191124ABAD3900C09BC
:10043700E09400900C08E064809480400302032D50
:10044700900C10E0B40112900C04A3E0FFA3A3E00A
:10045700FD900C03E0FB126191900BFDE0FAA3E025
:10046700FBC3900BFCE09BFE900BFBE09A900C0605
:10047700F0A3CEF0900BF9E0FFA3E0900C04CFF0CF
:10048700A3EFF0900C0AEAF0A3EBF0E4900C08F06D
:10049700A3F0900C09E004F07006900C08E004F05B
:1004A700900C05E024FFF0900C04E034FFF0900C72
:1004B7000AE0FCA3E0FD25E0FFEC33FE121AFFAAD9
:1004C70006AB07900C08E0FCA3E0FD25E0FFEC334A
:1004D700FE121AFFEF2BFFEE3AFE900C0CE0FCA386
:1004E700E0FDC3EF9DFDEE9CFC900C0BE025E0FFCB
:1004F700900C0AE033FEC3ED9FFFEC9ECF2401CFA3
:100507003400FED3EF9400EE64809480401AA3E099
:1005170024FFF0900C0AE034FFF0900C07E004F0A1
:100527007006900C06E004F0900C10E0B4011290F5
:100537000C04A3E0FFA3A3E0FD900C03E0FB126112
:1005470091900C0FE004F07006900C0EE004F09010
:100557000BFFE0FEA3E0FF900C0EE0FCA3E0FD6FB5
:100567007002EC6E6010900C01E0FEA3E0FFED6FEF
:100577007002EC6E7023900C10E0FFC374019FFFB4
:10058700F0BF0112900C04A3E0FFA3A3E0FD900CC1
:1005970003E0FB126191124ABA900C0AE0FEA3E055
:1005A700FFC3900C09E09FEE6480F8900C08E064AC
:1005B70080985003020499900C10E0B40112900C3B
:1005C70004A3E0FFA3A3E0FD900C03E0FB126191FD
:1005D700900C0BE024FFF0900C0AE034FFF0900C35
:1005E70007E004F07006900C06E004F0900C0AE0B7
:1005F700FCA3E0FD25E0FFEC33FE121AFFAA06ABD1
:1006070007900C08E0FCA3E0FD25E0FFEC33FE12A9
:100617001AFFEF2BFFEE3AFE900C0CE0FCA3E0FD77
:10062700C3EF9DFDEE9CFC900C09E025E0FF900CCC
:1006370008E033FEED2FFFEC3ECF2401CF3400FE60
:10064700D3EF9400EE64809480501AA3E004F07016
:1006570006900C08E004F0900C05E024FFF0900CE5
:1006670004E034FFF0900C10E0B40112900C04A3E6
:10067700E0FFA3A3E0FD900C03E0FB126191900C57
:100687000FE004F07006900C0EE004F0900BFFE012
:10069700FEA3E0FF900C0EE0FCA3E0FD6F7002EC00
:1006A7006E6010900C01E0FEA3E0FFED6F7002ECAE
:1006B7006E7023900C10E0FFC374019FFFF0BF0121
:1006C70012900C04A3E0FFA3A3E0FD900C03E0FB52
:1006D700126191124ABAD3900C0BE09400900C0A65
:1006E700E06480948040030205D7900C10E0B401C9
:1006F70012900C04A3E0FFA3A3E0FD900C03E0FB22
:10070700126191900BFDE0FAA3E0FBC3900BFAE0B6
:100717009BFE900BF9E09A900C04F0A3CEF0900B9F
:10072700FBE0FFA3E0900C06CFF0A3EFF0A3EAF005
:10073700A3EBF0E4A3F0A3F0900C0BE004F0700639
:10074700900C0AE004F0900C07E004F07006900C9F
:1007570006E004F0900C0AE0FCA3E0FD25E0FFECC6
:1007670033FE121AFFAA06AB07900C08E0FCA3E0C1
:10077700FD25E0FFEC33FE121AFFEF2BFFEE3AFEEA
:10078700900C0CE0FCA3E0FDC3EF9DFDEE9CFC90FC
:100797000C09E025E0FF900C08E033FEC3ED9FFF56
:1007A700EC9ECF2401CF3400FED3EF9400EE64809B
:1007B7009480401AA3E024FFF0900C08E034FFF087
:1007C700900C05E004F07006900C04E004F0900C27
:1007D70010E0B40112900C04A3E0FFA3A3E0FD9086
:1007E7000C03E0FB126191900C0FE004F07006908F
:1007F7000C0EE004F0900BFFE0FEA3E0FF900C0E60
:10080700E0FCA3E0FD6F7002EC6E6010900C01E05D
:10081700FEA3E0FFED6F7002EC6E7023900C10E00A
:10082700FFC374019FFFF0BF0112900C04A3E0FF08
:10083700A3A3E0FD900C03E0FB126191124ABA906A
:100847000C08E0FEA3E0FFC3900C0BE09FEE648072
:10085700F8900C0AE0648098500302073F900C1050
:10086700E0B40112900C04A3E0FFA3A3E0FD900CF9
:1008770003E0FB126191900C09E024FFF0900C0853
:10088700E034FFF0900C05E004F07006900C04E0F3
:1008970004F0900C0AE0FCA3E0FD25E0FFEC33FE3A
:1008A700121AFFAA06AB07900C08E0FCA3E0FD258F
:1008B700E0FFEC33FE121AFFEF2BFFEE3AFE900C2F
:1008C7000CE0FCA3E0FDC3EF9DFDEE9CFC900C0B40
:1008D700E025E0FF900C0AE033FEED2FFFEC3ECF62
:1008E7002401CF3400FED3EF9400EE64809480504F
:1008F7001AA3E004F07006900C0AE004F0900C07CD
:10090700E004F07006900C06E004F0900C10E0B4E0
:100917000112900C04A3E0FFA3A3E0FD900C03E0F9
:10092700FB126191900C0FE004F07006900C0EE042
:1009370004F0900BFFE0FEA3E0FF900C0EE0FCA399
:10094700E0FD6F7002EC6E6010900C01E0FEA3E01A
:10095700FFED6F7002EC6E7023900C10E0FFC37414
:10096700019FFFF0BF0112900C04A3E0FFA3A3E0D7
:10097700FD900C03E0FB126191124ABAD3900C0967
:10098700E09400900C08E064809480400302087DA6
:10099700900C10E0B40112900C04A3E0FFA3A3E0B5
:1009A700FD900C03E0FB126191900BFDE0FAA3E0D0
:1009B700FB900BFCE02BFE900BFBE03A900C06F053
:1009C700A3CEF0900BF9E0FFA3E0900C04CFF0A3C7
:1009D700EFF0900C0AEAF0A3EBF0E4900C08F0A318
:1009E700F0900C09E004F07006900C08E004F09019
:1009F7000C05E004F07006900C04E004F0900C0A7B
:100A0700E0FCA3E0FD25E0FFEC33FE121AFFAA0687
:100A1700AB07900C08E0FCA3E0FD25E0FFEC33FEFC
:100A2700121AFFEF2BFFEE3AFE900C0CE0FCA3E04E
:100A3700FDC3EF9DFDEE9CFC900C0BE025E0FF90C5
:100A47000C0AE033FEC3ED9FFFEC9ECF2401CF34A9
:100A570000FED3EF9400EE64809480401AA3E02454
:100A6700FFF0900C0AE034FFF0900C07E024FFF051
:100A7700900C06E034FFF0900C10E0B40112900CDB
:100A870004A3E0FFA3A3E0FD900C03E0FB12619138
:100A9700900C0FE004F07006900C0EE004F0900B41
:100AA700FFE0FEA3E0FF900C0EE0FCA3E0FD6F70FB
:100AB70002EC6E6010900C01E0FEA3E0FFED6F709A
:100AC70002EC6E7023900C10E0FFC374019FFFF0DF
:100AD700BF0112900C04A3E0FFA3A3E0FD900C0359
:100AE700E0FB126191124ABA900C0AE0FEA3E0FF04
:100AF700C3900C09E09FEE6480F8900C08E06480D6
:100B07009850030209E8900C10E0B40112900C040D
:100B1700A3E0FFA3A3E0FD900C03E0FB126191901B
:100B27000C0BE024FFF0900C0AE034FFF0900C0768
:100B3700E024FFF0900C06E034FFF0900C0AE0FC94
:100B4700A3E0FD25E0FFEC33FE121AFFAA06AB0770
:100B5700900C08E0FCA3E0FD25E0FFEC33FE121A41
:100B6700FFEF2BFFEE3AFE900C0CE0FCA3E0FDC379
:100B7700EF9DFDEE9CFC900C09E025E0FF900C0832
:100B8700E033FEED2FFFEC3ECF2401CF3400FED340
:100B9700EF9400EE64809480501AA3E004F070068E
:100BA700900C08E004F0900C05E004F07006900C3F
:100BB70004E004F0900C10E0B40112900C04A3E0E0
:100BC700FFA3A3E0FD900C03E0FB126191900C0FD3
:100BD700E004F07006900C0EE004F0900BFFE0FECE
:100BE700A3E0FF900C0EE0FCA3E0FD6F7002EC6E3B
:100BF7006010900C01E0FEA3E0FFED6F7002EC6E59
:100C07007023900C10E0FFC374019FFFF0BF011227
:100C1700900C04A3E0FFA3A3E0FD900C03E0FB12FC
:100C27006191124ABAD3900C0BE09400900C0AE041
:100C3700648094804003020B26900C10E0B40112EC
:100C4700900C04A3E0FFA3A3E0FD900C03E0FB12CC
:020C57006191A9
:010C59002278
:0B325300480C4C8040201008040201D1
:0F638200EF5401900C54F0ED5401900C4BF022AD
:0B325E0048000001020408102040801E
:0E639100E4FFFE0FBF00010EEF640A4E70F530
:01639F0022DB
:09632200EC24B8FF12632B7F404C
:0D632B00C2B2C2B0C2B18F90D2B2C2B222D3
:0D63A000C2B2D2B0C2B18F90D2B2C2B2224E
:1061E200EF547FFFED543FC2B4C2B3131313541FD5
:1061F200FD75F080A42408F582E5F03400F583E50E
:10620200822FF582E43583F583EBF0EFC39440509F
:1062120004D2B48006D2B374C02FFFEF2440FF1221
:0E622200632BED24B8FF12632BAF030263A0C1
:10629F00EF547FFFED543F131313541F75F080A479
:1062AF002408F582E5F03400F583E5822FF582E4CA
:0762BF003583F583E0FF22A7
:02623000AD07B8
:10623200D2B4C2B37FC012632BE4FC126322E4FE29
:10624200AF051263A00EEEB440F60CECB408ECD22B
:10625200B3C2B47FC012632BE4FC126322E4FEAF2C
:0E626200051263A00EEEB440F60CECB408EC8E
:01627000220B
:10634D007F3E12632B7FC012632B7FB81263261F13
:03635D0002632BAD
:025FE900AD0702
:105FEB00E4900BC8F0A3F0E4900BCAF0A3F0900B75
:105FFB00C8E0FEA3E07807C333CE33CED8F924082C
:10600B00F58274003EF583C083C082900BCAE0FE1C
:10601B00A3E0D082D0832582F582E5833EF583ED24
:10602B00F0900BCBE004F07006900BCAE004F090FC
:10603B000BCAE07004A3E0648070B3900BC9E0045A
:10604B00F07006900BC8E004F0900BC8E07004A34E
:0A605B00E064087092AF05026230A5
:0863AD0012634DE4FF025FE9F9
:04619100AE05AC07A4
:10619500ECC3948040037F0022EEC3944040037F0C
:1061A5000022AF04AD0612629FAA07EB7012EE54EF
:1061B500072400F582E43400F583E0F45AFA800FF1
:1061C500EE54072400F582E43400F583E04AFAAF83
:0C61D50004AD06AE02AB061261E27F01D1
:0161E100229B
:0A627100900BC9EDF0A907A3EBF0B4
:10627B00E9D39B4006E0FFE9F0A907AF01900BC9FA
:10628B00E0FD900BCBE0FB12619109900BCAE0C3D0
:03629B009950E82F
:01629E0022DD
:095BB900900BC8EFF0AC05A90344
:105BC200ECD3994008900BCCE9F0A904FC900BC8E7
:105BD200E0FFAD0412629F900BCCEFF0E9131313B8
:105BE200541FFFEC131313541F6F6039EC5407FF5B
:105BF20074FFA807088002C333D8FCFE900BCBE0E9
:105C02006006A3E04EFE8009EEF4FE900BCCE05E4F
:105C1200FE900BC8E0FFAD04AB061261E2EC240873
:105C22005438FC8047EC5407FF74FFA80708800231
:105C3200C333D8FCFEE95407FFC374079FFF74FF08
:105C4200A807088002C313D8FC5EFE900BCBE0606D
:105C520006A3E04EFE8009EEF4FE900BCCE05EFE61
:105C6200900BC8E0FFAD04AB060261E2E9C39C40C1
:045C720003025BCFFF
:015C7600220B
:105AF500900BD4ECF0A3EDF0A3EBF0A3EAF0A3E94F
:095B0500F0900BD2EEF0A3EFF0DA
:105B0E00C39480EE940040037F0022C3900BD5E037
:105B1E009440900BD4E0940040037F0022E4900B5D
:105B2E00DCF0900BDCE0FFFDD3900BDAE09D900BE8
:105B3E00D9E094004072EF5407FF7017900BD6E037
:105B4E00FBA3E475F001121B7CA9F0FA121AE69081
:105B5E000BDBF0744C2FF582E4340CF583E0FF90F0
:105B6E000BDBE05F7005900C4B8003900C54E054FF
:105B7E0001900BDDF0900BD2A3E0FFA3A3E0FD900C
:105B8E000BDDE0FB126191900BD2E475F001121B5C
:105B9E0066FEC3E5F09480EE940040037F002290F1
:0A5BAE000BDCE004F0025B307F0125
:015BB80022CA
:105EDD00900BC8EEF0A3EFF0A3ECF0A3EDF0A3EB65
:075EED00F0A3EAF0A3E9F0C5
:105EF400E4900BD1F0900BD0E0FFA3E0C39F50607F
:105F0400900BCAE0FCA3E0FDA3E0FBA3E0FAA3E04E
:105F1400F9A3E0FF900BD9E4F0A3EFF0900BC8E0F5
:105F2400FEA3E0FF125AF5900BCBE004F07006904C
:105F34000BCAE004F0900BCFE0FF131313541FFDC2
:105F4400900BCDE48DF0121B66EF5407600A900BA2
:105F5400CDE475F001121B66900BD1E004F080953E
:015F6400221A
:1053640044455349474E2042555920436C61737359
:1053740056007869616E6768756932323240313639
:10538400332E636F6D0051513A3933343033313435
:1053940035320000003FFC01000100010001007FE4
:1053A400FE0180028002800480088010822082C076
:1053B4007E000021FC21043D0421FC41047DFC907D
:1053C400801080FDFE114A124A1092132214C21B4F
:1053D4000A10040100211019180D10092001047F7E
:1053E400FE044004400440044008420842104220A5
:1053F4003E400022101110112007FC8040504057FD
:10540400FC104020402FFEE040204020402040205F
:105414004020400100010001003FF8210821083F1D
:10542400F82108210821083FF8210801020102009F
:10543400FE000000003FF000200040008001000159
:10544400000104FFFE01000100010001000100054C
:10545400000200000003FEFC20104011FC110411A6
:10546400241124112411241D24E13400480186064A
:10547400020000100013FE9644584051FCFE4028E0
:10548400A028A029FC282028202BFE4C204820807E
:105494002000200000003E42428080808080424400
:1054A40038000000000070101010101010101010C0
:1054B4007C0000000000000000003C421E2242422A
:1054C4003F0000000000000000003E42403C024259
:1054D4007C0000000000000000003E42403C02420C
:1054E4007C0000000000E7424244242428281810CD
:0354F400100000A5
:105D2300E4900C26F0A3F0A3F0A3F0A3F0A37480F7
:105D3300F0A3E4F0A37440F0A374FFF0A37453F052
:105D4300A37464F0A3E4F0A3F0A3F07B017A0C79CD
:105D530026123DBF900AD0E4F0A37437F0A3740178
:105D6300F07B147A007D327C007F057E0012326A5C
:105D7300900AD0E4F0A37437F0A37401F07B147A93
:105D8300007D4B7C007F377E0012326A900AFFE46D
:105D9300F0A37432F0A37401F07B197A007D787C50
:105DA300007F507E0012261F7F207E4E1263097BE8
:085DB300017A0C7926025DBBA8
:104D89001263ADE4FD7F01126382900BCB7401F0D5
:104D99007B7FE4FDFF126271900BCB7401F07B3FC6
:104DA900E4FDFF125BB9900BCB7401F07B807D3F72
:104DB900E4FF126271900BCB7401F07B3FE4FD7F3D
:104DC9007F125BB97BFF7A5379767D047C007F0182
:104DD9007E001260D5E4900BC4F0A3F0A3F0A3F019
:104DE900900BC27410F0A3F0900BC2E0FF7E00A3F9
:104DF900E0FD7C007BFF7A537997900BCF7410F01C
:104E0900A3F0125EDD900BC2E02410F0E0FF7E00FB
:104E1900A3E0FD7C007BFF7A5379B7900BCF741028
:104E2900F0A3F0125EDD900BC2E02410F0E0FF7EEB
:104E390000A3E0FD7C007BFF7A5379D7900BCF74F8
:104E490010F0A3F0125EDD900BC2E02410F0E0FF39
:104E59007E00A3E0FD7C007BFF7A5379F7900BCFAE
:104E69007410F0A3F0125EDD900BC2E02410F0E0A4
:104E7900FF7E00A3E0FD7C007BFF7A547917900B3D
:104E8900CF7410F0A3F0125EDD900BC2E02410F095
:104E9900E0FF7E00A3E0FD7C007BFF7A5479379028
:104EA9000BCF7410F0A3F0125EDD900BC27424F0E6
:104EB900A3E02410F0900BC2E0FF7E00A3E0FD7C8C
:104EC900007BFF7A547997900BCF7408F0A3741084
:104ED900F0125EDD900BC2E02408F0E0FF7E00A333
:104EE900E0FD7C007BFF7A5479A7900BCF7408F022
:104EF900A37410F0125EDD900BC2E02408F0E0FF0D
:104F09007E00A3E0FD7C007BFF7A5479B7900BCF3C
:104F19007408F0A37410F0125EDD900BC2E024084F
:104F2900F0E0FF7E00A3E0FD7C007BFF7A5479C7A7
:104F3900900BCF7408F0A37410F0125EDD900BC2D1
:104F4900E02408F0E0FF7E00A3E0FD7C007BFF7A0F
:104F59005479D7900BCF7408F0A37410F0125EDD6A
:104F6900900BC2E02410F0E0FF7E00A3E0FD7C007E
:104F79007BFF7A5479E7900BCF7408F0A37410F093
:104F8900125EDD900BC2740AF0A3E02414F0900BBA
:104F9900C2E0FF7E00A3E0FD7C007BFF7A53798AA3
:054FA90012613380FEDF
:10636000D3EF9DEC6480F8EE648098400122AE0487
:03637000AF052254
:0E62C600E0FCA3E0FDA3E0FEA3E0FF121A65DA
:1062D400D3EF9400EE64809480400122C3E49FFFD6
:0462E400E49EFE2214
:105A1800900BDEEBF0A3EAF0A3E9F0A3121D71905E
:105A28000BE1E0FCA3E0FDA3E0FEA3E0FF900BDEAA
:105A3800E0FBA3E0FAA3E0F9121CD7900BE5E0FC29
:105A4800A3E0FDA3E0FEA3E0FF900BDEE0FBA3E0F4
:105A5800FAA3E0F9900004121CF1900BE9E0FCA312
:105A6800E0FDA3E0FEA3E0FF900008121CF1900BFC
:105A7800EDE0FCA3E0FDA3E0FEA3E0FF90000C1224
:105A88001CF1900BF1E0FCA3E0FDA3E0FEA3E0FF16
:105A9800900010121CF1900BF5E0FCA3E0FDA3E0D0
:105AA800FEA3E0FF900014121CF1900BE11262C6F5
:105AB800C006C007900BE51262C6AC06AD07D0075A
:105AC800D006126360AC06AD07EC121A2CE4FBFAA0
:105AD800F9784112198A121A65900BDEE0FBA3E0EF
:0D5AE800FAA3E0F9900018EE8FF0021C4CBC
:1062E800900018121BBD45F0700990001875F00158
:1062F800121C4C900018121BBD2401FFE435F0FE5F
:016308002272
:1046B900900B58121D71900B55EBF0A3EAF0A3E98A
:0146C900F000
:1046CA00900018121BBD45F07015900B55E0FBA326
:1046DA00E0FAA3E0F9900018E475F001121C4C907E
:1046EA000B58E0FCA3E0FDA3E0FEA3E0FF121A656D
:1046FA00900B66EEF0A3EFF0900B5CE0FCA3E0FDFC
:10470A00A3E0FEA3E0FF121A65900B68EEF0A3EF98
:10471A00F0900B66E0FCA3E0FD900B63E0FBA3E0E6
:10472A00FAA3E0F9121B92AEF07802C333CE33CE6D
:10473A00D8F9FF900B60E0FBA3E0FAA3E0F98F82BF
:10474A008E83EC8DF0121C4C900B68E0FCA3E0FD0C
:10475A00E92FF9EA3EFA900002EC8DF0121C4C9017
:10476A000B63E0FBA3E0FAA3E0F9E475F001121B86
:10477A00F5900B7AE4F0A304F0900B55E0FBA3E06C
:10478A00FAA3E0F9900018121BBDFFD3900B7BE04F
:10479A009FE5F06480F8900B7AE064809840030209
:1047AA004AB9900018121BBDFDACF0EC121A2CA8E5
:1047BA0004A905AA06AB07E4FFFE7D807C3F121917
:1047CA008AC004C005C006C007900B7AE0FCA3E0CB
:1047DA00FDEC121A2CD003D002D001D0001218819D
:1047EA00900B6A121D71E4FFFEFD7C40900B6AE09B
:1047FA00F8A3E0F9A3E0FAA3E0FB121881A804A940
:10480A0005AA06AB07E4FFFE7D407C4012178CC068
:10481A0004C005C006C007900B6AE0FCA3E0FDA334
:10482A00E0FEA3E0FF900B6AE0F8A3E0F9A3E0FA48
:10483A00A3E0FB121881D003D002D001D0001218D5
:10484A0081900B6E121D71E4FFFE7D807CBF900B80
:10485A006AE0F8A3E0F9A3E0FAA3E0FB121790904C
:10486A000B6AE0F8A3E0F9A3E0FAA3E0FB121881CF
:10487A00C004C005C006C007E4FFFE7D807CBF906F
:10488A000B6AE0F8A3E0F9A3E0FAA3E0FB121790A1
:10489A00D003D002D001D000121881900B72121DE1
:1048AA0071E4FFFE7D807CBF900B6AE0F8A3E0F91B
:1048BA00A3E0FAA3E0FB121790C004C005C006C02B
:1048CA0007900B6AE0FCA3E0FDA3E0FEA3E0FF90E3
:1048DA000B6AE0F8A3E0F9A3E0FAA3E0FB1218815F
:1048EA00D003D002D001D000121881900B76121D8D
:1048FA0071900B55E0FBA3E0FAA3E0F9121C879034
:10490A000B6EE0F8A3E0F9A3E0FAA3E0FB1218812A
:10491A00900B58E0F8A3E0F9A3E0FAA3E0FB121722
:10492A0090C004C005C006C007900B55E0FBA3E089
:10493A00FAA3E0F9900008121CA7900B72E0F8A302
:10494A00E0F9A3E0FAA3E0FB121881D003D002D069
:10495A0001D000121790C004C005C006C007900B12
:10496A0055E0FBA3E0FAA3E0F9900010121CA7900F
:10497A000B76E0F8A3E0F9A3E0FAA3E0FB121881B2
:10498A00D003D002D001D000121790121A65900BF2
:10499A0066EEF0A3EFF0900B55E0FBA3E0FAA3E07C
:1049AA00F9900004121CA7900B6EE0F8A3E0F9A39B
:1049BA00E0FAA3E0FB121881900B5CE0F8A3E0F99F
:1049CA00A3E0FAA3E0FB121790C004C005C006C01A
:1049DA0007900B55E0FBA3E0FAA3E0F990000C1254
:1049EA001CA7900B72E0F8A3E0F9A3E0FAA3E0FB9E
:1049FA00121881D003D002D001D000121790C0043F
:104A0A00C005C006C007900B55E0FBA3E0FAA3E07F
:104A1A00F9900014121CA7900B76E0F8A3E0F9A312
:104A2A00E0FAA3E0FB121881D003D002D001D00033
:104A3A00121790121A65900B68EEF0A3EFF0900B24
:104A4A0066E0FCA3E0FD900B63E0FBA3E0FAA3E0C1
:104A5A00F9121B92AEF07802C333CE33CED8F9FFE7
:104A6A00900B60E0FBA3E0FAA3E0F98F828E83EC5F
:104A7A008DF0121C4C900B68E0FCA3E0FDE92FF9C5
:104A8A00EA3EFA900002EC8DF0121C4C900B63E0A7
:104A9A00FBA3E0FAA3E0F9E475F001121BF5900B11
:0F4AAA007BE004F07006900B7AE004F002478383
:014AB90022DA
:0B54F700900C55EBF0A3EAF0A3E9F0E5
:10550200900C5BE0FFA3E09001B8CF8FF0121C4C2F
:10551200E4900C5DF0A3F0900C55E0FBA3E0FAA33D
:10552200E0F99001B8121BBDFF900C5DE0FCA3E016
:10553200FDC39FE5F06480F8EC6480984003025656
:1055420015EDAE047802C333CE33CED8F9FF900CFA
:1055520058E0FBA3E0FAA3E0F98F828E83121BBD11
:10556200FDACF0E4121A2CC004C005C006C00790BE
:105572000C5DE0FEA3E07802C333CE33CED8F9FF50
:10558200900C55E0FBA3E0FAA3E0F98F828E83D062
:1055920007D006D005D004121CF1900C5DE0FEA3EA
:1055A200E07802C333CE33CED8F9FF900C58E0FB3B
:1055B200A3E0FAA3E02FF9EA3EFA900002121BBD23
:1055C200FDACF0E4121A2CC004C005C006C007905E
:1055D2000C55E0FBA3E0FAA3E02428F9E43AFA90A0
:1055E2000C5DE0FEA3E07802C333CE33CED8F929B6
:1055F200F9EA3EFAD007D006D005D004121CD790A3
:105602000C5EE004F06003025519900C5DE004F0BA
:0356120002551925
:015615002272
:0B381800900A08EBF0A3EAF0A3E9F02F
:10382300E4900A5EF0A3F0900A08E0FBA3E0FAA399
:10383300E0F99001B8121BBD24FFFFE5F034FFFE51
:10384300D3900A5FE09FEE6480F8900A5EE06480A4
:10385300984003023938900A08A3A3E02468F9EAE0
:103863003401FA900A5EE0FEA3E07802C333CE335C
:10387300CED8F929F9EA3EFA121D21C000C001C0D1
:1038830002C003900A5EE0FEA3E07802C333CE33A6
:10389300CED8F9FF900A0BE0FBA3E0FAA3E0F98F7F
:1038A300828E83121CA7D003D002D001D00012193C
:1038B3008AC004C005C006C007900A5EE0FEA3E00C
:1038C3007802C333CE33CED8F9FBAA06240EF58291
:1038D300740A3AF583D007D006D005D004121D71BF
:1038E300740E2BF582740A3AF583E0FCA3E0FDA382
:1038F300E0FEA3E0FFC004C005C006C007900A5E57
:10390300E0FEA3E07802C333CE33CED8F92436F5F4
:1039130082740A3EF583D007D006D005D004121D69
:1039230071900A5FE004F0600302382A900A5EE0B7
:1039330004F002382AE4900A60F0A3F0900A08E049
:10394300FBA3E0FAA3E0F9900190121CA7900A3AB6
:10395300E0F8A3E0F9A3E0FAA3E0FB121881C004A6
:10396300C005C006C007900A0BE0FBA3E0FAA3E082
:10397300F9121C87D003D002D001D00012178C900B
:103983000A08E0FBA3E0FAA3E0F9900168121D41E5
:1039930012198A900A0E121D71900A5EE4F0A304B4
:1039A300F0900A08E0FBA3E0FAA3E0F99001B81253
:1039B3001BBD24FFFFE5F034FFFEC3900A5FE09FC9
:1039C300EE6480F8900A5EE06480984003023B5105
:1039D300E92440F9EA3401FAE0FEA3E07802C333B4
:1039E300CE33CED8F929F9EA3EFA121C87C004C0B7
:1039F30005C006C007900A5EE0FEA3E07802C33369
:103A0300CE33CED8F92432F582740A3EF583E0F83A
:103A1300A3E0F9A3E0FAA3E0FBD007D006D005D0DA
:103A230004121881C004C005C006C007900A5EE0F6
:103A3300FEA3E07802C333CE33CED8F9FF900A0B4E
:103A4300E0FBA3E0FAA3E0F98F828E83121CA7D0D8
:103A530003D002D001D00012178CC004C005C006E9
:103A6300C007900A08E0FBA3E0FAA3E02490F9EA78
:103A73003401FA900A5EE0FEA3E07802C333CE334A
:103A8300CED8F929F9EA3EFA121C87C004C005C052
:103A930006C007900A5EE0FEA3E07802C333CE338C
:103AA300CED8F9243AF582740A3EF583E0F8A3E010
:103AB300F9A3E0FAA3E0FBD007D006D005D00412A7
:103AC3001881A804A905AA06AB07D007D006D0051C
:103AD300D00412178CC004C005C006C007900A08A2
:103AE300E0FBA3E0FAA3E02468F9EA3401FA900AC0
:103AF3005EE0FEA3E07802C333CE33CED8F929F9D2
:103B0300EA3EFA121D21D007D006D005D0041219BF
:103B13008AC004C005C006C007900A5EE0FEA3E0A9
:103B23007802C333CE33CED8F9240EF582740A3E1D
:103B3300F583D007D006D005D004121D71900A5F1B
:103B4300E004F07006900A5EE004F00239A4900AE3
:103B530008E0FBA3E0FAA3E0F99001B8121BBDAEA5
:103B6300F07802C333CE33CED8F9243CF582740106
:103B73003EF583121CA7C004C005C006C007900A07
:103B830008E0FBA3E0FAA3E0F99001B8121BBDAE75
:103B9300F07802C333CE33CED8F9242EF582740ADB
:103BA3003EF583E0F8A3E0F9A3E0FAA3E0FBD00736
:103BB300D006D005D004121881C004C005C006C0C9
:103BC30007900A08E0FBA3E0FAA3E0F99001B8121A
:103BD3001BBD24FFFFE5F034FFFEEF7802C333CEB5
:103BE30033CED8F9FF900A0BE0FBA3E0FAA3E0F988
:103BF3008F828E83121CA7D003D002D001D0001273
:103C0300178CC004C005C006C007900A08E0FBA3D8
:103C1300E0FAA3E0F99001B8121BBDAEF07802C33D
:103C230033CE33CED8F92464F58274013EF5831282
:103C33001D41D007D006D005D00412198AC004C094
:103C430005C006C007900A08E0FBA3E0FAA3E0F969
:103C53009001B8121BBDAEF07802C333CE33CED879
:103C6300F9240AF582740A3EF583D007D006D005FD
:103C7300D004121D71E4900A5EF0A3F0900A08E0EC
:103C8300FBA3E0FAA3E0F99001B8121BBD24FFFFE8
:103C9300E5F034FFFE900A5EE0FCA3E0FDD39FEE67
:103CA3006480F8EC648098505DEDAE047802C33311
:103CB300CE33CED8F9240EF582740A3EF583E0FCA8
:103CC300A3E0FDA3E0FEA3E0FFC004C005C006C05F
:103CD30007900A5EE0FEA3E07802C333CE33CED86A
:103CE300F92436F582740A3EF583D007D006D00551
:103CF300D004121D71900A5FE004F07006900A5E12
:103D0300E004F0023C7F900A61E004F07006900A40
:103D130060E004F0900A60E07004A3E0640A6003CA
:103D230002393FE4900A5EF0A3F0900A08E0FBA397
:103D3300E0FAA3E0F99001B8121BBD24FFFFE5F000
:103D430034FFFE900A5EE0FCA3E0FDD39FEE6480A7
:103D5300F8EC6480985064EDAE047802C333CE333C
:103D6300CED8F9240EF582740A3EF583E0FCA3E075
:103D7300FDA3E0FEA3E0FFC004C005C006C007909A
:103D83000A5EE0FEA3E07802C333CE33CED8F9FF58
:103D9300900A0BE0FBA3E0FAA3E0F98F828E83D0B5
:103DA30007D006D005D004121CF1900A5FE004F09E
:0B3DB3007006900A5EE004F0023D2D57
:013DBE0022E2
:0B0C5A00900A62EBF0A3EAF0A3E9F0BF
:100C6500E4900A95F0A3F0900A62E0FBA3E0FAA3F2
:100C7500E0F99001B8121BBD24FEFFE5F034FFFE3C
:100C8500900A95E0FCA3E0FDD39FEE6480F8EC6448
:100C950080984003020DDDEDAE047802C333CE33F8
:100CA500CED8F92404FFE43EFE900A62E0FBA3E0FF
:100CB500FAA3E0F98F828E83121CA7C004C005C079
:100CC50006C007900A95E0FEA3E07802C333CE3351
:100CD500CED8F9FF900A62E0FBA3E0FAA3E0F98F12
:100CE500828E83121D41D007D006D005D00412177D
:100CF5008CC004C005C006C007900A62E0FBA3E0F3
:100D0500FAA3E02450F9E43AFA900A95E0FEA3E04C
:100D15007802C333CE33CED8F929F9EA3EFAD007A3
:100D2500D006D005D004121CD7900A62E0FBA3E0E0
:100D3500FAA3E02428F9E43AFA900A95E0FEA3E044
:100D45007802C333CE33CED8F929F9EA3EFA121D1B
:100D550021C000C001C002C003900A95E0FEA3E0D7
:100D65007802C333CE33CED8F9242CFFE43EFE906F
:100D75000A62E0FBA3E0FAA3E0F98F828E83121CDE
:100D8500A7D003D002D001D00012178CC004C00533
:100D9500C006C007900A62E0FBA3E0FAA3E024784E
:100DA500F9E43AFA900A95E0FEA3E07802C333CE5F
:100DB50033CED8F929F9EA3EFAD007D006D005D0C6
:100DC50004121CD7900A96E004F06003020C6C90A4
:100DD5000A95E004F0020C6C900A62E0FBA3E0FACD
:100DE500A3E0F9900078121CA7A804A905AA06ABF0
:100DF50007121881C004C005C006C007900A62E04A
:100E0500FBA3E0FAA3E0F9900050121CA7A804A9DF
:100E150005AA06AB07121881D003D002D001D00075
:100E2500121790125C7B900A91121D71E4900A953D
:100E3500F0A3F0900A62E0FBA3E0FAA3E0F99001C9
:100E4500B8121BBD24FDFFE5F034FFFE900A95E0C6
:100E5500FCA3E0FDD39FEE6480F8EC64809840032A
:100E6500020FB2EDAE047802C333CE33CED8F924E7
:100E75007CFFE43EFE900A62E0FBA3E0FAA3E0F902
:100E85008F828E83121CA7C004C005C006C00790C0
:100E95000A95E0FEA3E07802C333CE33CED8F92419
:100EA5007CFFE43EFE900A62E0FBA3E0FAA3E0F9D2
:100EB5008F828E83121D41D007D006D005D0041233
:100EC5001881C004C005C006C007900A95E0FEA3BE
:100ED500E07802C333CE33CED8F92454FFE43EFE86
:100EE500900A62E0FBA3E0FAA3E0F98F828E8312F9
:100EF5001CA7C004C005C006C007900A95E0FEA364
:100F0500E07802C333CE33CED8F92454FFE43EFE55
:100F1500900A62E0FBA3E0FAA3E0F98F828E8312C8
:100F25001D41D007D006D005D004121881D003D0BA
:100F350002D001D000121790125C7B900A8D121D11
:100F450071900A8DE0F8A3E0F9A3E0FAA3E0FBA312
:100F5500E0FCA3E0FDA3E0FEA3E0FF12198AC004B4
:100F6500C005C006C007900A95E0FEA3E07802C35D
:100F750033CE33CED8F92465F582740A3EF583D095
:100F850007D006D005D004121D71900A8DE0FCA390
:100F9500E0FDA3E0FEA3E0FFA3121D71900A96E019
:100FA50004F07006900A95E004F0020E38900A628B
:100FB500E0FBA3E0FAA3E0F99001B8121BBDAEF087
:100FC5007802C333CE33CED8F9245DF582740A3E58
:100FD500F583121D7D3F800000900A95E4F0A3047F
:100FE500F0900A62E0FBA3E0FAA3E0F99001B812E1
:100FF5001BBD24FEFFE5F034FFFED3900A96E09F6B
:10100500EE6480F8900A95E064809840030211AB85
:10101500E92440F9EA3401FAE0FEA3E07802C3339B
:10102500CE33CED8F9FF29F9EA3EFA121DAE3F803C
:10103500000074612FF582740A3EF583E0FCA3E09D
:10104500FDA3E0FEA3E0FFE4FBFA7980783F1217E9
:1010550090C004C005C006C007900A95E0FEA3E055
:101065007802C333CE33CED8F92461F582740A3EB3
:10107500F583E0FCA3E0FDA3E0FEA3E0FFE4FBFABB
:10108500F97840121881D003D002D001D00012188F
:1010950081C004C005C006C007900A62E0FBA3E05A
:1010A500FAA3E02468F9EA3401FA900A95E0FEA370
:1010B500E07802C333CE33CED8F929F9EA3EFAD027
:1010C50007D006D005D004121CD7900A95E0FEA3E0
:1010D500E07802C333CE33CED8F92461F582740AA1
:1010E5003EF583E0FCA3E0FDA3E0FEA3E0FFC00422
:1010F500C005C006C007900A95E0FEA3E07802C3CC
:1011050033CE33CED8F92461F582740A3EF583E0F7
:10111500F8A3E0F9A3E0FAA3E0FBD007D006D005D9
:10112500D004121881C004C005C006C007900A95F6
:10113500E0FEA3E07802C333CE33CED8F92465F5BB
:1011450082740A3EF583E0F8A3E0F9A3E0FAA3E090
:10115500FBD007D006D005D004121881C004C00505
:10116500C006C007900A62E0FBA3E0FAA3E0249062
:10117500F9EA3401FA900A95E0FEA3E07802C33358
:10118500CE33CED8F929F9EA3EFAD007D006D005F4
:10119500D004121CD7900A96E004F07006900A95C8
:1011A500E004F0020FE6900A62E0FBA3E0FAA3E098
:1011B500F9900168121DC840000000900A65E0FC26
:1011C500A3E0FDA3E0FEA3E0FF900190121CF190C7
:1011D50001B8121BBDAEF07802C333CE33CED8F9B9
:1011E500243CF58274013EF583121DC83F80000042
:1011F5009001B8121BBDAEF07802C333CE33CED802
:10120500F9245DF582740A3EF583E0FCA3E0FDA3B5
:10121500E0FEA3E0FFE4FBFAF97840121881C00470
:10122500C005C006C007900A62E0FBA3E0FAA3E090
:10123500F99001B8121BBDAEF07802C333CE33CEA0
:10124500D8F92464F58274013EF583D007D006D021
:1012550005D004121CF1900A95E4F0A304F0900A5D
:1012650062E0FBA3E0FAA3E0F99001B8121BBD24EC
:10127500FEFFE5F034FFFED3900A96E09FEE648012
:10128500F8900A95E064809840030214BDE9245063
:10129500F9E43AFAE0FEA3E07802C333CE33CED8C0
:1012A500F929F9EA3EFA121D21C000C001C002C0A9
:1012B50003900A95E0FEA3E07802C333CE33CED87F
:1012C500F92461F582740A3EF583E0FCA3E0FDA3F1
:1012D500E0FEA3E0FFC004C005C006C007900A9564
:1012E500E0FEA3E07802C333CE33CED8F92461F50E
:1012F50082740A3EF583E0F8A3E0F9A3E0FAA3E0DF
:10130500FBD007D006D005D004121881D003D00237
:10131500D001D000121881C004C005C006C00790D6
:101325000A95E0FEA3E07802C333CE33CED8F92484
:101335004CFFE43EFE900A62E0FBA3E0FAA3E0F96D
:101345008F828E83121D41D007D006D005D004129E
:101355001790E4FBFA79407840121881C004C00563
:10136500C006C007900A62E0FBA3E0FAA3E024A050
:10137500F9E43AFA900A95E0FEA3E07802C333CE89
:1013850033CED8F929F9EA3EFAD007D006D005D0F0
:1013950004121CD7900A62E0FBA3E0FAA3E02478CC
:1013A500F9E43AFA900A95E0FEA3E07802C333CE59
:1013B50033CED8F929F9EA3EFA121D21C000C00141
:1013C500C002C003900A95E0FEA3E07802C333CEC5
:1013D50033CED8F92461F582740A3EF583E0FCA387
:1013E500E0FDA3E0FEA3E0FFC004C005C006C00702
:1013F500900A95E0FEA3E07802C333CE33CED8F948
:101405002461F582740A3EF583E0F8A3E0F9A3E0D0
:10141500FAA3E0FBD007D006D005D004121881D07E
:1014250003D002D001D000121881C004C005C00647
:10143500C007900A95E0FEA3E07802C333CE33CE11
:10144500D8F92474FFE43EFE900A62E0FBA3E0FABB
:10145500A3E0F98F828E83121D41D007D006D005F7
:10146500D004121790E4FBFA79407840121881C035
:1014750004C005C006C007900A62E0FBA3E0FAA31A
:10148500E024C8F9E43AFA900A95E0FEA3E0780270
:10149500C333CE33CED8F929F9EA3EFAD007D006C0
:1014A500D005D004121CD7900A96E004F07006907F
:1014B5000A95E004F0021263900A62E0FBA3E0FAE9
:1014C500A3E0F9900050121CA7E4FBFA794078409C
:1014D500121881900A62E0FBA3E0FAA3E0F99000FC
:1014E500A0121CF1900078121CA7E4FBFA79407851
:1014F50040121881900A62E0FBA3E0FAA3E0F9909C
:1015050000C8121CF19001B8121BBDAEF07802C3E1
:1015150033CE33CED8F92448F582E43EF583121C48
:10152500A7E4FBFA79407840121881C004C005C0D1
:1015350006C007900A62E0FBA3E0FAA3E0F9900178
:10154500B8121BBDAEF07802C333CE33CED8F92422
:101555009CF582E43EF583D007D006D005D0041271
:101565001CF19001B8121BBDAEF07802C333CE3327
:10157500CED8F92470F582E43EF583121CA7E4FB6E
:10158500FA79407840121881C004C005C006C0072A
:10159500900A62E0FBA3E0FAA3E0F99001B8121B00
:1015A500BDAEF07802C333CE33CED8F924C4F5826C
:1015B500E43EF583D007D006D005D004121CF1C057
:1015C50003C002C001900A62E0FBA3E0FAA3E02495
:1015D500A0F9E43AFA900A0BEBF0A3EAF0A3E9F0DC
:1015E500D001D002D003123818900A62E0FBA3E0C4
:1015F500FAA3E024C8F9E43AFA900A0BEBF0A3EA5F
:10160500F0A3E9F0900A62A3E0FAA3E0F912381812
:10161500E4900A95F0A3F0900A62E0FBA3E0FAA338
:10162500E0F99001B8121BBD24FEFFE5F034FFFE82
:10163500900A95E0FCA3E0FDD39FEE6480F8EC648E
:1016450080984003021788EDAE047802C333CE3389
:10165500CED8F924A4FFE43EFE900A62E0FBA3E0A5
:10166500FAA3E0F98F828E83121CA7C004C005C0BF
:1016750006C007900A95E0FEA3E07802C333CE3397
:10168500CED8F92465F582740A3EF583E0F8A3E027
:10169500F9A3E0FAA3E0FBD007D006D005D00412E9
:1016A5001881C004C005C006C007900A62E0FBA30C
:1016B500E0FAA3E024F0F9E43AFA900A95E0FEA3F3
:1016C500E07802C333CE33CED8F929F9EA3EFAD011
:1016D50007D006D005D004121CD7900A95E0FEA3CA
:1016E500E07802C333CE33CED8F924CCFFE43EFEF6
:1016F500900A62E0FBA3E0FAA3E0F98F828E8312E1
:101705001CA7C004C005C006C007900A95E0FEA34B
:10171500E07802C333CE33CED8F92465F582740A56
:101725003EF583E0F8A3E0F9A3E0FAA3E0FBD007D8
:10173500D006D005D004121881C004C005C006C06B
:1017450007900A62E0FBA3E0FAA3E02418F9EA3463
:1017550001FA900A95E0FEA3E07802C333CE33CEBA
:10176500D8F929F9EA3EFAD007D006D005D00412F7
:101775001CD7900A96E004F07006900A95E004F0F4
:0317850002161C2D
:01178800223E
:0B51C900900BA1EBF0A3EAF0A3E9F0CB
:1051D400E4900BBEF0A3F0A3F0A3F0900BA1E0FBCE
:1051E400A3E0FAA3E0F99001B8121BBD24FFFFE588
:1051F400F034FFFEC3900BC1E09FEE6480F8900B87
:10520400C0E0648098400302535B900BA1A3A3E029
:105214002450F9E43AFA900BC0E0FEA3E07802C30C
:1052240033CE33CED8F929F9EA3EFA121C87C004EA
:10523400C005C006C007900BA1E0FBA3E0FAA3E001
:105244002478F9E43AFA900BC0E0FEA3E07802C3B4
:1052540033CE33CED8F929F9EA3EFA121C87900BE3
:10526400E5121D71900BA1E0FBA3E0FAA3E024A0DA
:10527400F9E43AFA900BC0E0FEA3E07802C333CE1F
:1052840033CED8F929F9EA3EFA121C87900BE912B9
:105294001D71900BA1E0FBA3E0FAA3E024C8F9E49C
:1052A4003AFA900BC0E0FEA3E07802C333CE33CECB
:1052B400D8F929F9EA3EFA121C87900BED121D71F8
:1052C400900BA1E0FBA3E0FAA3E024F0F9E43AFA9E
:1052D400900BC0E0FEA3E07802C333CE33CED8F9FE
:1052E40029F9EA3EFA121C87900BF1121D71900BFA
:1052F400A1E0FBA3E0FAA3E02418F9EA3401FA9050
:105304000BC0E0FEA3E07802C333CE33CED8F92934
:10531400F9EA3EFA121C87900BF5121D717B017A93
:105324000B79A4D007D006D005D004125A187B01FB
:105334007A0B79A41262E8900BBFE02FF0900BBEB9
:10534400E03EF0900BC1E004F060030251DF900BEB
:0F535400C0E004F00251DF900BBEE0FEA3E0FFCB
:015363002227
:0B4FAE00900B7CEBF0A3EAF0A3E9F00D
:104FB900900B82E0FBA3E0FAA3E0F9E4F5F0121C00
:104FC9002DE4900B9FF0A3F0900B7CE0FBA3E0FA9B
:104FD900A3E0F99001B8121BBD24FFFFE5F034FFEF
:104FE900FEC3900BA0E09FEE6480F8900B9FE064F5
:104FF900809840030251C8900B7CA3A3E02450F988
:10500900E43AFA900B9FE0FEA3E07802C333CE3373
:10501900CED8F929F9EA3EFA121C87C004C005C0A6
:1050290006C007900B7CE0FBA3E0FAA3E02478F923
:10503900E43AFA900B9FE0FEA3E07802C333CE3343
:10504900CED8F929F9EA3EFA121C87900BE5121D10
:1050590071900B7CE0FBA3E0FAA3E024A0F9E43A09
:10506900FA900B9FE0FEA3E07802C333CE33CED88B
:10507900F929F9EA3EFA121C87900BE9121D719081
:105089000B7CE0FBA3E0FAA3E024C8F9E43AFA9028
:105099000B9FE0FEA3E07802C333CE33CED8F929C3
:1050A900F9EA3EFA121C87900BED121D71900B7CE8
:1050B900E0FBA3E0FAA3E024F0F9E43AFA900B9FAD
:1050C900E0FEA3E07802C333CE33CED8F929F9EA5A
:1050D9003EFA121C87900BF1121D71900B7CE0FBBC
:1050E900A3E0FAA3E02418F9EA3401FA900B9FE04F
:1050F900FEA3E07802C333CE33CED8F929F9EA3ECC
:10510900FA121C87900BF5121D717B017A0B7985B8
:10511900D007D006D005D004125A18900B9FE0FE94
:10512900A3E07802C333CE33CED8F9FF900B7CE0ED
:10513900FBA3E0FAA3E0F98F828E83121CA7C004B7
:10514900C005C006C007900B7CA3A3E02428F9E49E
:105159003AFA900B9FE0FEA3E07802C333CE33CE38
:10516900D8F929F9EA3EFA121C87900B5C121D71D5
:10517900900B7FE0F9A3E0FAA3E0900B60C9F0A3DC
:10518900EAF0A3E9F0900B82E0F9A3E0FAA3E0903A
:105199000B63C9F0A3EAF0A3E9F07B017A0B7985E7
:1051A900D007D006D005D0041246B9900BA0E00470
:0F51B900F06003024FD1900B9FE004F0024FD142
:0151C80022C4
:0B3DBF00900C34EBF0A3EAF0A3E9F055
:103DCA00900004121BBDC39414E5F09400401A90AD
:103DDA000C34E0FBA3E0FAA3E0F9900006121BBD45
:103DEA00C39414E5F0940050037F0022900004125B
:103DFA001BBDFFAEF0121B922FFFE5F03EFED3EF84
:103E0A009480EE940040037F0022900C34E0FBA3E0
:103E1A00E0FAA3E0F9900006121BBDFFAEF0900095
:103E2A0002121BBDFDACF02FFFEC3EFED3EF944017
:103E3A00EE940040037F0022900C34E0FBA3E0FAEA
:103E4A00A3E0F9121B92FFAEF0C006C0079000046F
:103E5A00121BBDFFAEF0121B922FFFE5F03ECF24DE
:103E6A00FFFBEF34FFFAC002C003900C34E0FBA35F
:103E7A00E0FA900006121BBDFFAEF0900002121B82
:103E8A00BD2FFFE5F03ECF24FFCF34FF900C46F064
:103E9A00A3EFF0900C4BE0900C48F0D003D002D086
:103EAA0007D006125616900C34E0FBA3E0FAA3E002
:103EBA00F9121B92FFAEF0C006C007900002121B57
:103ECA00BDFDACF0900004121BBDFFAEF0121B92B8
:103EDA002FFFE5F03ECF24FFFBEF34FFFAC002C00C
:103EEA0003900C34E0FBA3E0FA900006121BBDFF1E
:103EFA00AEF0900002121BBD2FFFE5F03ECF24FF6B
:103F0A00CF34FF900C65F0A3EFF0900C54E0900CC6
:103F1A0067F0D003D002D007D006126065900C3447
:103F2A00E0FBA3E0FAA3E0F9121B92FF9000021251
:103F3A001BBD240CFD900004121BBDFE121B922E09
:103F4A0014FB900C54E0900BCBF0126271900C347D
:103F5A00E0FBA3E0FAA3E0F9121B92240CFF900005
:103F6A0002121BBDFD240CFB900C54E0900BCBF00D
:103F7A00125BB9900C34E0FBA3E0FAA3E0F9121B40
:103F8A0092FFAEF0C006C007900002121BBDFDAC46
:103F9A00F0121B92240CFBE435F0FAC002C0039025
:103FAA000C34E0FBA3E0FA900002121BBD240CFEC5
:103FBA00E435F0900C17F0A3CEF0900C54E0900C7E
:103FCA0019F0D003D002D007D006124AE7900C3479
:103FDA00E0FBA3E0FAA3E0F9121B92240CFFE435FC
:103FEA00F0FEC006C007900002121BBDFDACF01225
:103FFA001B92FBAAF0C002C003900C34E0FBA3E0C2
:10400A00FA900002121BBD240CFEE435F0900C1746
:10401A00F0A3CEF0900C54E0900C19F0D003D0022B
:10402A00D007D006124AE7900C34E0FBA3E0FAA3CB
:10403A00E0F9900008121DECE94A7003024113905E
:10404A000C34E0FBA3E0FAA3E0F9900008121DEC9F
:10405A00900C37EBF0A3EAF0A3E9F0900C34E0FB04
:10406A00A3E0FAA3E0F9121B92FDACF0240FFEE4E0
:10407A003C900C3AF0A3CEF0900002121BBD240330
:10408A00FEE435F0900C3CF0A3CEF0900004121B35
:10409A00BD2DFFEC35F0CF24FFCF34FF900C3EF05E
:1040AA00A3EFF0900C3BE02408FF900C3AE03400B8
:1040BA00FEC3900C3FE09FEE6480F8900C3EE064F3
:1040CA0080984045900C37E0FBA3E0FAA3E0F91290
:1040DA001AE66035900C3AE0FEA3E0FFA3E0FCA3E9
:1040EA00E0FD900C37E0FBA3E475F001121B7CA9FC
:1040FA00F0FA121AE6FB125722900C3BE02406F063
:10410A00900C3AE03400F0809A900C34E0FBA3E083
:10411A00FAA3E0F990000B121DECE94A700302427F
:10412A0059900C34E0FBA3E0FAA3E0F990000612E0
:10413A001BBDFDACF0C3943CEC940050037F0022FD
:10414A00900C34E0FBA3E0FAA3E0F9121B92FFAE55
:10415A0005900002121BBD2E24F5FD900004121BCF
:10416A00BDFE121B922E14FB900C54E0900BCBF068
:10417A00126271900C34E0FBA3E0FAA3E0F990001C
:10418A000B121DEC900C37EBF0A3EAF0A3E9F090C8
:10419A000C34E0FBA3E0FAA3E0F9121B922403FE1D
:1041AA00E435F0900C3AF0A3CEF0900006121BBD55
:1041BA00FFAEF0900002121BBD2FFFE5F03ECF24A8
:1041CA00F7CF34FF900C3CF0A3EFF0900004121BE1
:1041DA00BDFFAEF0121B922FFFE5F03ECF24FFCFBA
:1041EA0034FF900C3EF0A3EFF0900C3BE02408FF64
:1041FA00900C3AE03400FEC3900C3FE09FEE6480DE
:10420A00F8900C3EE06480984045900C37E0FBA3A0
:10421A00E0FAA3E0F9121AE66035900C3AE0FEA340
:10422A00E0FFA3E0FCA3E0FD900C37E0FBA3E475FC
:10423A00F001121B7CA9F0FA121AE6FB125722901F
:10424A000C3BE02406F0900C3AE03400F0809A7FB0
:01425A000162
:01425B002240
:10592400900C7AEBF0A3EAF0A3E9F0900C7AE0FB98
:10593400A3E0FAA3E0F9900004121BBDC39414E59C
:10594400F09400400F900006121BBDC39414E5F0C0
:10595400940050037F0022900004121BBDFFAEF0A0
:10596400121B922FFFE5F03EFED3EF9480EE9400DD
