:0162F7002284
:10627A00E4FDFCC3ED9FEC9E500A1262F70DBD00CF
:05628A00010C80EF2271
:0F62B500E4FFFE0FBF00010EBE06F8BFB2F522D8
:10624B00AD07AC06E4FBFAC3EB9DEA9C500A126265
:09625B00B50BBB00010A80EF2223
:102C4B00630004080000000000000000808080800A
:102C5B0080008000A0A0A000000000005050F850A1
:102C6B00F85050002078A07028F02000C0C8102029
:102C7B00409818006090A040A8906800C040800069
:102C8B0000000000204080808040200080402020F9
:102C9B0020408000005020F820500000002020F839
:102CAB00202000000000000000C04080000000F861
:102CBB00000000000000000000C0C0000008102051
:102CCB0040800000708898A8C88870002060202081
:102CDB0020207000708808304080F8007088083021
:102CEB000888700010305090F8101000F880F00831
:102CFB0008887000304080F088887000F808102039
:102D0B004040400070888870888870007088887890
:102D1B000810600000C0C000C0C000000000C0C0B0
:102D2B0000C0408010204080402010000000F800C0
:102D3B00F8000000804020102040800070880810B0
:102D4B002000200070880868A8A87000708888F898
:102D5B0088888800F08888F08888F00070888080E8
:102D6B0080887000E09088888890E000F88080F080
:102D7B008080F800F88080F08080800070888080F0
:102D8B0098887800888888F888888800E0404040D8
:102D9B004040E00038101010109060008890A0C0E8
:102DAB00A0908800808080808080F80088D8A8A8B8
:102DBB00888888008888C8A8988888007088888840
:102DCB0088887000F08888F0808080007088888800
:102DDB00A8906800F08888F0A090880070888070B8
:102DEB0008887000F8202020202020008888888800
:102DFB00888870008888888888502000888888A8F0
:102E0B00A8A85000888850205088880088885020B7
:102E1B0020202000F80810204080F800E0808080FF
:102E2B008080E0000080402010080000E02020207F
:102E3B002020E0002050880000000000000000006F
:102E4B00000000F880402000000000000000700827
:102E5B00788878008080B0C88888F0000000609087
:102E6B008090600008086898888878000000708857
:102E7B00F8807000205040E040404000000078880F
:102E8B00887808708080B0C88888880040004040EF
:102E9B004040400020006020202020C0808090A077
:102EAB00C0A09000C04040404040E0000000D0A8CF
:102EBB00A88888000000B0D090909000000060902F
:102ECB00909060000000E09090E080800000709097
:102EDB009070101000005060404040000000708067
:102EEB006010E0004040E0404040600000009090E7
:102EFB00909070000000888888502000000088881F
:102F0B00A8A8500000008850205088000000909026
:102F1B00907010600000F8102040F80020404080B6
:102F2B004040200040404040404040008040402016
:102F3B00404080006890000000000000F8F8F8F8AE
:042F4B00F8F8F8009A
:10566400900A84ECF0A3EDF0A3EBF0900A82EEF044
:10567400A3EFF0D39478EE940040037F0022D390FC
:105684000A85E09438900A84E0940040037F002265
:10569400900A86E0FFC394204006EFD3947F40062F
:1056A400900A867420F0900A86E024E0F0E4900AE0
:1056B40088F0900A88E0FFC3940840030257629080
:1056C4000A86E075F008A42408F582E5F03404F5B0
:1056D40083E5822FF582E43583F583E0900A87F031
:1056E400E4900A89F0900A89E0FFC39406504A7452
:1056F400DF2FF582E4340BF583E0FF900A87E05F47
:105704007005900BDE8003900BE7E05401900A8A49
:10571400F0900A82A3E0FFA3A3E0FD900A8AE0FBD5
:105724001260D3900A83E004F07006900A82E004C9
:10573400F0900A89E004F080AC900A85E004F070EF
:1057440006900A84E004F0900A83E024FAF0900AB8
:1057540082E034FFF0900A88E004F00256B67F013C
:015764002222
:10601700900A68EEF0A3EFF0A3ECF0A3EDF0A3EB8A
:10602700F0A3EAF0A3E9F0900A6CE0FBA3E0FAA37F
:10603700E0F9121AE66036900A68E0FEA3E0FFA3D3
:10604700E0FCA3E0FDA3E0FBA3E475F001121B7CD9
:10605700A9F0FA121AE6FB125664EF6010900A696B
:0E606700E02406F0900A68E03400F080BA22CF
:102F4F00630007080000000000000000183C3C1858
:102F5F001800180066662400000000006C6CFE6C00
:102F6F00FE6C6C00183E603C067C180000C6CC1846
:102F7F003066C600386C3876DCCC76001818300016
:102F8F00000000000C18303030180C0030180C0CFA
:102F9F000C18300000663CFF3C6600000018187EDD
:102FAF001818000000000000001818300000007E04
:102FBF00000000000000000000181800060C183078
:102FCF0060C08000386CC6C6C66C38001838181838
:102FDF0018187E007CC6061C3066FE007CC6063CB8
:102FEF0006C67C001C3C6CCCFE0C1E00FEC0C0FC58
:102FFF0006C67C003860C0FCC6C67C00FEC60C1836
:10300F00303030007CC6C67CC6C67C007CC6C67E0F
:10301F00060C780000181800001818000018180087
:10302F0000181830060C1830180C060000007E002F
:10303F00007E00006030180C183060007CC60C1841
:10304F00180018007CC6DEDEDEC07800386CC6FEC5
:10305F00C6C6C600FC66667C6666FC003C66C0C0E1
:10306F00C0663C00F86C6666666CF800FE626878B5
:10307F006862FE00FE6268786860F0003C66C0C05F
:10308F00CE663A00C6C6C6FEC6C6C6003C1818189D
:10309F0018183C001E0C0C0CCCCC7800E6666C7833
:1030AF006C66E600F06060606266FE00C6EEFEFED3
:1030BF00D6C6C600C6E6F6DECEC6C6007CC6C6C6F7
:1030CF00C6C67C00FC66667C6060F0007CC6C6C627
:1030DF00C6CE7C0EFC66667C6C66E6003C663018DD
:1030EF000C663C007E7E5A1818183C00C6C6C6C631
:1030FF00C6C67C00C6C6C6C6C66C3800C6C6C6D60F
:10310F00D6FE6C00C6C66C386CC6C6006666663CDA
:10311F0018183C00FEC68C183266FE003C3030306A
:10312F0030303C00C06030180C0602003C0C0C0C18
:10313F000C0C3C0010386CC60000000000000000B2
:10314F00000000FF30180C00000000000000780C99
:10315F007CCC7600E0607C666666DC0000007CC696
:10316F00C0C67C001C0C7CCCCCCC760000007CC68E
:10317F00FEC07C003C6660F86060F000000076CC1A
:10318F00CC7C0CF8E0606C766666E60018003818A8
:10319F0018183C00060006060666663CE060666C82
:1031AF00786CE6003818181818183C000000ECFE70
:1031BF00D6D6D6000000DC666666660000007CC6C8
:1031CF00C6C67C000000DC66667C60F0000076CC32
:1031DF00CC7C0C1E0000DC766060F00000007EC02E
:1031EF007C06FC003030FC3030361C000000CCCCAC
:1031FF00CCCC76000000C6C6C66C38000000C6D620
:10320F00D6FE6C000000C66C386CC6000000C6C647
:10321F00C67E06FC00007E4C18327E000E18187019
:10322F0018180E0018181818181818007018180EFB
:10323F001818700076DC000000000000FCFCFCFC9D
:04324F00FCFCFC0087
:10576500900A71ECF0A3EDF0A3EBF0900A6FEEF068
:10577500A3EFF0D39478EE940040037F0022D390FA
:105785000A72E09438900A71E0940040037F002289
:10579500900A73E0FFC394204006EFD3947F400640
:1057A500900A737420F0900A73E024E0F0E4900A04
:1057B50075F0900A75E0FFC39408400302586390A2
:1057C5000A73E075F008A42408F582E5F03407F5BE
:1057D50083E5822FF582E43583F583E0900A74F042
:1057E500E4900A76F0900A76E0FFC39408504A7474
:1057F500DF2FF582E4340BF583E0FF900A74E05F58
:105805007005900BDE8003900BE7E05401900A775A
:10581500F0900A6FA3E0FFA3A3E0FD900A77E0FBF9
:105825001260D3900A70E004F07006900A6FE004ED
:10583500F0900A76E004F080AC900A72E004F07013
:1058450006900A71E004F0900A70E024F8F0900ADE
:105855006FE034FFF0900A75E004F00257B77F015E
:015865002220
:10607500900A68EEF0A3EFF0A3ECF0A3EDF0A3EB2C
:10608500F0A3EAF0A3E9F0900A6CE0FBA3E0FAA321
:10609500E0F9121AE66036900A68E0FEA3E0FFA375
:1060A500E0FCA3E0FDA3E0FBA3E475F001121B7C7B
:1060B500A9F0FA121AE6FB125765EF6010900A690B
:0E60C500E02406F0900A68E03400F080BA2271
:105FA700900A82EEF0A3EFF0A3ECF0A3EDF0A3EAE2
:105FB700F0A3EBF0900A8AE0900AA8F01261B39080
:105FC7000A82A3E0FF900A88A3E0FD900A86A3E077
:105FD700FB900A8AE0900AA8F01261B3900A82A3A4
:105FE700E0FFA3A3E0FD900A88A3E0FBA3E0900AEB
:105FF7009AF0125AFB900A86A3E0FF900A84A3E066
:10600700FD900A88A3E0FBA3E0900A9AF0025AFBEE
:10555800900A84ECF0A3EDF0900A82EEF0A3EFF04D
:10556800900A86EAF0A3EBF0D3EF9BEE9A402790DF
:105578000A82E0FEA3E0FF900A8BEEF0A3EFF09022
:105588000A86E0FDA3E0900A82CDF0A3EDF0900A30
:1055980086EEF0A3EFF0900A88E0FEA3E0FF900A01
:1055A80084E0FCA3E0FDD39FEC9E4018900A8BECAE
:1055B800F0A3EDF0900A84EEF0A3EFF0900A88ECE7
:1055C800F0A3EDF0900A88E0FEA3E0FF900A84E0E3
:1055D800FCA3E0FDB5071BECB50617900A82A3E013
:1055E800FF900A86A3E0FB900A8AE0900AA8F002DE
:1055F80061B3900A86E0FEA3E0FF900A82E0FCA374
:10560800E0FDB50719ECB50615AF05A3A3E0FD90BD
:105618000A88A3E0FBA3E0900A9AF0025AFB900ADA
:1056280088E0FEA3E0FF900A84E0FCA3E0FDD39F9E
:10563800EC9E5027900A82A3E0FF900A86A3E0FB25
:10564800900A8AE0900AA8F01261B3900A85E004F3
:0C565800F07006900A84E004F080C32289
:105EA700900BF2EEF0A3EFF0A3ECF0A3EDF0A3EA72
:105EB700F0A3EBF04A606C900BF6E0FEA3E0FF90D6
:105EC7000BF3E02FFD900BF2E03EFCD3ED9480EC5A
:105ED7009400504F900BF4E0FCA3E0FD2FFFEC3E45
:105EE700FED3EF9440EE94005039900BF6E0FEA3FA
:105EF700E0FF900BF2E0FAA3E02FFBEA3EFA900BEB
:105F0700F4E0F8A3E02FFFE83E900A88F0A3EFF053
:105F1700900BF8E0900A8AF0900BF2E0FEA3E0FF06
:045F2700125FA7223C
:104ABA00900BC8E0FCA3E0FD900BD1E0FAA3E0FB69
:104ACA00A3E0FFA3E0900A88CFF0A3EFF0900BD009
:0D4ADA00E0900A8AF0900BC6E0FEA3E0FF1A
:104AE700900A82EEF0A3EFF0A3ECF0A3EDF0A3EAB7
:104AF700F0A3EBF0900A82E0FEA3E0FFC3EB9FFF79
:104B0700EA9E900A8BF0FAA3EFF0FB900A84E0FE8E
:104B1700A3E0FFC3900A89E09FFF900A88E09E9078
:104B27000A8DF0A3EFF0D3EB9400EA648094804001
:104B370006A37401F0802CC3900A8BE064809480F4
:104B47005008900A8F74FFF08019900A82A3E0FF43
:104B5700A3A3E0FD900A88A3E0FBA3E0900A9AF0E4
:104B6700025AFB900A8DE0FEA3E0D39400EE648026
:104B770094804008900A907401F08029C3EE648005
:104B870094805008900A9074FFF08019900A82A3CD
:104B9700E0FFA3A3E0FDA3A3E0FB900A8AE0900A4D
:104BA700A8F00261B3900A8FE0FF3395E0FE900A08
:104BB7008BE0FCA3E0FD121AFF900A8BEEF0A3EF47
:104BC700F0900A90E0FF3395E0FE900A8DE0FCA399
:104BD700E0FD121AFF900A8DEEF0A3EFF0900A8B1A
:104BE700E0FCA3E0FD25E0FEEC33900A91F0A3CEB4
:104BF700F0900A8DE0FAA3E0FB25E0FEEA33900A85
:104C070093F0A3CEF0C3ED9BEA6480F8EC64809840
:104C17005003024CCA900A8BE0FEA3E0FF900A946F
:104C2700E09FFF900A93E09E900A95F0A3EFF09023
:104C37000A86E0FEA3E0FF900A82E0FCA3E0FD6F96
:104C47007002EC6E7003024D76AF05A3A3E0FD90F2
:104C57000A8AE0FB1260D3900A8FE0FF3395E0FEEB
:104C6700900A83E02FF0900A82E03EF0C3900A9505
:104C7700E0648094805013900A93E0FEA3E0FF90D5
:104C87000A96E02FF0900A958033900A91E0FEA3F0
:104C9700E0FFC3900A94E09FFF900A93E09EFE9086
:104CA7000A96E02FF0900A95E03EF0900A90E0FF18
:104CB7003395E0FE900A85E02FF0900A84E03EF0FD
:104CC700024C36900A8DE0FEA3E0FFC3900A92E003
:104CD7009FFF900A91E09E900A95F0A3EFF0900A4B
:104CE70088E0FEA3E0FF900A84E0FCA3E0FD6F707C
:104CF70002EC6E607A900A82A3E0FF900A8AE0FBDA
:104D07001260D3900A90E0FF3395E0FE900A85E0A9
:104D17002FF0900A84E03EF0C3900A95E0648094F7
:104D2700805013900A91E0FEA3E0FF900A96E02FCF
:104D3700F0900A958033900A93E0FEA3E0FFC390BA
:104D47000A92E09FFF900A91E09EFE900A96E02F5C
:104D5700F0900A95E03EF0900A8FE0FF3395E0FE71
:104D6700900A83E02FF0900A82E03EF0024CE59033
:104D77000A82A3E0FFA3A3E0FD900A8AE0FB12608A
:024D8700D32235
:10425C00900B11EEF0A3EFF0A3ECF0A3EDF0A3EABA
:10426C00F0A3EBF04A70030246B8900B11E0FEA3EA
:10427C00E0FF900B1CEEF0A3EFF0900B18EEF0A308
:10428C00EFF0900B15E0FEA3E0FF900B14E02FFF76
:10429C00900B13E03EFE900B1EF0A3EFF0900B1A68
:1042AC00EEF0A3EFF0C39440EE6480948050129033
:1042BC000B18A3E0FFA3A3E0FD900B17E0FB12602B
:1042CC00D3900B11E0FEA3E0FF900B24EEF0A3EFD4
:1042DC00F0900B20EEF0A3EFF0900B15E0FEA3E0B6
:1042EC00FFC3900B14E09FFF900B13E09EFE900B0E
:1042FC0026F0A3EFF0900B22EEF0A3EFF0C3EE64E8
:10430C008094804012900B20A3E0FFA3A3E0FD90CB
:10431C000B17E0FB1260D3900B15E0FEA3E0FF90AF
:10432C000B12E02FFF900B11E03EFE900B30F0A330
:10433C00EFF0900B28EEF0A3EFF0900B13E0FCA342
:10434C00E0FD900B32ECF0A3EDF0900B2AECF0A317
:10435C00EDF0C3EF9480EE648094805012900B28A3
:10436C00A3E0FFA3A3E0FD900B17E0FB1260D3903A
:10437C000B15E0FEA3E0FFC3900B12E09FFF900B28
:10438C0011E09EFE900B34F0A3EFF0900B2CEEF0AE
:10439C00A3EFF0900B13E0FCA3E0FD900B36ECF0D8
:1043AC00A3EDF0900B2EECF0A3EDF0C3EE64809433
:1043BC00804012900B2CA3E0FFA3A3E0FD900B1701
:1043CC00E0FB1260D3900B15E07004A3E064017065
:1043DC00030246B8900B15E0FCA3E0FD25E0FFECD2
:1043EC0033FEC374039F900B3DF0E49E900B3CF0A6
:1043FC00E4900B38F0A3F0A3ECF0A3EDF0900B3AA3
:10440C00E0FCA3E0FD900B38E0FAA3E0FBC39DECCD
:10441C006480F8EA64809840030246B8C3900B3C71
:10442C00E0648094805021EBAE027802C333CE332B
:10443C00CED8F92406FFE43EFE900B3DE02FF09021
:10444C000B3CE03EF00244F5C3EB9DFFEA9CFEEF13
:10445C007802C333CE33CED8F9240AFFE43EFE9063
:10446C000B3DE02FF0900B3CE03EF0900B3BE0243A
:10447C00FFF0900B3AE034FFF0900B1BE024FFF0C0
:10448C00900B1AE034FFF0900B1FE024FFF0900B20
:10449C001EE034FFF0900B23E004F07006900B222A
:1044AC00E004F0900B27E004F07006900B26E0047B
:1044BC00F0900B29E024FFF0900B28E034FFF090F3
:1044CC000B2DE004F07006900B2CE004F0900B31F7
:1044DC00E024FFF0900B30E034FFF0900B35E0045B
:1044EC00F07006900B34E004F0900B39E004F0709F
:1044FC0006900B38E004F0900B19E004F070069075
:10450C000B18E004F0900B1DE024FFF0900B1CE066
:10451C0034FFF0900B21E004F07006900B20E004C7
:10452C00F0900B25E024FFF0900B24E034FFF0908A
:10453C000B2BE004F07006900B2AE004F0900B2F8C
:10454C00E004F07006900B2EE004F0900B33E024A6
:10455C00FFF0900B32E034FFF0900B37E024FFF0CB
:10456C00900B36E034FFF0900B18E0FEA3E0FFD385
:10457C009480EE648094805016A3E0FCA3E0FDC30D
:10458C00EC648094804008900B17E0FB1260D39091
:10459C000B1CE0FEA3E0FFC3EE648094804015A3E7
:1045AC00E0FCA3E0FDEC648094804008900B17E0E5
:1045BC00FB1260D3900B20E0FEA3E0FFD39480EEBF
:1045CC00648094805017A3E0FCA3E0FD9440EC645D
:1045DC008094805008900B17E0FB1260D3900B2452
:1045EC00E0FEA3E0FFC3EE648094804018A3E0FCDF
:1045FC00A3E0FDD39440EC648094805008900B179A
:10460C00E0FB1260D3900B28E0FEA3E0FFD3948074
:10461C00EE648094805016A3E0FCA3E0FDC3EC6430
:10462C008094804008900B17E0FB1260D3900B2C09
:10463C00E0FEA3E0FFC3EE648094804015A3E0FC91
:10464C00A3E0FDEC648094804008900B17E0FB1213
:10465C0060D3900B30E0FEA3E0FFD39480EE648037
:10466C0094805017A3E0FCA3E0FD9440EC6480948C
:10467C00805008900B17E0FB1260D3900B34E0FED7
:10468C00A3E0FFC3EE648094805003024409A3E0CE
:10469C00FCA3E0FDD39440EC64809480400302447E
:0D46AC0009900B17E0FB1260D302440922B5
:101EEB00900ADEEEF0A3EFF0A3ECF0A3EDF0A3EA83
:101EFB00F0A3EBF04A700302261E900ADEE0FEA36D
:101F0B00E0FF900AE9EEF0A3EFF0900AE5EEF0A304
:101F1B00EFF0900AE2E0FEA3E0FF900AE1E02FFF72
:101F2B00900AE0E03EFE900AEBF0A3EFF0900AE798
:101F3B00EEF0A3EFF0C39440EE64809480501290C7
:101F4B000AE5A3E0FFA3A3E0FD900AE4E0FB126027
:101F5B00D3900ADEE0FEA3E0FF900AF1EEF0A3EFD0
:101F6B00F0900AEDEEF0A3EFF0900AE2E0FEA3E0B2
:101F7B00FFC3900AE1E09FFF900AE0E09EFE900A0B
:101F8B00F3F0A3EFF0900AEFEEF0A3EFF0C3EE64E3
:101F9B008094804012900AEDA3E0FFA3A3E0FD9094
:101FAB000AE4E0FB1260D3900AE2E0FEA3E0FF90AC
:101FBB000ADFE02FFF900ADEE03EFE900AFDF0A361
:101FCB00EFF0900AF5EEF0A3EFF0900AE0E0FCA33F
:101FDB00E0FD900AFFECF0A3EDF0900AF7ECF0A314
:101FEB00EDF0C3EF9480EE648094805023900AF55B
:101FFB00A3E0FFA3A3E0FD900AE4E0FB1260D39003
:10200B000AF5E0FFA3E0900B09CFF0A3EFF08009F6
:10201B00900B09E4F0A37480F0900AE0E0FFA3E0DA
:10202B00900B07CFF0A3EFF0900AE2E0FEA3E0FFE6
:10203B00C3900ADFE09FFF900ADEE09EFE900B0547
:10204B00F0A3EFF0C3EE648094805007E4900B058F
:10205B00F0A3F0900B05A3E0FFA3A3E0FDA3A3E087
:10206B00FB900AE4E0900AA8F01261B3900AE2E058
:10207B00FEA3E0FFC3900ADFE09FFF900ADEE09E25
:10208B00FE900B01F0A3EFF0900AF9EEF0A3EFF046
:10209B00900AE0E0FCA3E0FD900B03ECF0A3EDF065
:1020AB00900AFBECF0A3EDF0C3EE64809480401239
:1020BB00900AF9A3E0FFA3A3E0FD900AE4E0FB1272
:1020CB0060D3900AE2E07004A3E06401700302267F
:1020DB001E900AE2E0FCA3E0FD25E0FFEC33FEC31B
:1020EB0074039F900B10F0E49E900B0FF0E4900B99
:1020FB000BF0A3F0A3ECF0A3EDF0900B0DE0FCA321
:10210B00E0FD900B0BE0FAA3E0FBC39DEC6480F8C1
:10211B00EA648098400302261EC3900B0FE0648094
:10212B0094805021EBAE027802C333CE33CED8F974
:10213B002406FFE43EFE900B10E02FF0900B0FE017
:10214B003EF00221F1C3EB9DFFEA9CFEEF7802C348
:10215B0033CE33CED8F9240AFFE43EFE900B10E0C9
:10216B002FF0900B0FE03EF0900B0EE024FFF09061
:10217B000B0DE034FFF0900AE8E024FFF0900AE743
:10218B00E034FFF0900AECE024FFF0900AEBE0342F
:10219B00FFF0900AF0E004F07006900AEFE004F014
:1021AB00900AF4E004F07006900AF3E004F0900A51
:1021BB00F6E024FFF0900AF5E034FFF0900AFAE025
:1021CB0004F07006900AF9E004F0900AFEE024FF98
:1021DB00F0900AFDE034FFF0900B02E004F0700683
:1021EB00900B01E004F0900B0CE004F07006900BE8
:1021FB000BE004F0900AE6E004F07006900AE5E0CC
:10220B0004F0900AEAE024FFF0900AE9E034FFF0D2
:10221B00900AEEE004F07006900AEDE004F0900AEC
:10222B00F2E024FFF0900AF1E034FFF0900AF8E0BE
:10223B0004F07006900AF7E004F0900AFCE004F05A
:10224B007006900AFBE004F0900B00E024FFF09086
:10225B000AFFE034FFF0900B04E024FFF0900B0337
:10226B00E034FFF0900AE5E0FEA3E0FFD39480EEAC
:10227B00648094805016A3E0FCA3E0FDC3EC648063
:10228B0094804008900AE4E0FB1260D3900AE9E0E6
:10229B00FEA3E0FFC3EE648094804015A3E0FCA393
:1022AB00E0FDEC648094804008900AE4E0FB12604F
:1022BB00D3900AE9E0FEA3E0FFC3EE648094805064
:1022CB0003022358900B05EEF0A3EFF0900AEBE01E
:1022DB00FEA3E0FF900B07EEF0A3EFF0D39440EEDC
:1022EB00648094804009900B07E4F0A37440F0C322
:1022FB00900B07E0648094805004E4F0A3F0900A04
:10230B00DFE025E0FF900ADEE033FE900AE9E0FC17
:10231B00A3E0FDC3EF9DFFEE9CFE900B09F0A3EF36
:10232B00F0D39480EE648094804009900B09E4F024
:10233B00A37480F0900B05A3E0FFA3A3E0FDA3A380
:10234B00E0FB900AE4E0900AA8F01261B3900AED6A
:10235B00E0FEA3E0FFD39480EE648094805017A33B
:10236B00E0FCA3E0FD9440EC648094805008900A5C
:10237B00E4E0FB1260D3900AF1E0FEA3E0FFC3EEB2
:10238B00648094804018A3E0FCA3E0FDD39440EC60
:10239B00648094805008900AE4E0FB1260D3900AAA
:1023AB00F1E0FEA3E0FFC3EE6480948050030224AF
:1023BB0045900B05EEF0A3EFF0900AF3E0FEA3E0DF
:1023CB00FF900B07EEF0A3EFF0D39440EE648094F4
:1023DB00804009900B07E4F0A37440F0C3900B0707
:1023EB00E0648094805004E4F0A3F0900ADFE025D1
:1023FB00E0FF900ADEE033FE900AF1E0FCA3E0FD83
:10240B00C3EF9DFFEE9CFE900B09F0A3EFF0D3946E
:10241B0080EE648094804009900B09E4F0A37480F3
:10242B00F0900B05A3E0FFA3A3E0FDA3A3E0FB90BB
:10243B000AE4E0900AA8F01261B3900AF5E0FEA35B
:10244B00E0FFD39480EE648094805016A3E0FCA34D
:10245B00E0FDC3EC648094804008900AE4E0FB123A
:10246B0060D3900AF9E0FEA3E0FFC3EE6480948092
:10247B004015A3E0FCA3E0FDEC6480948040089041
:10248B000AE4E0FB1260D3900AF9E0FEA3E0FFC37D
:10249B00EE64809480500302252E900B05EEF0A382
:1024AB00EFF0900AFBE0FEA3E0FF900B07EEF0A32A
:1024BB00EFF0D39440EE648094804009900B07E4D6
:1024CB00F0A37440F0C3900B07E064809480500439
:1024DB00E4F0A3F0900ADFE025E0FF900ADEE033A2
:1024EB00FE900AF9E0FCA3E0FDC3EF9DFFEE9CFE1E
:1024FB00900B09F0A3EFF0D39480EE6480948040AE
:10250B0009900B09E4F0A37480F0900B05A3E0FF96
:10251B00A3A3E0FDA3A3E0FB900AE4E0900AA8F0DC
:10252B001261B3900AFDE0FEA3E0FFD39480EE644A
:10253B008094805017A3E0FCA3E0FD9440EC6480F2
:10254B0094805008900AE4E0FB1260D3900B01E0FA
:10255B00FEA3E0FFC3EE648094804018A3E0FCA3CD
:10256B00E0FDD39440EC648094805008900AE4E042
:10257B00FB1260D3900B01E0FEA3E0FFC3EE64807F
:10258B0094805003022105900B05EEF0A3EFF09021
:10259B000B03E0FEA3E0FF900B07EEF0A3EFF0D3ED
:1025AB009440EE648094804009900B07E4F0A37490
:1025BB0040F0C3900B07E0648094805004E4F0A3D8
:1025CB00F0900ADFE025E0FF900ADEE033FE900B8F
:1025DB0001E0FCA3E0FDC3EF9DFFEE9CFE900B0919
:1025EB00F0A3EFF0D39480EE648094804009900BBD
:1025FB0009E4F0A37480F0900B05A3E0FFA3A3E024
:10260B00FDA3A3E0FB900AE4E0900AA8F01261B3EB
:04261B000221052271
:10326A00900A76EEF0A3EFF0A3ECF0A3EDF0900A4B
:10327A0078E0FEA3E0FF900A76E06E7003A3E06FA9
:10328A007003023817900A7CE06A7003A3E06B703F
:10329A0003023817900A78E0FEA3E0FF900A77E06D
:1032AA002FFF900A76E03EC313FEEF13FF900A93B6
:1032BA00EEF0A3EFF0900A7DE02BFF900A7CE03A53
:1032CA00C313FEEF13FF900A95EEF0A3EFF0900AF6
:1032DA0078E0FEA3E0FF900A76E0FCA3E0FDD39F2E
:1032EA00EC9E4006ED9FFFEC8013900A76E0FEA369
:1032FA00E0FFC3900A79E09FFF900A78E09EC3132B
:10330A00FEEF13FF900A97EEF0A3EFF0900A7CE02D
:10331A00FEA3E0FFC39BEE9A5008C3EB9FFFEA9E11
:10332A00800CC3900A7DE09BFF900A7CE09AC3134D
:10333A00FEEF13FF900A99EEF0A3EFF0900A97E0E0
:10334A00FCA3E0FDFFAE04121AFF900A9BEEF0A365
:10335A00EFF0900A99E0FCA3E0FDFFAE04121AFF19
:10336A00900A9DEEF0A3EFF0900A9CE025E0FE9013
:10337A000A9BE033900A9FF0A3CEF0900A9EE025C4
:10338A00E0FE900A9DE033900AA1F0A3CEF0E4900B
:10339A000A8FF0A3F0900A91ECF0A3EDF0900A9F47
:1033AA00E0FEA3E0FF121AFF900A9BE0FCA3E0FDF7
:1033BA00900AA2E02DFD900AA1E03CCDC39FFFED4B
:1033CA009E900AA3F0A3EFF0900A93E0FEA3E0FF19
:1033DA00900A8BEEF0A3EFF0900A87EEF0A3EFF0DD
:1033EA00900A83EEF0A3EFF0900A7FEEF0A3EFF0DD
:1033FA00900A99E0FEA3E0FF900A95E0FCA3E0FDA5
:10340A002FFBEC3EFA900A85F0A3EBF0900A81EAD2
:10341A00F0A3EBF0C3ED9FFFEC9EFE900A8DF0A3A4
:10342A00EFF0900A89EEF0A3EFF0900A7FA3E0FF95
:10343A00A3A3E0FD900A7EE0FB1260D3900A870204
:10344A0035DB900A91E0FCA3E0FD900A9BE0FEA325
:10345A00E0FF121AFFAA06AB07900A8FE0FCA3E06E
:10346A00FD900A9DE0FEA3E0FF121AFFC3EF9BEA5C
:10347A006480F8EE64809840030235EDC3900AA395
:10348A00E064809480502E900A90E025E0FF900A34
:10349A008FE033FEEF2403FFE43EFE900AA1E0FC36
:1034AA00A3E0FD121AFF900AA4E02FF0900AA3E00D
:1034BA003EF002355C900A90E025E0FF900A8FE02A
:1034CA0033FEEF2403FFE43EFE900AA1E0FCA3E0F2
:1034DA00FD121AFFAC06AD07900A9BE0FEA3E07846
:1034EA0002C333CE33CED8F9FF2DFBEC3EFA900A55
:1034FA0091E0FCA3E0FD121AFFC3EB9FFFEA9EFED8
:10350A00900AA4E02FF0900AA3E03EF0900A92E01D
:10351A0024FFF0900A91E034FFF0900A82E024FF41
:10352A00F0900A81E034FFF0900A86E024FFF090E0
:10353A000A85E034FFF0900A8AE004F07006900AE7
:10354A0089E004F0900A8EE004F07006900A8DE09B
:10355A0004F0900A90E004F07006900A8FE004F0FC
:10356A00900A80E004F07006900A7FE004F0900A66
:10357A0084E024FFF0900A83E034FFF0900A88E0A8
:10358A0004F07006900A87E004F0900A8CE024FFA9
:10359A00F0900A8BE034FFF0900A7FA3E0FFA3A328
:1035AA00E0FD900A7EE0FB1260D3900A83A3E0FF5D
:1035BA00A3A3E0FD900A7EE0FB1260D3900A87A3E2
:1035CA00E0FFA3A3E0FD900A7EE0FB1260D3900A1D
:1035DA008BA3E0FFA3A3E0FD900A7EE0FB1260D379
:1035EA0002344C900A92E024FFFB900A91E034FFE7
:1035FA00FA900A9FE0FCA3E0FDAF03AE02121AFFA5
:10360A00AC06AD07AF03AE02121AFFAA06AB0790CB
:10361A000A8FE0FCA3E0FD900AA1E0FEA3E0FF12FE
:10362A001AFF121AFFEB2FFFEA3EFE900A9EE02FC6
:10363A00FB900A9DE03EFA900AA1E0FEA3E0FF1289
:10364A001AFFEF2BFBEE3AFA900A9DE0FCA3E0FD8D
:10365A00A3E0FEA3E0FF121AFFC3EB9FFFEA9E90CE
:10366A000AA3F0A3EFF0C3900A91E064809480501B
:10367A0003023817900AA3E064809480400302375B
:10368A0048900A9DE0FEA3E07802C333CE33CED839
:10369A00F9FF900A8FE0FCA3E0FD121AFFAA06AB1D
:1036AA0007900A9FE0FEA3E0FF7C007D03121AFF49
:1036BA00EF2BFDEE3AFC900A9DE0FEA3E07802C3F0
:1036CA0033CE33CED8F92DFBEC3EFA900AA0E02592
:1036DA00E0FF900A9FE033FE900A91E0FCA3E0FD30
:1036EA00121AFFC3EB9FFFEA9EFE900AA4E02FF096
:1036FA00900AA3E03EF0900A90E004F07006900A67
:10370A008FE004F0900A80E004F07006900A7FE0EF
:10371A0004F0900A84E024FFF0900A83E034FFF07A
:10372A00900A88E004F07006900A87E004F0900A94
:10373A008CE024FFF0900A8BE034FFF0803E900A80
:10374A00A0E025E0FF900A9FE033FE900A91E0FC9A
:10375A00A3E0FD121AFFAA06AB07900A9FE0FEA398
:10376A00E0FF7C007D03121AFFC3EF9BFFEE9AFE77
:10377A00900AA4E02FF0900AA3E03EF0900A92E0AB
:10378A0024FFF0900A91E034FFF0900A82E024FFCF
:10379A00F0900A81E034FFF0900A86E024FFF0906E
:1037AA000A85E034FFF0900A8AE004F07006900A75
:1037BA0089E004F0900A8EE004F07006900A8DE029
:1037CA0004F0900A7FA3E0FFA3A3E0FD900A7EE045
:1037DA00FB1260D3900A83A3E0FFA3A3E0FD900A43
:1037EA007EE0FB1260D3900A87A3E0FFA3A3E0FD6B
:1037FA00900A7EE0FB1260D3900A8BA3E0FFA3A39A
:0E380A00E0FD900A7EE0FB1260D302367022D1
:10261F00900A76EEF0A3EFF0A3ECF0A3EDF0900AA2
:10262F0078E0FEA3E0FF900A76E06E7003A3E06F00
:10263F007003022C4A900A7CE06A7003A3E06B706F
:10264F0003022C4A900A78E0FEA3E0FF900A77E09D
:10265F002FFF900A76E03EC313FEEF13FF900A930D
:10266F00EEF0A3EFF0900A7DE02BFF900A7CE03AAA
:10267F00C313FEEF13FF900A95EEF0A3EFF0900A4D
:10268F0078E0FEA3E0FF900A76E0FCA3E0FDD39F85
:10269F00EC9E4006ED9FFFEC8013900A76E0FEA3C0
:1026AF00E0FFC3900A79E09FFF900A78E09EC31382
:1026BF00FEEF13FF900A97EEF0A3EFF0900A7CE085
:1026CF00FEA3E0FFC39BEE9A5008C3EB9FFFEA9E69
:1026DF00800CC3900A7DE09BFF900A7CE09AC313A5
:1026EF00FEEF13FF900A99EEF0A3EFF0900A97E038
:1026FF00FCA3E0FDFFAE04121AFF900A9BEEF0A3BD
:10270F00EFF0900A99E0FCA3E0FDFFAE04121AFF70
:10271F00900A9DEEF0A3EFF0900A9CE025E0FE906A
:10272F000A9BE033900A9FF0A3CEF0900A9EE0251B
:10273F00E0FE900A9DE033900AA1F0A3CEF0E49062
:10274F000A8FF0A3F0900A91ECF0A3EDF0900A9F9E
:10275F00E0FEA3E0FF121AFF900A9BE0FCA3E0FD4E
:10276F00900AA2E02DFD900AA1E03CCDC39FFFEDA2
:10277F009E900AA3F0A3EFF0900A93E0FEA3E0FF70
:10278F00900A8BEEF0A3EFF0900A87EEF0A3EFF034
:10279F00900A83EEF0A3EFF0900A7FEEF0A3EFF034
:1027AF00900A99E0FEA3E0FF900A95E0FCA3E0FDFC
:1027BF002FFBEC3EFA900A85F0A3EBF0900A81EA2A
:1027CF00F0A3EBF0C3ED9FFFEC9EFE900A8DF0A3FC
:1027DF00EFF0900A89EEF0A3EFF0900A7FA3E0FFED
:1027EF00A3A3E0FD900A7EE0FB1260D3900A87A3BB
:1027FF00E0FFA3A3E0FD900A7EE0FB1260D3900AF6
:10280F0091E0FCA3E0FD900A9BE0FEA3E0FF121A0B
:10281F00FFAA06AB07900A8FE0FCA3E0FD900A9D8C
:10282F00E0FEA3E0FF121AFFC3EF9BEA6480F8EE0D
:10283F0064809840030229EEC3900AA3E064809459
:10284F0080502E900A90E025E0FF900A8FE033FE33
:10285F00EF2403FFE43EFE900AA1E0FCA3E0FD128B
:10286F001AFF900AA4E02FF0900AA3E03EF002298D
:10287F001D900A90E025E0FF900A8FE033FEEF24D1
:10288F0003FFE43EFE900AA1E0FCA3E0FD121AFF55
:10289F00AC06AD07900A9BE0FEA3E07802C333CEEF
:1028AF0033CED8F9FF2DFBEC3EFA900A91E0FCA352
:1028BF00E0FD121AFFC3EB9FFFEA9EFE900AA4E011
:1028CF002FF0900AA3E03EF0900A92E024FFF090E0
:1028DF000A91E034FFF0900A82E024FFF0900A8121
:1028EF00E034FFF0900A86E024FFF0900A85E03490
:1028FF00FFF0900A8AE004F07006900A89E004F075
:10290F00900A8EE004F07006900A8DE004F0900AB1
:10291F0090E004F07006900A8FE004F0900A80E0D7
:10292F0004F07006900A7FE004F0900A84E024FF20
:10293F00F0900A83E034FFF0900A88E004F070060C
:10294F00900A87E004F0900A8CE024FFF0900A8B45
:10295F00E034FFF0900A7FA3E0FFA3A3E0FD900A0D
:10296F007EE0FB1260D3900A83A3E0FFA3A3E0FDF8
:10297F00900A7EE0FB1260D3900A87A3E0FFA3A327
:10298F00E0FD900A7EE0FB1260D3900A8BA3E0FF7C
:10299F00A3A3E0FD900A7EE0FB1260D3C3900AA3CD
:1029AF00E064809480500302280D900A7FA3E0FF1B
:1029BF00A3A3E0FDA3A3E0FB900A7EE0900AA8F09A
:1029CF001261B3900A87A3E0FFA3A3E0FDA3A3E0E6
:1029DF00FB900A7EE0900AA8F01261B302280D90D6
:1029EF000A92E024FFFB900A91E034FFFA900A9FCD
:1029FF00E0FCA3E0FDAF03AE02121AFFAC06AD0779
:102A0F00AF03AE02121AFFAA06AB07900A8FE0FCC3
:102A1F00A3E0FD900AA1E0FEA3E0FF121AFF121A35
:102A2F00FFEB2FFFEA3EFE900A9EE02FFB900A9DE0
:102A3F00E03EFA900AA1E0FEA3E0FF121AFFEF2B8F
:102A4F00FBEE3AFA900A9DE0FCA3E0FDA3E0FEA3A3
:102A5F00E0FF121AFFC3EB9FFFEA9E900AA3F0A3B9
:102A6F00EFF0C3900A91E0648094805003022C4AE7
:102A7F00900AA3E0648094804003022B49900A9D42
:102A8F00E0FEA3E07802C333CE33CED8F9FF900A2D
:102A9F008FE0FCA3E0FD121AFFAA06AB07900A9F76
:102AAF00E0FEA3E0FF7C007D03121AFFEF2BFDEE8B
:102ABF003AFC900A9DE0FEA3E07802C333CE33CEFA
:102ACF00D8F92DFBEC3EFA900AA0E025E0FF900A22
:102ADF009FE033FE900A91E0FCA3E0FD121AFFC3C2
:102AEF00EB9FFFEA9EFE900AA4E02FF0900AA3E06E
:102AFF003EF0900A90E004F07006900A8FE004F028
:102B0F00900A80E004F07006900A7FE004F0900ACB
:102B1F0084E024FFF0900A83E034FFF0900A88E00D
:102B2F0004F07006900A87E004F0900A8CE024FF0E
:102B3F00F0900A8BE034FFF0803E900AA0E025E091
:102B4F00FF900A9FE033FE900A91E0FCA3E0FD1294
:102B5F001AFFAA06AB07900A9FE0FEA3E0FF7C00D6
:102B6F007D03121AFFC3EF9BFFEE9AFE900AA4E0BB
:102B7F002FF0900AA3E03EF0900A92E024FFF0902D
:102B8F000A91E034FFF0900A82E024FFF0900A816E
:102B9F00E034FFF0900A86E024FFF0900A85E034DD
:102BAF00FFF0900A8AE004F07006900A89E004F0C2
:102BBF00900A8EE004F07006900A8DE004F0900AFF
:102BCF007FA3E0FFA3A3E0FD900A7EE0FB1260D39A
:102BDF00900A83A3E0FFA3A3E0FD900A7EE0FB121F
:102BEF0060D3900A87A3E0FFA3A3E0FD900A7EE0E5
:102BFF00FB1260D3900A8BA3E0FFA3A3E0FD900A22
:102C0F007EE0FB1260D3900A7FA3E0FFA3A3E0FD59
:102C1F00A3A3E0FB900A7EE0900AA8F01261B390A4
:102C2F000A87A3E0FFA3A3E0FDA3A3E0FB900A7E26
:0C2C3F00E0900AA8F01261B3022A712292
:10000300900BC6EEF0A3EFF0A3ECF0A3EDF0A3EAA0
:10001300F0A3EBF04A7003020C59900BCEE0FEA361
:10002300E0FF900BCCE0FCA3E0FD6F7002EC6E7080
:1000330003020C59C3ED9468EC94014003020C597C
:10004300C3EF9468EE94014003020C59900BCAE08D
:10005300FCA3E0FD25E0FFEC33FE121AFF900BD961
:10006300EEF0A3EFF0E4A3F0A3F0900BCAE0FFA33C
:10007300E0900BD5CFF0A3EFF0E4A3F0A3F0900B47
:10008300DCE004F07006900BDBE004F0900BD8E0AA
:1000930004F07006900BD7E004F0900BD7E0FCA3BC
:1000A300E0FD25E0FFEC33FE121AFFAA06AB079032
:1000B3000BD5E0FCA3E0FD25E0FFEC33FE121AFFB5
:1000C300EF2BFFEE3AFE900BD9E0FCA3E0FDC3EF6C
:1000D3009DFDEE9CFC900BD6E025E0FF900BD5E058
:1000E30033FEC3ED9FFFEC9ECF2401CF3400FED33C
:1000F300EF9400EE64809480400CA3E024FFF09022
:100103000BD5E034FFF0900BD5E0FEA3E0FFC390E6
:100113000BD8E09FEE6480F8900BD7E06480985092
:1001230003020081E4900BDDF0900BCCE0FEA3E032
:10013300FFD3900BCFE09F900BCEE09E4006900B39
:10014300DD7401F0C374689FFF74019EFE900BDBA6
:10015300E0FAA3E0FBFDAC02121AFF7C007D2D1236
:100163001B11900BCCEEF0A3EFF0A3E0FEA3E0FF96
:10017300C374689FFF74019EFEAD03AC02121AFFA5
:100183007C007D2D121B11900BCEEEF0A3EFF090AF
:100193000BCCE07002A3E07007900BCCF0A304F04B
:1001A300900BCEE07002A3E07007900BCEF0A30497
:1001B300F0E4900BDBF0A3F0900BCAE0FAA3E0FBB2
:1001C300900BC7E02BFE900BC6E03A900BD1F0A347
:1001D300CEF0900BC8E0FFA3E0900BD3CFF0A3EFDA
:1001E300F0A3EAF0A3EBF0E4A3F0A3F0900BD8E0C4
:1001F30004F07006900BD7E004F0900BD4E024FFDA
:10020300F0900BD3E034FFF0900BD7E0FCA3E0FDBC
:1002130025E0FFEC33FE121AFFAA06AB07900BD5BD
:10022300E0FCA3E0FD25E0FFEC33FE121AFFEF2B09
:10023300FFEE3AFE900BD9E0FCA3E0FDC3EF9DFD7A
:10024300EE9CFC900BD6E025E0FF900BD5E033FE4F
:10025300C3ED9FFFEC9ECF2401CF3400FED3EF9478
:1002630000EE64809480401AA3E024FFF0900BD545
:10027300E034FFF0900BD2E024FFF0900BD1E03498
:10028300FFF0900BDDE0B40112900BD1A3E0FFA3CC
:10029300A3E0FD900BD0E0FB1260D3900BDCE004F5
:1002A300F07006900BDBE004F0900BCCE0FEA3E0D3
:1002B300FF900BDBE0FCA3E0FD6F7002EC6E6010BF
:1002C300900BCEE0FEA3E0FFED6F7002EC6E7023A7
:1002D300900BDDE0FFC374019FFFF0BF0112900B91
:1002E300D1A3E0FFA3A3E0FD900BD0E0FB1260D30A
:1002F300124ABA900BD5E0FEA3E0FFC3900BD8E0FF
:100303009FEE6480F8900BD7E0648098500302015D
:10031300EF900BDDE0B40112900BD1A3E0FFA3A398
:10032300E0FD900BD0E0FB1260D3900BD6E024FFEE
:10033300F0900BD5E034FFF0900BD2E024FFF09067
:100343000BD1E034FFF0900BD7E0FCA3E0FD25E0F8
:10035300FFEC33FE121AFFAA06AB07900BD5E0FCA5
:10036300A3E0FD25E0FFEC33FE121AFFEF2BFFEEB7
:100373003AFE900BD9E0FCA3E0FDC3EF9DFDEE9C9C
:10038300FC900BD8E025E0FF900BD7E033FEED2F78
:10039300FFEC3ECF2401CF3400FED3EF9400EE6494
:1003A300809480501AA3E004F07006900BD7E00409
:1003B300F0900BD4E024FFF0900BD3E034FFF090E7
:1003C3000BDDE0B40112900BD1A3E0FFA3A3E0FD8A
:1003D300900BD0E0FB1260D3900BDCE004F07006CE
:1003E300900BDBE004F0900BCCE0FEA3E0FF900B5E
:1003F300DBE0FCA3E0FD6F7002EC6E6010900BCEAF
:10040300E0FEA3E0FFED6F7002EC6E7023900BDD56
:10041300E0FFC374019FFFF0BF0112900BD1A3E073
:10042300FFA3A3E0FD900BD0E0FB1260D3124ABA06
:10043300D3900BD6E09400900BD5E0648094804079
:100443000302032D900BDDE0B40112900BD1A3E066
:10045300FFA3A3E0FD900BD0E0FB1260D3900BCA87
:10046300E0FAA3E0FBC3900BC9E09BFE900BC8E04E
:100473009A900BD3F0A3CEF0900BC6E0FFA3E090CD
:100483000BD1CFF0A3EFF0900BD7EAF0A3EBF0E49E
:10049300900BD5F0A3F0900BD6E004F07006900B10
:1004A300D5E004F0900BD2E024FFF0900BD1E034C0
:1004B300FFF0900BD7E0FCA3E0FD25E0FFEC33FE5B
:1004C300121AFFAA06AB07900BD5E0FCA3E0FD25AB
:1004D300E0FFEC33FE121AFFEF2BFFEE3AFE900B18
:1004E300D9E0FCA3E0FDC3EF9DFDEE9CFC900BD88F
:1004F300E025E0FF900BD7E033FEC3ED9FFFEC9EBA
:10050300CF2401CF3400FED3EF9400EE64809480B7
:10051300401AA3E024FFF0900BD7E034FFF0900BD8
:10052300D4E004F07006900BD3E004F0900BDDE010
:10053300B40112900BD1A3E0FFA3A3E0FD900BD075
:10054300E0FB1260D3900BDCE004F07006900BDB51
:10055300E004F0900BCCE0FEA3E0FF900BDBE0FCAB
:10056300A3E0FD6F7002EC6E6010900BCEE0FEA373
:10057300E0FFED6F7002EC6E7023900BDDE0FFC3C4
:1005830074019FFFF0BF0112900BD1A3E0FFA3A35F
:10059300E0FD900BD0E0FB1260D3124ABA900BD768
:1005A300E0FEA3E0FFC3900BD6E09FEE6480F890DB
:1005B3000BD5E06480985003020499900BDDE0B4FE
:1005C3000112900BD1A3E0FFA3A3E0FD900BD0E0B9
:1005D300FB1260D3900BD8E024FFF0900BD7E034EC
:1005E300FFF0900BD4E004F07006900BD3E004F01E
:1005F300900BD7E0FCA3E0FD25E0FFEC33FE121ADD
:10060300FFAA06AB07900BD5E0FCA3E0FD25E0FFB6
:10061300EC33FE121AFFEF2BFFEE3AFE900BD9E0FC
:10062300FCA3E0FDC3EF9DFDEE9CFC900BD6E02503
:10063300E0FF900BD5E033FEED2FFFEC3ECF24011E
:10064300CF3400FED3EF9400EE64809480501AA35D
:10065300E004F07006900BD5E004F0900BD2E02498
:10066300FFF0900BD1E034FFF0900BDDE0B401120A
:10067300900BD1A3E0FFA3A3E0FD900BD0E0FB120E
:1006830060D3900BDCE004F07006900BDBE004F029
:10069300900BCCE0FEA3E0FF900BDBE0FCA3E0FDBE
:1006A3006F7002EC6E6010900BCEE0FEA3E0FFEDE6
:1006B3006F7002EC6E7023900BDDE0FFC374019F3B
:1006C300FFF0BF0112900BD1A3E0FFA3A3E0FD90C5
:1006D3000BD0E0FB1260D3124ABAD3900BD8E0944C
:1006E30000900BD7E06480948040030205D7900B01
:1006F300DDE0B40112900BD1A3E0FFA3A3E0FD90D2
:100703000BD0E0FB1260D3900BCAE0FAA3E0FBC36B
:10071300900BC7E09BFE900BC6E09A900BD1F0A321
:10072300CEF0900BC8E0FFA3E0900BD3CFF0A3EF84
:10073300F0A3EAF0A3EBF0E4A3F0A3F0900BD8E06E
:1007430004F07006900BD7E004F0900BD4E004F0B3
:100753007006900BD3E004F0900BD7E0FCA3E0FD10
:1007630025E0FFEC33FE121AFFAA06AB07900BD568
:10077300E0FCA3E0FD25E0FFEC33FE121AFFEF2BB4
:10078300FFEE3AFE900BD9E0FCA3E0FDC3EF9DFD25
:10079300EE9CFC900BD6E025E0FF900BD5E033FEFA
:1007A300C3ED9FFFEC9ECF2401CF3400FED3EF9423
:1007B30000EE64809480401AA3E024FFF0900BD5F0
:1007C300E034FFF0900BD2E004F07006900BD1E020
:1007D30004F0900BDDE0B40112900BD1A3E0FFA372
:1007E300A3E0FD900BD0E0FB1260D3900BDCE004A0
:1007F300F07006900BDBE004F0900BCCE0FEA3E07E
:10080300FF900BDBE0FCA3E0FD6F7002EC6E601069
:10081300900BCEE0FEA3E0FFED6F7002EC6E702351
:10082300900BDDE0FFC374019FFFF0BF0112900B3B
:10083300D1A3E0FFA3A3E0FD900BD0E0FB1260D3B4
:10084300124ABA900BD5E0FEA3E0FFC3900BD8E0A9
:100853009FEE6480F8900BD7E06480985003020702
:100863003F900BDDE0B40112900BD1A3E0FFA3A3F3
:10087300E0FD900BD0E0FB1260D3900BD6E024FF99
:10088300F0900BD5E034FFF0900BD2E004F070064B
:10089300900BD1E004F0900BD7E0FCA3E0FD25E042
:1008A300FFEC33FE121AFFAA06AB07900BD5E0FC50
:1008B300A3E0FD25E0FFEC33FE121AFFEF2BFFEE62
:1008C3003AFE900BD9E0FCA3E0FDC3EF9DFDEE9C47
:1008D300FC900BD8E025E0FF900BD7E033FEED2F23
:1008E300FFEC3ECF2401CF3400FED3EF9400EE643F
:1008F300809480501AA3E004F07006900BD7E004B4
:10090300F0900BD4E004F07006900BD3E004F09069
:100913000BDDE0B40112900BD1A3E0FFA3A3E0FD34
:10092300900BD0E0FB1260D3900BDCE004F0700678
:10093300900BDBE004F0900BCCE0FEA3E0FF900B08
:10094300DBE0FCA3E0FD6F7002EC6E6010900BCE59
:10095300E0FEA3E0FFED6F7002EC6E7023900BDD01
:10096300E0FFC374019FFFF0BF0112900BD1A3E01E
:10097300FFA3A3E0FD900BD0E0FB1260D3124ABAB1
:10098300D3900BD6E09400900BD5E0648094804024
:100993000302087D900BDDE0B40112900BD1A3E0BC
:1009A300FFA3A3E0FD900BD0E0FB1260D3900BCA32
:1009B300E0FAA3E0FB900BC9E02BFE900BC8E03AF2
:1009C300900BD3F0A3CEF0900BC6E0FFA3E0900B07
:1009D300D1CFF0A3EFF0900BD7EAF0A3EBF0E490C4
:1009E3000BD5F0A3F0900BD6E004F07006900BD576
:1009F300E004F0900BD2E004F07006900BD1E00419
:100A0300F0900BD7E0FCA3E0FD25E0FFEC33FE12F2
:100A13001AFFAA06AB07900BD5E0FCA3E0FD25E087
:100A2300FFEC33FE121AFFEF2BFFEE3AFE900BD9C9
:100A3300E0FCA3E0FDC3EF9DFDEE9CFC900BD8E032
:100A430025E0FF900BD7E033FEC3ED9FFFEC9ECF75
:100A53002401CF3400FED3EF9400EE6480948040F1
:100A63001AA3E024FFF0900BD7E034FFF0900BD4EF
:100A7300E024FFF0900BD3E034FFF0900BDDE0B403
:100A83000112900BD1A3E0FFA3A3E0FD900BD0E0F4
:100A9300FB1260D3900BDCE004F07006900BDBE0FC
:100AA30004F0900BCCE0FEA3E0FF900BDBE0FCA393
:100AB300E0FD6F7002EC6E6010900BCEE0FEA3E0E1
:100AC300FFED6F7002EC6E7023900BDDE0FFC374DB
:100AD300019FFFF0BF0112900BD1A3E0FFA3A3E09E
:100AE300FD900BD0E0FB1260D3124ABA900BD7E013
:100AF300FEA3E0FFC3900BD6E09FEE6480F8900B5B
:100B0300D5E064809850030209E8900BDDE0B4015E
:100B130012900BD1A3E0FFA3A3E0FD900BD0E0FB69
:100B23001260D3900BD8E024FFF0900BD7E034FF92
:100B3300F0900BD4E024FFF0900BD3E034FFF0905F
:100B43000BD7E0FCA3E0FD25E0FFEC33FE121AFF18
:100B5300AA06AB07900BD5E0FCA3E0FD25E0FFEC74
:100B630033FE121AFFEF2BFFEE3AFE900BD9E0FC97
:100B7300A3E0FDC3EF9DFDEE9CFC900BD6E025E0CA
:100B8300FF900BD5E033FEED2FFFEC3ECF2401CFDA
:100B93003400FED3EF9400EE64809480501AA3E0F7
:100BA30004F07006900BD5E004F0900BD2E004F053
:100BB3007006900BD1E004F0900BDDE0B4011290CD
:100BC3000BD1A3E0FFA3A3E0FD900BD0E0FB1260E9
:100BD300D3900BDCE004F07006900BDBE004F090A4
:100BE3000BCCE0FEA3E0FF900BDBE0FCA3E0FD6F8A
:100BF3007002EC6E6010900BCEE0FEA3E0FFED6F91
:100C03007002EC6E7023900BDDE0FFC374019FFF55
:100C1300F0BF0112900BD1A3E0FFA3A3E0FD900B63
:100C2300D0E0FB1260D3124ABAD3900BD8E0940001
:100C3300900BD7E0648094804003020B26900BDD79
:100C4300E0B40112900BD1A3E0FFA3A3E0FD900B4E
:070C5300D0E0FB1260D32288
:0B325300480BDF80402010080402013F
:0F62C400EF5401900BE7F0ED5401900BDEF02248
:0B325E0048000001020408102040801E
:0F62D300E4FFFE0FBF00010EEF640A4E70F522CC
:09626400EC24B8FF12626D7F40CA
:0D626D00C2B2C2B0C2B18F90D2B2C2B22292
:0D62E200C2B2D2B0C2B18F90D2B2C2B2220D
:10612400EF547FFFED543FC2B4C2B3131313541F93
:10613400FD75F080A42408F582E5F03400F583E5CC
:10614400822FF582E43583F583EBF0EFC39440505E
:1061540004D2B48006D2B374C02FFFEF2440FF12E0
:0E616400626DED24B8FF12626DAF030262E2BD
:1061E100EF547FFFED543F131313541F75F080A438
:1061F1002408F582E5F03400F583E5822FF582E489
:076201003583F583E0FF2265
:10617200AD07D2B4C2B37FC012626DE4FC12626496
:10618200E4FEAF051262E20EEEB440F60CECB40887
:10619200ECD2B3C2B47FC012626DE4FC126264E45A
:1061A200FEAF051262E20EEEB440F60CECB408EC5F
:0161B20022CA
:10628F007F3E12626D7FC012626D7FB81262681F0F
:03629F0002626D2B
:105F2B00AD07E4900A68F0A3F0E4900A6AF0A3F0DE
:105F3B00900A68E0FEA3E07807C333CE33CED8F9DE
:105F4B002408F58274003EF583C083C082900A6AF0
:105F5B00E0FEA3E0D082D0832582F582E5833EF577
:105F6B0083EDF0900A6BE004F07006900A6AE0048F
:105F7B00F0900A6AE07004A3E0648070B3900A6941
:105F8B00E004F07006900A68E004F0900A68E07094
:0C5F9B0004A3E064087092AF050261727C
:0862EF0012628FE4FF025F2B35
:1060D300AE05AC07ECC3948040037F0022EEC3946B
:1060E3004040037F0022AF04AD061261E1AA07EB33
:1060F3007012EE54072400F582E43400F583E0F4D3
:106103005AFA800FEE54072400F582E43400F58335
:10611300E04AFAAF04AD06AE02AB061261247F017A
:016123002259
:1061B300900AA6EDF0A907A3EBF0E9D39B4006E014
:1061C300FFE9F0A907AF01900AA6E0FD900AA8E055
:0E61D300FB1260D309900AA7E0C39950E8229E
:105AFB00900A97EFF0AC05A903ECD3994008900AF4
:105B0B009BE9F0A904FC900A97E0FFAD041261E158
:105B1B00900A9BEFF0E9131313541FFFEC131313AD
:105B2B00541F6F6039EC5407FF74FFA807088002FD
:105B3B00C333D8FCFE900A9AE06006A3E04EFE80C9
:105B4B0009EEF4FE900A9BE05EFE900A97E0FFAD33
:105B5B0004AB06126124EC24085438FC8047EC5447
:105B6B0007FF74FFA807088002C333D8FCFEE95473
:105B7B0007FFC374079FFF74FFA807088002C313B6
:105B8B00D8FC5EFE900A9AE06006A3E04EFE800908
:105B9B00EEF4FE900A9BE05EFE900A97E0FFAD04E8
:0E5BAB00AB06026124E9C39C4003025B112299
:105A3700900A74ECF0A3EDF0A3EBF0A3EAF0A3E96E
:105A4700F0900A72EEF0A3EFF0C39480EE9400405A
:105A5700037F0022C3900A75E09440900A74E09493
:105A67000040037F0022E4900A7CF0900A7CE0FF6C
:105A7700FDD3900A7AE09D900A79E094004072EF96
:105A87005407FF7017900A76E0FBA3E475F0011244
:105A97001B7CA9F0FA121AE6900A7BF074DF2FF547
:105AA70082E4340BF583E0FF900A7BE05F7005909A
:105AB7000BDE8003900BE7E05401900A7DF0900A1B
:105AC70072A3E0FFA3A3E0FD900A7DE0FB1260D381
:105AD700900A72E475F001121B66FEC3E5F094802C
:105AE700EE940040037F0022900A7CE004F0025A03
:045AF700727F012297
:105E1F00900A68EEF0A3EFF0A3ECF0A3EDF0A3EB84
:105E2F00F0A3EAF0A3E9F0E4900A71F0900A70E0B1
:105E3F00FFA3E0C39F5060900A6AE0FCA3E0FDA3BC
:105E4F00E0FBA3E0FAA3E0F9A3E0FF900A79E4F006
:105E5F00A3EFF0900A68E0FEA3E0FF125A37900A12
:105E6F006BE004F07006900A6AE004F0900A6FE0AD
:105E7F00FF131313541FFD900A6DE48DF0121B6670
:105E8F00EF5407600A900A6DE475F001121B6690DB
:085E9F000A71E004F080952275
:10513F0044455349474E2042555920436C61737380
:10514F0056007869616E6768756932323240313660
:10515F00332E636F6D0031323334303331343532A7
:10516F000000003FFC01000100010001007FFE0173
:10517F0080028002800480088010822082C07E001E
:10518F000021FC21043D0421FC41047DFC90801092
:10519F0080FDFE114A124A1092132214C21B0A10EC
:1051AF00040100211019180D10092001047FFE04BD
:1051BF0040044004400440084208421042203E4050
:1051CF000022101110112007FC8040504057FC1096
:1051DF004020402FFEE04020402040204020402033
:1051EF00400100010001003FF8210821083FF8218C
:1051FF0008210821083FF821080102010200FE00E2
:10520F000000003FF000200040008001000100017D
:10521F0004FFFE0100010001000100010005000272
:10522F0000000003FEFC20104011FC11041124119A
:10523F0024112411241D24E13400480186060200A4
:10524F0000100013FE9644584051FCFE4028A02841
:10525F00A029FC282028202BFE4C2048208020004D
:10526F00200000003E42428080808080424438000F
:10527F0000000000701010101010101010107C00A3
:10528F0000000000000000003C421E2242423F008E
:10529F0000000000000000003E42403C02427C0043
:1052AF0000000000000000003E42403C02427C0033
:1052BF0000000000E7424244242428281810100060
:0152CF0000DE
:105C6500E4900A68F0A3F0A3F0A3F0A3F0A3748076
:105C7500F0A3E4F0A37440F0A374FFF0A37451F013
:105C8500A3743FF0A3E4F0A3F0A3F07B017A0A79B3
:105C950068123DBF900A7CE4F0A37437F0A3740149
:105CA500F07B147A007D327C007F057E0012326A1B
:105CB500900A7CE4F0A37437F0A37401F07B147AA6
:105CC500007D4B7C007F377E0012326A900A7CE4AF
:105CD500F0A37432F0A37401F07B197A007D787C0F
:105CE500007F507E0012261F7FC87E0012624B7B0C
:085CF500017A0A7968025CFDE6
:1052D0001262EF125C65E4FD7F011262C4900AA8BD
:1052E0007401F07B7FE4FDFF1261B3900A9A7401B0
:1052F000F07B3FE4FDFF125AFB900AA87401F07B9B
:10530000807D3FE4FF1261B3900A9A7401F07B3F05
:10531000E4FD7F7F125AFB7BFF7A5179517D047C3B
:10532000007F017E001260177BFF7A5179D0900ACE
:105330006F7410F0A3F0E4FDFCFFFE125E1F900AF4
:10534000627424F0A3E02410F0900A62E0FF7E0073
:10535000A3E0FD7C007BFF7A527970900A6F74089D
:10536000F0A37410F0125E1F900A62E02408F0E0CF
:10537000FF7E00A3E0FD7C007BFF7A527980900ADB
:105380006F7408F0A37410F0125E1F900A62E0249C
:1053900008F0E0FF7E00A3E0FD7C007BFF7A5279FD
:1053A00090900A6F7408F0A37410F0125E1F900AB8
:1053B00062E02408F0E0FF7E00A3E0FD7C007BFFBC
:1053C0007A5279A0900A6F7408F0A37410F0125EFC
:1053D0001F900A62E02408F0E0FF7E00A3E0FD7C5D
:1053E000007BFF7A5279B0900A6F7408F0A37410B2
:1053F000F0125E1F900A62E02410F0E0FF7E00A32E
:10540000E0FD7C007BFF7A5279C0900A6F7408F04F
:10541000A37410F0125E1F900A62740AF0A3E024D5
:1054200014F0900A62E0FF7E00A3E0FD7C007BFFA9
:095430007A51796512607580FE65
:1062A200D3EF9DEC6480F8EE648098400122AE0446
:0362B200AF052213
:0E620800E0FCA3E0FDA3E0FEA3E0FF121A6598
:10621600D3EF9400EE64809480400122C3E49FFF94
:04622600E49EFE22D2
:10595A00900BABEBF0A3EAF0A3E9F0A3121D719050
:10596A000BAEE0FCA3E0FDA3E0FEA3E0FF900BABCF
:10597A00E0FBA3E0FAA3E0F9121CD7900BB2E0FC1B
:10598A00A3E0FDA3E0FEA3E0FF900BABE0FBA3E0E6
:10599A00FAA3E0F9900004121CF1900BB6E0FCA304
:1059AA00E0FDA3E0FEA3E0FF900008121CF1900BBB
:1059BA00BAE0FCA3E0FDA3E0FEA3E0FF90000C1216
:1059CA001CF1900BBEE0FCA3E0FDA3E0FEA3E0FF08
:1059DA00900010121CF1900BC2E0FCA3E0FDA3E0C2
:1059EA00FEA3E0FF900014121CF1900BAE126208A5
:1059FA00C006C007900BB2126208AC06AD07D0070A
:105A0A00D0061262A2AC06AD07EC121A2CE4FBFA1D
:105A1A00F9784112198A121A65900BABE0FBA3E0E0
:0D5A2A00FAA3E0F9900018EE8FF0021C4C7A
:10622A00900018121BBD45F0700990001875F00116
:10623A00121C4C900018121BBD2401FFE435F0FE1D
:01624A002231
:1046B900900B41121D71900B3EEBF0A3EAF0A3E9B8
:1046C900F0900018121BBD45F07015900B3EE0FBF1
:1046D900A3E0FAA3E0F9900018E475F001121C4C6C
:1046E900900B41E0FCA3E0FDA3E0FEA3E0FF121A5A
:1046F90065900B4FEEF0A3EFF0900B45E0FCA3E0C3
:10470900FDA3E0FEA3E0FF121A65900B51EEF0A3A2
:10471900EFF0900B4FE0FCA3E0FD900B4CE0FBA306
:10472900E0FAA3E0F9121B92AEF07802C333CE335C
:10473900CED8F9FF900B49E0FBA3E0FAA3E0F98F8B
:10474900828E83EC8DF0121C4C900B51E0FCA3E09F
:10475900FDE92FF9EA3EFA900002EC8DF0121C4CAB
:10476900900B4CE0FBA3E0FAA3E0F9E475F0011229
:104779001BF5900B63E4F0A304F0900B3EE0FBA360
:10478900E0FAA3E0F9900018121BBDFFD3900B6467
:10479900E09FE5F06480F8900B63E0648098400343
:1047A900024AB9900018121BBDFDACF0EC121A2C8C
:1047B900A804A905AA06AB07E4FFFE7D807C3F1289
:1047C900198AC004C005C006C007900B63E0FCA3AA
:1047D900E0FDEC121A2CD003D002D001D00012183F
:1047E90081900B53121D71E4FFFEFD7C40900B5329
:1047F900E0F8A3E0F9A3E0FAA3E0FB121881A8040A
:10480900A905AA06AB07E4FFFE7D407C4012178C80
:10481900C004C005C006C007900B53E0FCA3E0FD2F
:10482900A3E0FEA3E0FF900B53E0F8A3E0F9A3E0B7
:10483900FAA3E0FB121881D003D002D001D00012F4
:104849001881900B57121D71E4FFFE7D807CBF908B
:104859000B53E0F8A3E0F9A3E0FAA3E0FB121790E9
:10486900900B53E0F8A3E0F9A3E0FAA3E0FB1218D8
:1048790081C004C005C006C007E4FFFE7D807CBF7F
:10488900900B53E0F8A3E0F9A3E0FAA3E0FB1217B9
:1048990090D003D002D001D000121881900B5B1286
:1048A9001D71E4FFFE7D807CBF900B53E0F8A3E00F
:1048B900F9A3E0FAA3E0FB121790C004C005C006F3
:1048C900C007900B53E0FCA3E0FDA3E0FEA3E0FFCB
:1048D900900B53E0F8A3E0F9A3E0FAA3E0FB121868
:1048E90081D003D002D001D000121881900B5F1241
:1048F9001D71900B3EE0FBA3E0FAA3E0F9121C87BF
:10490900900B57E0F8A3E0F9A3E0FAA3E0FB121833
:1049190081900B41E0F8A3E0F9A3E0FAA3E0FB12D0
:104929001790C004C005C006C007900B3EE0FBA36A
:10493900E0FAA3E0F9900008121CA7900B5BE0F8DD
:10494900A3E0F9A3E0FAA3E0FB121881D003D00297
:10495900D001D000121790C004C005C006C007904E
:104969000B3EE0FBA3E0FAA3E0F9900010121CA7AC
:10497900900B5FE0F8A3E0F9A3E0FAA3E0FB1218BB
:1049890081D003D002D001D000121790121A65907D
:104999000B4FEEF0A3EFF0900B3EE0FBA3E0FAA380
:1049A900E0F9900004121CA7900B57E0F8A3E0F976
:1049B900A3E0FAA3E0FB121881900B45E0F8A3E00D
:1049C900F9A3E0FAA3E0FB121790C004C005C006E2
:1049D900C007900B3EE0FBA3E0FAA3E0F990000CBE
:1049E900121CA7900B5BE0F8A3E0F9A3E0FAA3E09F
:1049F900FB121881D003D002D001D000121790C049
:104A090004C005C006C007900B3EE0FBA3E0FAA373
:104A1900E0F9900014121CA7900B5FE0F8A3E0F9ED
:104A2900A3E0FAA3E0FB121881D003D002D001D091
:104A390000121790121A65900B51EEF0A3EFF09047
:104A49000B4FE0FCA3E0FD900B4CE0FBA3E0FAA3C5
:104A5900E0F9121B92AEF07802C333CE33CED8F907
:104A6900FF900B49E0FBA3E0FAA3E0F98F828E8364
:104A7900EC8DF0121C4C900B51E0FCA3E0FDE92FEA
:104A8900F9EA3EFA900002EC8DF0121C4C900B4CA6
:104A9900E0FBA3E0FAA3E0F9E475F001121BF5903D
:104AA9000B64E004F07006900B63E004F0024783A6
:014AB90022DA
:10543900900BE8EBF0A3EAF0A3E9F0900BEEE0FFA4
:10544900A3E09001B8CF8FF0121C4CE4900BF0F060
:10545900A3F0900BE8E0FBA3E0FAA3E0F99001B810
:10546900121BBDFF900BF0E0FCA3E0FDC39FE5F02C
:105479006480F8EC6480984003025557EDAE0478D7
:1054890002C333CE33CED8F9FF900BEBE0FBA3E098
:10549900FAA3E0F98F828E83121BBDFDACF0E412F2
:1054A9001A2CC004C005C006C007900BF0E0FEA38B
:1054B900E07802C333CE33CED8F9FF900BE8E0FB96
:1054C900A3E0FAA3E0F98F828E83D007D006D00536
:1054D900D004121CF1900BF0E0FEA3E07802C33374
:1054E900CE33CED8F9FF900BEBE0FBA3E0FAA3E0B3
:1054F9002FF9EA3EFA900002121BBDFDACF0E4124E
:105509001A2CC004C005C006C007900BE8E0FBA335
:10551900E0FAA3E02428F9E43AFA900BF0E0FEA3BC
:10552900E07802C333CE33CED8F929F9EA3EFAD06E
:1055390007D006D005D004121CD7900BF1E004F077
:0F554900600302545B900BF0E004F002545B220D
:10381800900A08EBF0A3EAF0A3E9F0E4900A5EF05E
:10382800A3F0900A08E0FBA3E0FAA3E0F99001B83E
:10383800121BBD24FFFFE5F034FFFED3900A5FE0C2
:103848009FEE6480F8900A5EE06480984003023935
:1038580038900A08A3A3E02468F9EA3401FA900A28
:103868005EE0FEA3E07802C333CE33CED8F929F95F
:10387800EA3EFA121D21C000C001C002C003900A2E
:103888005EE0FEA3E07802C333CE33CED8F9FF90D2
:103898000A0BE0FBA3E0FAA3E0F98F828E83121CE7
:1038A800A7D003D002D001D00012198AC004C005E5
:1038B800C006C007900A5EE0FEA3E07802C333CEDC
:1038C80033CED8F9FBAA06240EF582740A3AF5839A
:1038D800D007D006D005D004121D71740E2BF582C6
:1038E800740A3AF583E0FCA3E0FDA3E0FEA3E0FF41
:1038F800C004C005C006C007900A5EE0FEA3E078D9
:1039080002C333CE33CED8F92436F582740A3EF595
:1039180083D007D006D005D004121D71900A5FE04D
:1039280004F0600302382A900A5EE004F002382AA4
:10393800E4900A60F0A3F0900A08E0FBA3E0FAA381
:10394800E0F9900190121CA7900A3AE0F8A3E0F978
:10395800A3E0FAA3E0FB121881C004C005C006C0AA
:1039680007900A0BE0FBA3E0FAA3E0F9121C87D04A
:1039780003D002D001D00012178C900A08E0FBA3F4
:10398800E0FAA3E0F9900168121D4112198A900A21
:103998000E121D71900A5EE4F0A304F0900A08E08C
:1039A800FBA3E0FAA3E0F99001B8121BBD24FFFFC6
:1039B800E5F034FFFEC3900A5FE09FEE6480F89064
:1039C8000A5EE06480984003023B51E92440F9EA2A
:1039D8003401FAE0FEA3E07802C333CE33CED8F93F
:1039E80029F9EA3EFA121C87C004C005C006C007C0
:1039F800900A5EE0FEA3E07802C333CE33CED8F956
:103A08002432F582740A3EF583E0F8A3E0F9A3E0D6
:103A1800FAA3E0FBD007D006D005D004121881C065
:103A280004C005C006C007900A5EE0FEA3E0780265
:103A3800C333CE33CED8F9FF900A0BE0FBA3E0FAEC
:103A4800A3E0F98F828E83121CA7D003D002D00185
:103A5800D00012178CC004C005C006C007900A0821
:103A6800E0FBA3E0FAA3E02490F9EA3401FA900A13
:103A78005EE0FEA3E07802C333CE33CED8F929F94D
:103A8800EA3EFA121C87C004C005C006C007900AA7
:103A98005EE0FEA3E07802C333CE33CED8F9243AF1
:103AA800F582740A3EF583E0F8A3E0F9A3E0FAA3EF
:103AB800E0FBD007D006D005D004121881A804A9CD
:103AC80005AA06AB07D007D006D005D00412178C7C
:103AD800C004C005C006C007900A08E0FBA3E0FACE
:103AE800A3E02468F9EA3401FA900A5EE0FEA3E054
:103AF8007802C333CE33CED8F929F9EA3EFA121D3B
:103B080021D007D006D005D00412198AC004C005F8
:103B1800C006C007900A5EE0FEA3E07802C333CE79
:103B280033CED8F9240EF582740A3EF583D007D037
:103B380006D005D004121D71900A5FE004F07006EB
:103B4800900A5EE004F00239A4900A08E0FBA3E0C2
:103B5800FAA3E0F99001B8121BBDAEF07802C333A6
:103B6800CE33CED8F9243CF58274013EF583121C7D
:103B7800A7C004C005C006C007900A08E0FBA3E080
:103B8800FAA3E0F99001B8121BBDAEF07802C33376
:103B9800CE33CED8F9242EF582740A3EF583E0F8A8
:103BA800A3E0F9A3E0FAA3E0FBD007D006D005D044
:103BB80004121881C004C005C006C007900A08E0B6
:103BC800FBA3E0FAA3E0F99001B8121BBD24FFFFA4
:103BD800E5F034FFFEEF7802C333CE33CED8F9FFD9
:103BE800900A0BE0FBA3E0FAA3E0F98F828E831220
:103BF8001CA7D003D002D001D00012178CC004C07B
:103C080005C006C007900A08E0FBA3E0FAA3E0F9A4
:103C18009001B8121BBDAEF07802C333CE33CED8B4
:103C2800F92464F58274013EF583121D41D007D052
:103C380006D005D00412198AC004C005C006C00702
:103C4800900A08E0FBA3E0FAA3E0F99001B8121B80
:103C5800BDAEF07802C333CE33CED8F9240AF5824C
:103C6800740A3EF583D007D006D005D004121D7122
:103C7800E4900A5EF0A3F0900A08E0FBA3E0FAA340
:103C8800E0F99001B8121BBD24FFFFE5F034FFFEF8
:103C9800900A5EE0FCA3E0FDD39FEE6480F8EC643C
:103CA8008098505DEDAE047802C333CE33CED8F998
:103CB800240EF582740A3EF583E0FCA3E0FDA3E040
:103CC800FEA3E0FFC004C005C006C007900A5EE07E
:103CD800FEA3E07802C333CE33CED8F92436F5827A
:103CE800740A3EF583D007D006D005D004121D71A2
:103CF800900A5FE004F07006900A5EE004F0023C6F
:103D08007F900A61E004F07006900A60E004F09089
:103D18000A60E07004A3E0640A600302393FE4909B
:103D28000A5EF0A3F0900A08E0FBA3E0FAA3E0F92A
:103D38009001B8121BBD24FFFFE5F034FFFE900A86
:103D48005EE0FCA3E0FDD39FEE6480F8EC6480980D
:103D58005064EDAE047802C333CE33CED8F9240EC6
:103D6800F582740A3EF583E0FCA3E0FDA3E0FEA320
:103D7800E0FFC004C005C006C007900A5EE0FEA3CD
:103D8800E07802C333CE33CED8F9FF900A0BE0FBBC
:103D9800A3E0FAA3E0F98F828E83D007D006D0057E
:103DA800D004121CF1900A5FE004F07006900A5EDD
:073DB800E004F0023D2D22A2
:100C5A00900AA9EBF0A3EAF0A3E9F0E4900ADCF029
:100C6A00A3F0900AA9E0FBA3E0FAA3E0F99001B887
:100C7A00121BBD24FEFFE5F034FFFE900ADCE0FC07
:100C8A00A3E0FDD39FEE6480F8EC648098400302F1
:100C9A000DDDEDAE047802C333CE33CED8F9240489
:100CAA00FFE43EFE900AA9E0FBA3E0FAA3E0F98F75
:100CBA00828E83121CA7C004C005C006C007900A12
:100CCA00DCE0FEA3E07802C333CE33CED8F9FF903E
:100CDA000AA9E0FBA3E0FAA3E0F98F828E83121D32
:100CEA0041D007D006D005D00412178CC004C00525
:100CFA00C006C007900AA9E0FBA3E0FAA3E02450CB
:100D0A00F9E43AFA900ADCE0FEA3E07802C333CEB3
:100D1A0033CED8F929F9EA3EFAD007D006D005D061
:100D2A0004121CD7900AA9E0FBA3E0FAA3E0242846
:100D3A00F9E43AFA900ADCE0FEA3E07802C333CE83
:100D4A0033CED8F929F9EA3EFA121D21C000C001B2
:100D5A00C002C003900ADCE0FEA3E07802C333CEEF
:100D6A0033CED8F9242CFFE43EFE900AA9E0FBA377
:100D7A00E0FAA3E0F98F828E83121CA7D003D00277
:100D8A00D001D00012178CC004C005C006C007905D
:100D9A000AA9E0FBA3E0FAA3E02478F9E43AFA907E
:100DAA000ADCE0FEA3E07802C333CE33CED8F929B9
:100DBA00F9EA3EFAD007D006D005D004121CD79023
:100DCA000ADDE004F06003020C6C900ADCE004F037
:100DDA00020C6C900AA9E0FBA3E0FAA3E0F99000E8
:100DEA0078121CA7A804A905AA06AB07121881C085
:100DFA0004C005C006C007900AA9E0FBA3E0FAA355
:100E0A00E0F9900050121CA7A804A905AA06AB078E
:100E1A00121881D003D002D001D000121790125BB1
:100E2A00BD900AD8121D71E4900ADCF0A3F0900A72
:100E3A00A9E0FBA3E0FAA3E0F99001B8121BBD24D4
:100E4A00FDFFE5F034FFFE900ADCE0FCA3E0FDD3F1
:100E5A009FEE6480F8EC6480984003020FB2EDAE16
:100E6A00047802C333CE33CED8F9247CFFE43EFEA5
:100E7A00900AA9E0FBA3E0FAA3E0F98F828E83121D
:100E8A001CA7C004C005C006C007900ADCE0FEA388
:100E9A00E07802C333CE33CED8F9247CFFE43EFE99
:100EAA00900AA9E0FBA3E0FAA3E0F98F828E8312ED
:100EBA001D41D007D006D005D004121881C004C045
:100ECA0005C006C007900ADCE0FEA3E07802C3333F
:100EDA00CE33CED8F92454FFE43EFE900AA9E0FBB3
:100EEA00A3E0FAA3E0F98F828E83121CA7C004C084
:100EFA0005C006C007900ADCE0FEA3E07802C3330F
:100F0A00CE33CED8F92454FFE43EFE900AA9E0FB82
:100F1A00A3E0FAA3E0F98F828E83121D41D007D095
:100F2A0006D005D004121881D003D002D001D00017
:100F3A00121790125BBD900AD4121D71900AD4E068
:100F4A00F8A3E0F9A3E0FAA3E0FBA3E0FCA3E0FD29
:100F5A00A3E0FEA3E0FF12198AC004C005C006C0C0
:100F6A0007900ADCE0FEA3E07802C333CE33CED882
:100F7A00F924ACF582740A3EF583D007D006D00571
:100F8A00D004121D71900AD4E0FCA3E0FDA3E0FE98
:100F9A00A3E0FFA3121D71900ADDE004F070069031
:100FAA000ADCE004F0020E38900AA9E0FBA3E0FA9A
:100FBA00A3E0F99001B8121BBDAEF07802C333CE9C
:100FCA0033CED8F924A4F582740A3EF583121D7D26
:100FDA003F800000900ADCE4F0A304F0900AA9E044
:100FEA00FBA3E0FAA3E0F99001B8121BBD24FEFFAF
:100FFA00E5F034FFFED3900ADDE09FEE6480F890BE
:10100A000ADCE064809840030211ABE92440F9EA63
:10101A003401FAE0FEA3E07802C333CE33CED8F926
:10102A00FF29F9EA3EFA121DAE3F80000074A82F8C
:10103A00F582740A3EF583E0FCA3E0FDA3E0FEA37B
:10104A00E0FFE4FBFA7980783F121790C004C005EC
:10105A00C006C007900ADCE0FEA3E07802C333CEE4
:10106A0033CED8F924A8F582740A3EF583E0FCA3AE
:10107A00E0FDA3E0FEA3E0FFE4FBFAF978401218D2
:10108A0081D003D002D001D000121881C004C0055B
:10109A00C006C007900AA9E0FBA3E0FAA3E024680F
:1010AA00F9EA3401FA900ADCE0FEA3E07802C333DD
:1010BA00CE33CED8F929F9EA3EFAD007D006D005C0
:1010CA00D004121CD7900ADCE0FEA3E07802C333F6
:1010DA00CE33CED8F924A8F582740A3EF583E0FC13
:1010EA00A3E0FDA3E0FEA3E0FFC004C005C006C064
:1010FA0007900ADCE0FEA3E07802C333CE33CED8F1
:10110A00F924A8F582740A3EF583E0F8A3E0F9A36E
:10111A00E0FAA3E0FBD007D006D005D0041218816C
:10112A00C004C005C006C007900ADCE0FEA3E07850
:10113A0002C333CE33CED8F924ACF582740A3EF515
:10114A0083E0F8A3E0F9A3E0FAA3E0FBD007D00616
:10115A00D005D004121881C004C005C006C007908B
:10116A000AA9E0FBA3E0FAA3E02490F9EA3401FA21
:10117A00900ADCE0FEA3E07802C333CE33CED8F97E
:10118A0029F9EA3EFAD007D006D005D004121CD7B6
:10119A00900ADDE004F07006900ADCE004F0020F29
:1011AA00E6900AA9E0FBA3E0FAA3E0F9900168122D
:1011BA001DC840000000900AACE0FCA3E0FDA3E0DB
:1011CA00FEA3E0FF900190121CF19001B8121BBD22
:1011DA00AEF07802C333CE33CED8F9243CF582740C
:1011EA00013EF583121DC83F8000009001B8121B12
:1011FA00BDAEF07802C333CE33CED8F924A4F5823B
:10120A00740A3EF583E0FCA3E0FDA3E0FEA3E0FF41
:10121A00E4FBFAF97840121881C004C005C006C080
:10122A0007900AA9E0FBA3E0FAA3E0F99001B8123B
:10123A001BBDAEF07802C333CE33CED8F92464F5A1
:10124A008274013EF583D007D006D005D004121C63
:10125A00F1900ADCE4F0A304F0900AA9E0FBA3E011
:10126A00FAA3E0F99001B8121BBD24FEFFE5F034A1
:10127A00FFFED3900ADDE09FEE6480F8900ADCE07E
:10128A0064809840030214BDE92450F9E43AFAE074
:10129A00FEA3E07802C333CE33CED8F929F9EA3E69
:1012AA00FA121D21C000C001C002C003900ADCE08E
:1012BA00FEA3E07802C333CE33CED8F924A8F58250
:1012CA00740A3EF583E0FCA3E0FDA3E0FEA3E0FF81
:1012DA00C004C005C006C007900ADCE0FEA3E0789F
:1012EA0002C333CE33CED8F924A8F582740A3EF568
:1012FA0083E0F8A3E0F9A3E0FAA3E0FBD007D00665
:10130A00D005D004121881D003D002D001D0001227
:10131A001881C004C005C006C007900ADCE0FEA31D
:10132A00E07802C333CE33CED8F9244CFFE43EFE34
:10133A00900AA9E0FBA3E0FAA3E0F98F828E831258
:10134A001D41D007D006D005D004121790E4FBFA4D
:10135A0079407840121881C004C005C006C00790C1
:10136A000AA9E0FBA3E0FAA3E024A0F9E43AFA9080
:10137A000ADCE0FEA3E07802C333CE33CED8F929E3
:10138A00F9EA3EFAD007D006D005D004121CD7904D
:10139A000AA9E0FBA3E0FAA3E02478F9E43AFA9078
:1013AA000ADCE0FEA3E07802C333CE33CED8F929B3
:1013BA00F9EA3EFA121D21C000C001C002C0039022
:1013CA000ADCE0FEA3E07802C333CE33CED8F92498
:1013DA00A8F582740A3EF583E0FCA3E0FDA3E0FED3
:1013EA00A3E0FFC004C005C006C007900ADCE0FE07
:1013FA00A3E07802C333CE33CED8F924A8F5827499
:10140A000A3EF583E0F8A3E0F9A3E0FAA3E0FBD0F3
:10141A0007D006D005D004121881D003D002D0011B
:10142A00D000121881C004C005C006C007900ADCAB
:10143A00E0FEA3E07802C333CE33CED8F92474FF9A
:10144A00E43EFE900AA9E0FBA3E0FAA3E0F98F824A
:10145A008E83121D41D007D006D005D004121790F2
:10146A00E4FBFA79407840121881C004C005C0062E
:10147A00C007900AA9E0FBA3E0FAA3E024C8F9E4B4
:10148A003AFA900ADCE0FEA3E07802C333CE33CE08
:10149A00D8F929F9EA3EFAD007D006D005D00412C5
:1014AA001CD7900ADDE004F07006900ADCE004F034
:1014BA00021263900AA9E0FBA3E0FAA3E0F9900004
:1014CA0050121CA7E4FBFA79407840121881900A5E
:1014DA00A9E0FBA3E0FAA3E0F99000A0121CF190A6
:1014EA000078121CA7E4FBFA794078401218819020
:1014FA000AA9E0FBA3E0FAA3E0F99000C8121CF1E4
:10150A009001B8121BBDAEF07802C333CE33CED8E9
:10151A00F92448F582E43EF583121CA7E4FBFA7924
:10152A00407840121881C004C005C006C007900A5E
:10153A00A9E0FBA3E0FAA3E0F99001B8121BBDAE43
:10154A00F07802C333CE33CED8F9249CF582E43E38
:10155A00F583D007D006D005D004121CF19001B84B
:10156A00121BBDAEF07802C333CE33CED8F9247045
:10157A00F582E43EF583121CA7E4FBFA7940784031
:10158A00121881C004C005C006C007900AA9E0FB72
:10159A00A3E0FAA3E0F99001B8121BBDAEF07802FD
:1015AA00C333CE33CED8F924C4F582E43EF583D0D2
:1015BA0007D006D005D004121CF1C003C002C00136
:1015CA00900AA9E0FBA3E0FAA3E024A0F9E43AFA1E
:1015DA00900A0BEBF0A3EAF0A3E9F0D001D002D015
:1015EA0003123818900AA9E0FBA3E0FAA3E024C882
:1015FA00F9E43AFA900A0BEBF0A3EAF0A3E9F090C7
:10160A000AA9A3E0FAA3E0F9123818E4900ADCF078
:10161A00A3F0900AA9E0FBA3E0FAA3E0F99001B8CD
:10162A00121BBD24FEFFE5F034FFFE900ADCE0FC4D
:10163A00A3E0FDD39FEE6480F8EC64809840030237
:10164A001788EDAE047802C333CE33CED8F924A47A
:10165A00FFE43EFE900AA9E0FBA3E0FAA3E0F98FBB
:10166A00828E83121CA7C004C005C006C007900A58
:10167A00DCE0FEA3E07802C333CE33CED8F924AC43
:10168A00F582740A3EF583E0F8A3E0F9A3E0FAA331
:10169A00E0FBD007D006D005D004121881C004C0E0
:1016AA0005C006C007900AA9E0FBA3E0FAA3E0245C
:1016BA00F0F9E43AFA900ADCE0FEA3E07802C333D8
:1016CA00CE33CED8F929F9EA3EFAD007D006D005AA
:1016DA00D004121CD7900ADCE0FEA3E07802C333E0
:1016EA00CE33CED8F924CCFFE43EFE900AA9E0FB23
:1016FA00A3E0FAA3E0F98F828E83121CA7C004C06C
:10170A0005C006C007900ADCE0FEA3E07802C333F6
:10171A00CE33CED8F924ACF582740A3EF583E0F8CC
:10172A00A3E0F9A3E0FAA3E0FBD007D006D005D0E6
:10173A0004121881C004C005C006C007900AA9E0B7
:10174A00FBA3E0FAA3E02418F9EA3401FA900ADCD0
:10175A00E0FEA3E07802C333CE33CED8F929F9EA02
:10176A003EFAD007D006D005D004121CD7900ADD65
:0F177A00E004F07006900ADCE004F002161C2276
:104FA400900B8AEBF0A3EAF0A3E9F0E4900BA7F0EE
:104FB400A3F0A3F0A3F0900B8AE0FBA3E0FAA3E034
:104FC400F99001B8121BBD24FFFFE5F034FFFEC3C6
:104FD400900BAAE09FEE6480F8900BA9E06480989F
:104FE4004003025136900B8AA3A3E02450F9E43A1B
:104FF400FA900BA9E0FEA3E07802C333CE33CED8F7
:10500400F929F9EA3EFA121C87C004C005C006C09B
:1050140007900B8AE0FBA3E0FAA3E02478F9E43AD2
:10502400FA900BA9E0FEA3E07802C333CE33CED8C6
:10503400F929F9EA3EFA121C87900BB2121D7190FD
:105044000B8AE0FBA3E0FAA3E024A0F9E43AFA9087
:105054000BA9E0FEA3E07802C333CE33CED8F929FE
:10506400F9EA3EFA121C87900BB6121D71900B8A56
:10507400E0FBA3E0FAA3E024C8F9E43AFA900BA910
:10508400E0FEA3E07802C333CE33CED8F929F9EA9F
:105094003EFA121C87900BBA121D71900B8AE0FB2A
:1050A400A3E0FAA3E024F0F9E43AFA900BA9E0FEB5
:1050B400A3E07802C333CE33CED8F929F9EA3EFA15
:1050C400121C87900BBE121D71900B8AE0FBA3E0AB
:1050D400FAA3E02418F9EA3401FA900BA9E0FEA33C
:1050E400E07802C333CE33CED8F929F9EA3EFA1276
:1050F4001C87900BC2121D717B017A0B798DD0072E
:10510400D006D005D00412595A7B017A0B798D123E
:10511400622A900BA8E02FF0900BA7E03EF0900BD2
:10512400AAE004F06003024FBA900BA9E004F00275
:0B5134004FBA900BA7E0FEA3E0FF22A3
:104D8900900B65EBF0A3EAF0A3E9F0900B6BE0FB65
:104D9900A3E0FAA3E0F9E4F5F0121C2DE4900B88E6
:104DA900F0A3F0900B65E0FBA3E0FAA3E0F9900112
:104DB900B8121BBD24FFFFE5F034FFFEC3900B8939
:104DC900E09FEE6480F8900B88E0648098400302CD
:104DD9004FA3900B65A3A3E02450F9E43AFA900B92
:104DE90088E0FEA3E07802C333CE33CED8F929F99F
:104DF900EA3EFA121C87C004C005C006C007900B22
:104E090065E0FBA3E0FAA3E02478F9E43AFA900B11
:104E190088E0FEA3E07802C333CE33CED8F929F96E
:104E2900EA3EFA121C87900BB2121D71900B65E0D5
:104E3900FBA3E0FAA3E024A0F9E43AFA900B88E096
:104E4900FEA3E07802C333CE33CED8F929F9EA3E7E
:104E5900FA121C87900BB6121D71900B65E0FBA32B
:104E6900E0FAA3E024C8F9E43AFA900B88E0FEA33B
:104E7900E07802C333CE33CED8F929F9EA3EFA12E3
:104E89001C87900BBA121D71900B65E0FBA3E0FA29
:104E9900A3E024F0F9E43AFA900B88E0FEA3E07865
:104EA90002C333CE33CED8F929F9EA3EFA121C8768
:104EB900900BBE121D71900B65E0FBA3E0FAA3E015
:104EC9002418F9EA3401FA900B88E0FEA3E078028D
:104ED900C333CE33CED8F929F9EA3EFA121C8790AA
:104EE9000BC2121D717B017A0B796ED007D006D0E7
:104EF90005D00412595A900B88E0FEA3E07802C34A
:104F090033CE33CED8F9FF900B65E0FBA3E0FAA3CB
:104F1900E0F98F828E83121CA7C004C005C006C0A9
:104F290007900B65A3A3E02428F9E43AFA900B88CB
:104F3900E0FEA3E07802C333CE33CED8F929F9EAEB
:104F49003EFA121C87900B45121D71900B68E0F90F
:104F5900A3E0FAA3E0900B49C9F0A3EAF0A3E9F0B2
:104F6900900B6BE0F9A3E0FAA3E0900B4CC9F0A316
:104F7900EAF0A3E9F07B017A0B796ED007D006D06D
:104F890005D0041246B9900B89E004F06003024D84
:0B4F9900AC900B88E004F0024DAC224D
:103DBF00900A76EBF0A3EAF0A3E9F0900004121B4F
:103DCF00BDC39414E5F09400401A900A76E0FBA36B
:103DDF00E0FAA3E0F9900006121BBDC39414E5F0BE
:103DEF00940050037F0022900004121BBDFFAEF021
:103DFF00121B922FFFE5F03EFED3EF9480EE94005E
:103E0F0040037F0022900A76E0FBA3E0FAA3E0F9DB
:103E1F00900006121BBDFFAEF0900002121BBDFDFD
:103E2F00ACF02FFFEC3EFED3EF9440EE9400400336
:103E3F007F0022900A76E0FBA3E0FAA3E0F9121BC1
:103E4F0092FFAEF0C006C007900004121BBDFFAE7C
:103E5F00F0121B922FFFE5F03ECF24FFFBEF34FF54
:103E6F00FAC002C003900A76E0FBA3E0FA900006C6
:103E7F00121BBDFFAEF0900002121BBD2FFFE5F02D
:103E8F003ECF24FFCF34FF900A88F0A3EFF0900BC2
:103E9F00DEE0900A8AF0D003D002D007D006125588
:103EAF0058900A76E0FBA3E0FAA3E0F9121B92FF09
:103EBF00AEF0C006C007900002121BBDFDACF09023
:103ECF000004121BBDFFAEF0121B922FFFE5F03E58
:103EDF00CF24FFFBEF34FFFAC002C003900A76E055
:103EEF00FBA3E0FA900006121BBDFFAEF09000029C
:103EFF00121BBD2FFFE5F03ECF24FFCF34FF900AFA
:103F0F0088F0A3EFF0900BE7E0900A8AF0D003D08F
:103F1F0002D007D006125FA7900A76E0FBA3E0FA63
:103F2F00A3E0F9121B92FF900002121BBD240CFD9F
:103F3F00900004121BBDFE121B922E14FB900BE778
:103F4F00E0900AA8F01261B3900A76E0FBA3E0FAC2
:103F5F00A3E0F9121B92240CFF900002121BBDFD6F
:103F6F00240CFB900BE7E0900A9AF0125AFB900A90
:103F7F0076E0FBA3E0FAA3E0F9121B92FFAEF0C0CC
:103F8F0006C007900002121BBDFDACF0121B92245D
:103F9F000CFBE435F0FAC002C003900A76E0FBA3F5
:103FAF00E0FA900002121BBD240CFEE435F0900ADB
:103FBF0088F0A3CEF0900BE7E0900A8AF0D003D000
:103FCF0002D007D006124AE7900A76E0FBA3E0FA88
:103FDF00A3E0F9121B92240CFFE435F0FEC006C0DB
:103FEF0007900002121BBDFDACF0121B92FBAAF052
:103FFF00C002C003900A76E0FBA3E0FA9000021221
:10400F001BBD240CFEE435F0900A88F0A3CEF0908F
:10401F000BE7E0900A8AF0D003D002D007D0061247
:10402F004AE7900A76E0FBA3E0FAA3E0F9900008D4
:10403F00121DECE94A7003024113900A76E0FBA3CC
:10404F00E0FAA3E0F9900008121DEC900A79EBF06A
:10405F00A3EAF0A3E9F0900A76E0FBA3E0FAA3E06D
:10406F00F9121B92FDACF0240FFEE43C900A7CF099
:10407F00A3CEF0900002121BBD2403FEE435F09096
:10408F000A7EF0A3CEF0900004121BBD2DFFEC357D
:10409F00F0CF24FFCF34FF900A80F0A3EFF0900A07
:1040AF007DE02408FF900A7CE03400FEC3900A8173
:1040BF00E09FEE6480F8900A80E06480984045901D
:1040CF000A79E0FBA3E0FAA3E0F9121AE660359053
:1040DF000A7CE0FEA3E0FFA3E0FCA3E0FD900A79D9
:1040EF00E0FBA3E475F001121B7CA9F0FA121AE6AB
:1040FF00FB125664900A7DE02406F0900A7CE034AF
:10410F0000F0809A900A76E0FBA3E0FAA3E0F99022
:10411F00000B121DECE94A7003024259900A76E037
:10412F00FBA3E0FAA3E0F9900006121BBDFDACF073
:10413F00C3943CEC940050037F0022900A76E0FB7E
:10414F00A3E0FAA3E0F9121B92FFAE059000021252
:10415F001BBD2E24F5FD900004121BBDFE121B92F9
:10416F002E14FB900BE7E0900AA8F01261B3900AAF
:10417F0076E0FBA3E0FAA3E0F990000B121DEC90A0
:10418F000A79EBF0A3EAF0A3E9F0900A76E0FBA33B
:10419F00E0FAA3E0F9121B922403FEE435F0900A33
:1041AF007CF0A3CEF0900006121BBDFFAEF0900086
:1041BF0002121BBD2FFFE5F03ECF24F7CF34FF9047
:1041CF000A7EF0A3EFF0900004121BBDFFAEF012B9
:1041DF001B922FFFE5F03ECF24FFCF34FF900A80D4
:1041EF00F0A3EFF0900A7DE02408FF900A7CE03402
:1041FF0000FEC3900A81E09FEE6480F8900A80E091
:10420F006480984045900A79E0FBA3E0FAA3E0F9B7
:10421F00121AE66035900A7CE0FEA3E0FFA3E0FCF3
:10422F00A3E0FD900A79E0FBA3E475F001121B7C7B
:10423F00A9F0FA121AE6FB125664900A7DE02406E2
:0D424F00F0900A7CE03400F0809A7F01229C
:10586600900BFDEBF0A3EAF0A3E9F0900BFDE0FB53
:10587600A3E0FAA3E0F9900004121BBDC39414E55B
:10588600F09400400F900006121BBDC39414E5F07F
:10589600940050037F0022900004121BBDFFAEF05F
:1058A600121B922FFFE5F03EFED3EF9480EE94009C
:1058B60040037F0022900BFDE0FBA3E0FAA3E0F992
:1058C600900006121BBDFFAEF0900002121BBDFD3C
:1058D600ACF02FFFEC3EFED3EF9440EE9400400375
:1058E6007F0022900BFDE0FBA3E0FAA3E0F9121B78
:1058F60092FFAEF0C006C007900004121BBDFFAEBB
:10590600F0121B922FFFE5F03ECF24FFFBEF34FF92
:10591600FAC002C003900BFDE0FBA3E0FA9000067C
:10592600121BBDFFAEF0900002121BBD2FFFE5F06B
:105936003ECF24FFCF34FF900A88F0A3EFF0900B00
:10594600DEE0900A8AF0D003D002D007D0061255C6
:04595600587F012253
:105CFD00900A76EBF0A3EAF0A3E9F0121B92FF04F1
:105D0D00900A79F0900004121BBD2F24FE900A7B9F
:105D1D00F0900002121BBDFF240D900A7AF0900046
:105D2D0006121BBD2FFF24FE900A7CF090000B1273
:105D3D001DECE94A6021900A76E0FBA3E0FAA3E0AE
:105D4D00F9900006121BBDC3943CE5F0940040078A
:105D5D00EF24F4900A7CF0900A79E0FF7E00C006F3
:105D6D00C007A3E0FD7C00A3E0FB7A00A3E0FF9059
:105D7D000A88EEF0A3EFF0900BDEE0900A8AF0D0E7
:065D8D0007D00602555884
:10178900021AD1E86480F8E933E83360110460F0A3
:10179900ED33EC337009E8FCE9FDEAFEEBFF2204C6
